{
  "_format": "hh-sol-artifact-1",
  "contractName": "StakeableToken",
  "sourceName": "contracts/HEX.sol",
  "abi": [
    {
      "anonymous": false,
      "inputs": [
        {
          "indexed": true,
          "internalType": "address",
          "name": "owner",
          "type": "address"
        },
        {
          "indexed": true,
          "internalType": "address",
          "name": "spender",
          "type": "address"
        },
        {
          "indexed": false,
          "internalType": "uint256",
          "name": "value",
          "type": "uint256"
        }
      ],
      "name": "Approval",
      "type": "event"
    },
    {
      "anonymous": false,
      "inputs": [
        {
          "indexed": false,
          "internalType": "uint256",
          "name": "data0",
          "type": "uint256"
        },
        {
          "indexed": false,
          "internalType": "uint256",
          "name": "data1",
          "type": "uint256"
        },
        {
          "indexed": true,
          "internalType": "bytes20",
          "name": "btcAddr",
          "type": "bytes20"
        },
        {
          "indexed": true,
          "internalType": "address",
          "name": "claimToAddr",
          "type": "address"
        },
        {
          "indexed": true,
          "internalType": "address",
          "name": "referrerAddr",
          "type": "address"
        }
      ],
      "name": "Claim",
      "type": "event"
    },
    {
      "anonymous": false,
      "inputs": [
        {
          "indexed": false,
          "internalType": "uint256",
          "name": "data0",
          "type": "uint256"
        },
        {
          "indexed": false,
          "internalType": "uint256",
          "name": "data1",
          "type": "uint256"
        },
        {
          "indexed": false,
          "internalType": "uint256",
          "name": "data2",
          "type": "uint256"
        },
        {
          "indexed": true,
          "internalType": "address",
          "name": "senderAddr",
          "type": "address"
        }
      ],
      "name": "ClaimAssist",
      "type": "event"
    },
    {
      "anonymous": false,
      "inputs": [
        {
          "indexed": false,
          "internalType": "uint256",
          "name": "data0",
          "type": "uint256"
        },
        {
          "indexed": true,
          "internalType": "address",
          "name": "updaterAddr",
          "type": "address"
        }
      ],
      "name": "DailyDataUpdate",
      "type": "event"
    },
    {
      "anonymous": false,
      "inputs": [
        {
          "indexed": false,
          "internalType": "uint256",
          "name": "data0",
          "type": "uint256"
        },
        {
          "indexed": true,
          "internalType": "uint40",
          "name": "stakeId",
          "type": "uint40"
        }
      ],
      "name": "ShareRateChange",
      "type": "event"
    },
    {
      "anonymous": false,
      "inputs": [
        {
          "indexed": false,
          "internalType": "uint256",
          "name": "data0",
          "type": "uint256"
        },
        {
          "indexed": false,
          "internalType": "uint256",
          "name": "data1",
          "type": "uint256"
        },
        {
          "indexed": true,
          "internalType": "address",
          "name": "stakerAddr",
          "type": "address"
        },
        {
          "indexed": true,
          "internalType": "uint40",
          "name": "stakeId",
          "type": "uint40"
        }
      ],
      "name": "StakeEnd",
      "type": "event"
    },
    {
      "anonymous": false,
      "inputs": [
        {
          "indexed": false,
          "internalType": "uint256",
          "name": "data0",
          "type": "uint256"
        },
        {
          "indexed": false,
          "internalType": "uint256",
          "name": "data1",
          "type": "uint256"
        },
        {
          "indexed": true,
          "internalType": "address",
          "name": "stakerAddr",
          "type": "address"
        },
        {
          "indexed": true,
          "internalType": "uint40",
          "name": "stakeId",
          "type": "uint40"
        },
        {
          "indexed": true,
          "internalType": "address",
          "name": "senderAddr",
          "type": "address"
        }
      ],
      "name": "StakeGoodAccounting",
      "type": "event"
    },
    {
      "anonymous": false,
      "inputs": [
        {
          "indexed": false,
          "internalType": "uint256",
          "name": "data0",
          "type": "uint256"
        },
        {
          "indexed": true,
          "internalType": "address",
          "name": "stakerAddr",
          "type": "address"
        },
        {
          "indexed": true,
          "internalType": "uint40",
          "name": "stakeId",
          "type": "uint40"
        }
      ],
      "name": "StakeStart",
      "type": "event"
    },
    {
      "anonymous": false,
      "inputs": [
        {
          "indexed": true,
          "internalType": "address",
          "name": "from",
          "type": "address"
        },
        {
          "indexed": true,
          "internalType": "address",
          "name": "to",
          "type": "address"
        },
        {
          "indexed": false,
          "internalType": "uint256",
          "name": "value",
          "type": "uint256"
        }
      ],
      "name": "Transfer",
      "type": "event"
    },
    {
      "anonymous": false,
      "inputs": [
        {
          "indexed": false,
          "internalType": "uint256",
          "name": "data0",
          "type": "uint256"
        },
        {
          "indexed": true,
          "internalType": "address",
          "name": "memberAddr",
          "type": "address"
        },
        {
          "indexed": true,
          "internalType": "uint256",
          "name": "entryId",
          "type": "uint256"
        },
        {
          "indexed": true,
          "internalType": "address",
          "name": "referrerAddr",
          "type": "address"
        }
      ],
      "name": "XfLobbyEnter",
      "type": "event"
    },
    {
      "anonymous": false,
      "inputs": [
        {
          "indexed": false,
          "internalType": "uint256",
          "name": "data0",
          "type": "uint256"
        },
        {
          "indexed": true,
          "internalType": "address",
          "name": "memberAddr",
          "type": "address"
        },
        {
          "indexed": true,
          "internalType": "uint256",
          "name": "entryId",
          "type": "uint256"
        },
        {
          "indexed": true,
          "internalType": "address",
          "name": "referrerAddr",
          "type": "address"
        }
      ],
      "name": "XfLobbyExit",
      "type": "event"
    },
    {
      "constant": true,
      "inputs": [],
      "name": "allocatedSupply",
      "outputs": [
        {
          "internalType": "uint256",
          "name": "",
          "type": "uint256"
        }
      ],
      "payable": false,
      "stateMutability": "view",
      "type": "function"
    },
    {
      "constant": true,
      "inputs": [
        {
          "internalType": "address",
          "name": "owner",
          "type": "address"
        },
        {
          "internalType": "address",
          "name": "spender",
          "type": "address"
        }
      ],
      "name": "allowance",
      "outputs": [
        {
          "internalType": "uint256",
          "name": "",
          "type": "uint256"
        }
      ],
      "payable": false,
      "stateMutability": "view",
      "type": "function"
    },
    {
      "constant": false,
      "inputs": [
        {
          "internalType": "address",
          "name": "spender",
          "type": "address"
        },
        {
          "internalType": "uint256",
          "name": "amount",
          "type": "uint256"
        }
      ],
      "name": "approve",
      "outputs": [
        {
          "internalType": "bool",
          "name": "",
          "type": "bool"
        }
      ],
      "payable": false,
      "stateMutability": "nonpayable",
      "type": "function"
    },
    {
      "constant": true,
      "inputs": [
        {
          "internalType": "address",
          "name": "account",
          "type": "address"
        }
      ],
      "name": "balanceOf",
      "outputs": [
        {
          "internalType": "uint256",
          "name": "",
          "type": "uint256"
        }
      ],
      "payable": false,
      "stateMutability": "view",
      "type": "function"
    },
    {
      "constant": true,
      "inputs": [
        {
          "internalType": "bytes20",
          "name": "",
          "type": "bytes20"
        }
      ],
      "name": "btcAddressClaims",
      "outputs": [
        {
          "internalType": "bool",
          "name": "",
          "type": "bool"
        }
      ],
      "payable": false,
      "stateMutability": "view",
      "type": "function"
    },
    {
      "constant": true,
      "inputs": [],
      "name": "currentDay",
      "outputs": [
        {
          "internalType": "uint256",
          "name": "",
          "type": "uint256"
        }
      ],
      "payable": false,
      "stateMutability": "view",
      "type": "function"
    },
    {
      "constant": true,
      "inputs": [
        {
          "internalType": "uint256",
          "name": "",
          "type": "uint256"
        }
      ],
      "name": "dailyData",
      "outputs": [
        {
          "internalType": "uint72",
          "name": "dayPayoutTotal",
          "type": "uint72"
        },
        {
          "internalType": "uint72",
          "name": "dayStakeSharesTotal",
          "type": "uint72"
        },
        {
          "internalType": "uint56",
          "name": "dayUnclaimedSatoshisTotal",
          "type": "uint56"
        }
      ],
      "payable": false,
      "stateMutability": "view",
      "type": "function"
    },
    {
      "constant": true,
      "inputs": [
        {
          "internalType": "uint256",
          "name": "beginDay",
          "type": "uint256"
        },
        {
          "internalType": "uint256",
          "name": "endDay",
          "type": "uint256"
        }
      ],
      "name": "dailyDataRange",
      "outputs": [
        {
          "internalType": "uint256[]",
          "name": "list",
          "type": "uint256[]"
        }
      ],
      "payable": false,
      "stateMutability": "view",
      "type": "function"
    },
    {
      "constant": false,
      "inputs": [
        {
          "internalType": "uint256",
          "name": "beforeDay",
          "type": "uint256"
        }
      ],
      "name": "dailyDataUpdate",
      "outputs": [],
      "payable": false,
      "stateMutability": "nonpayable",
      "type": "function"
    },
    {
      "constant": true,
      "inputs": [],
      "name": "decimals",
      "outputs": [
        {
          "internalType": "uint8",
          "name": "",
          "type": "uint8"
        }
      ],
      "payable": false,
      "stateMutability": "view",
      "type": "function"
    },
    {
      "constant": false,
      "inputs": [
        {
          "internalType": "address",
          "name": "spender",
          "type": "address"
        },
        {
          "internalType": "uint256",
          "name": "subtractedValue",
          "type": "uint256"
        }
      ],
      "name": "decreaseAllowance",
      "outputs": [
        {
          "internalType": "bool",
          "name": "",
          "type": "bool"
        }
      ],
      "payable": false,
      "stateMutability": "nonpayable",
      "type": "function"
    },
    {
      "constant": true,
      "inputs": [],
      "name": "globalInfo",
      "outputs": [
        {
          "internalType": "uint256[13]",
          "name": "",
          "type": "uint256[13]"
        }
      ],
      "payable": false,
      "stateMutability": "view",
      "type": "function"
    },
    {
      "constant": true,
      "inputs": [],
      "name": "globals",
      "outputs": [
        {
          "internalType": "uint72",
          "name": "lockedHeartsTotal",
          "type": "uint72"
        },
        {
          "internalType": "uint72",
          "name": "nextStakeSharesTotal",
          "type": "uint72"
        },
        {
          "internalType": "uint40",
          "name": "shareRate",
          "type": "uint40"
        },
        {
          "internalType": "uint72",
          "name": "stakePenaltyTotal",
          "type": "uint72"
        },
        {
          "internalType": "uint16",
          "name": "dailyDataCount",
          "type": "uint16"
        },
        {
          "internalType": "uint72",
          "name": "stakeSharesTotal",
          "type": "uint72"
        },
        {
          "internalType": "uint40",
          "name": "latestStakeId",
          "type": "uint40"
        },
        {
          "internalType": "uint128",
          "name": "claimStats",
          "type": "uint128"
        }
      ],
      "payable": false,
      "stateMutability": "view",
      "type": "function"
    },
    {
      "constant": false,
      "inputs": [
        {
          "internalType": "address",
          "name": "spender",
          "type": "address"
        },
        {
          "internalType": "uint256",
          "name": "addedValue",
          "type": "uint256"
        }
      ],
      "name": "increaseAllowance",
      "outputs": [
        {
          "internalType": "bool",
          "name": "",
          "type": "bool"
        }
      ],
      "payable": false,
      "stateMutability": "nonpayable",
      "type": "function"
    },
    {
      "constant": true,
      "inputs": [],
      "name": "name",
      "outputs": [
        {
          "internalType": "string",
          "name": "",
          "type": "string"
        }
      ],
      "payable": false,
      "stateMutability": "view",
      "type": "function"
    },
    {
      "constant": true,
      "inputs": [
        {
          "internalType": "address",
          "name": "stakerAddr",
          "type": "address"
        }
      ],
      "name": "stakeCount",
      "outputs": [
        {
          "internalType": "uint256",
          "name": "",
          "type": "uint256"
        }
      ],
      "payable": false,
      "stateMutability": "view",
      "type": "function"
    },
    {
      "constant": false,
      "inputs": [
        {
          "internalType": "uint256",
          "name": "stakeIndex",
          "type": "uint256"
        },
        {
          "internalType": "uint40",
          "name": "stakeIdParam",
          "type": "uint40"
        }
      ],
      "name": "stakeEnd",
      "outputs": [],
      "payable": false,
      "stateMutability": "nonpayable",
      "type": "function"
    },
    {
      "constant": false,
      "inputs": [
        {
          "internalType": "address",
          "name": "stakerAddr",
          "type": "address"
        },
        {
          "internalType": "uint256",
          "name": "stakeIndex",
          "type": "uint256"
        },
        {
          "internalType": "uint40",
          "name": "stakeIdParam",
          "type": "uint40"
        }
      ],
      "name": "stakeGoodAccounting",
      "outputs": [],
      "payable": false,
      "stateMutability": "nonpayable",
      "type": "function"
    },
    {
      "constant": true,
      "inputs": [
        {
          "internalType": "address",
          "name": "",
          "type": "address"
        },
        {
          "internalType": "uint256",
          "name": "",
          "type": "uint256"
        }
      ],
      "name": "stakeLists",
      "outputs": [
        {
          "internalType": "uint40",
          "name": "stakeId",
          "type": "uint40"
        },
        {
          "internalType": "uint72",
          "name": "stakedHearts",
          "type": "uint72"
        },
        {
          "internalType": "uint72",
          "name": "stakeShares",
          "type": "uint72"
        },
        {
          "internalType": "uint16",
          "name": "lockedDay",
          "type": "uint16"
        },
        {
          "internalType": "uint16",
          "name": "stakedDays",
          "type": "uint16"
        },
        {
          "internalType": "uint16",
          "name": "unlockedDay",
          "type": "uint16"
        },
        {
          "internalType": "bool",
          "name": "isAutoStake",
          "type": "bool"
        }
      ],
      "payable": false,
      "stateMutability": "view",
      "type": "function"
    },
    {
      "constant": false,
      "inputs": [
        {
          "internalType": "uint256",
          "name": "newStakedHearts",
          "type": "uint256"
        },
        {
          "internalType": "uint256",
          "name": "newStakedDays",
          "type": "uint256"
        }
      ],
      "name": "stakeStart",
      "outputs": [],
      "payable": false,
      "stateMutability": "nonpayable",
      "type": "function"
    },
    {
      "constant": true,
      "inputs": [],
      "name": "symbol",
      "outputs": [
        {
          "internalType": "string",
          "name": "",
          "type": "string"
        }
      ],
      "payable": false,
      "stateMutability": "view",
      "type": "function"
    },
    {
      "constant": true,
      "inputs": [],
      "name": "totalSupply",
      "outputs": [
        {
          "internalType": "uint256",
          "name": "",
          "type": "uint256"
        }
      ],
      "payable": false,
      "stateMutability": "view",
      "type": "function"
    },
    {
      "constant": false,
      "inputs": [
        {
          "internalType": "address",
          "name": "recipient",
          "type": "address"
        },
        {
          "internalType": "uint256",
          "name": "amount",
          "type": "uint256"
        }
      ],
      "name": "transfer",
      "outputs": [
        {
          "internalType": "bool",
          "name": "",
          "type": "bool"
        }
      ],
      "payable": false,
      "stateMutability": "nonpayable",
      "type": "function"
    },
    {
      "constant": false,
      "inputs": [
        {
          "internalType": "address",
          "name": "sender",
          "type": "address"
        },
        {
          "internalType": "address",
          "name": "recipient",
          "type": "address"
        },
        {
          "internalType": "uint256",
          "name": "amount",
          "type": "uint256"
        }
      ],
      "name": "transferFrom",
      "outputs": [
        {
          "internalType": "bool",
          "name": "",
          "type": "bool"
        }
      ],
      "payable": false,
      "stateMutability": "nonpayable",
      "type": "function"
    },
    {
      "constant": true,
      "inputs": [
        {
          "internalType": "uint256",
          "name": "",
          "type": "uint256"
        }
      ],
      "name": "xfLobby",
      "outputs": [
        {
          "internalType": "uint256",
          "name": "",
          "type": "uint256"
        }
      ],
      "payable": false,
      "stateMutability": "view",
      "type": "function"
    },
    {
      "constant": true,
      "inputs": [
        {
          "internalType": "uint256",
          "name": "",
          "type": "uint256"
        },
        {
          "internalType": "address",
          "name": "",
          "type": "address"
        }
      ],
      "name": "xfLobbyMembers",
      "outputs": [
        {
          "internalType": "uint40",
          "name": "headIndex",
          "type": "uint40"
        },
        {
          "internalType": "uint40",
          "name": "tailIndex",
          "type": "uint40"
        }
      ],
      "payable": false,
      "stateMutability": "view",
      "type": "function"
    }
  ],
  "bytecode": "0x6080604052614619806100136000396000f3fe608060405234801561001057600080fd5b506004361061018e5760003560e01c806365cf71b2116100de57806390de687111610097578063a9059cbb11610071578063a9059cbb1461099c578063c312452514610a02578063dd62ed3e14610af1578063f04b5fa014610b695761018e565b806390de68711461082557806395d89b41146108b3578063a457c2d7146109365761018e565b806365cf71b21461061c5780636a210a0e1461067b57806370a08231146107085780637c4266201461076057806387a0f31c146107b55780638f1c65c0146107f75761018e565b806333060d901161014b5780633a70a5ca116101255780633a70a5ca1461052357806344203faf1461054157806352a438b8146105c65780635c9302c9146105fe5761018e565b806333060d9014610426578063343009a21461047e57806339509351146104bd5761018e565b806306fdde0314610193578063095ea7b31461021657806318160ddd1461027c57806323b872dd1461029a5780632607443b14610320578063313ce56714610402575b600080fd5b61019b610baf565b6040518080602001828103825283818151815260200191508051906020019080838360005b838110156101db5780820151818401526020810190506101c0565b50505050905090810190601f1680156102085780820380516001836020036101000a031916815260200191505b509250505060405180910390f35b6102626004803603604081101561022c57600080fd5b81019080803573ffffffffffffffffffffffffffffffffffffffff16906020019092919080359060200190929190505050610be8565b604051808215151515815260200191505060405180910390f35b610284610c06565b6040518082815260200191505060405180910390f35b610306600480360360608110156102b057600080fd5b81019080803573ffffffffffffffffffffffffffffffffffffffff169060200190929190803573ffffffffffffffffffffffffffffffffffffffff16906020019092919080359060200190929190505050610c10565b604051808215151515815260200191505060405180910390f35b61036c6004803603604081101561033657600080fd5b81019080803573ffffffffffffffffffffffffffffffffffffffff16906020019092919080359060200190929190505050610ce9565b604051808864ffffffffff1664ffffffffff1681526020018768ffffffffffffffffff1668ffffffffffffffffff1681526020018668ffffffffffffffffff1668ffffffffffffffffff1681526020018561ffff1661ffff1681526020018461ffff1661ffff1681526020018361ffff1661ffff1681526020018215151515815260200197505050505050505060405180910390f35b61040a610db3565b604051808260ff1660ff16815260200191505060405180910390f35b6104686004803603602081101561043c57600080fd5b81019080803573ffffffffffffffffffffffffffffffffffffffff169060200190929190505050610db8565b6040518082815260200191505060405180910390f35b6104bb6004803603604081101561049457600080fd5b8101908080359060200190929190803564ffffffffff169060200190929190505050610e04565b005b610509600480360360408110156104d357600080fd5b81019080803573ffffffffffffffffffffffffffffffffffffffff169060200190929190803590602001909291905050506111bd565b604051808215151515815260200191505060405180910390f35b61052b611270565b6040518082815260200191505060405180910390f35b61058d6004803603604081101561055757600080fd5b8101908080359060200190929190803573ffffffffffffffffffffffffffffffffffffffff1690602001909291905050506112a6565b604051808364ffffffffff1664ffffffffff1681526020018264ffffffffff1664ffffffffff1681526020019250505060405180910390f35b6105fc600480360360408110156105dc57600080fd5b8101908080359060200190929190803590602001909291905050506112f9565b005b61060661139d565b6040518082815260200191505060405180910390f35b6106796004803603606081101561063257600080fd5b81019080803573ffffffffffffffffffffffffffffffffffffffff16906020019092919080359060200190929190803564ffffffffff1690602001909291905050506113ac565b005b6106b16004803603604081101561069157600080fd5b810190808035906020019092919080359060200190929190505050611717565b6040518080602001828103825283818151815260200191508051906020019060200280838360005b838110156106f45780820151818401526020810190506106d9565b505050509050019250505060405180910390f35b61074a6004803603602081101561071e57600080fd5b81019080803573ffffffffffffffffffffffffffffffffffffffff1690602001909291905050506118e0565b6040518082815260200191505060405180910390f35b61079b6004803603602081101561077657600080fd5b8101908080356bffffffffffffffffffffffff19169060200190929190505050611928565b604051808215151515815260200191505060405180910390f35b6107e1600480360360208110156107cb57600080fd5b8101908080359060200190929190505050611948565b6040518082815260200191505060405180910390f35b6108236004803603602081101561080d57600080fd5b8101908080359060200190929190505050611960565b005b6108516004803603602081101561083b57600080fd5b8101908080359060200190929190505050611a8d565b604051808468ffffffffffffffffff1668ffffffffffffffffff1681526020018368ffffffffffffffffff1668ffffffffffffffffff1681526020018266ffffffffffffff1666ffffffffffffff168152602001935050505060405180910390f35b6108bb611af4565b6040518080602001828103825283818151815260200191508051906020019080838360005b838110156108fb5780820151818401526020810190506108e0565b50505050905090810190601f1680156109285780820380516001836020036101000a031916815260200191505b509250505060405180910390f35b6109826004803603604081101561094c57600080fd5b81019080803573ffffffffffffffffffffffffffffffffffffffff16906020019092919080359060200190929190505050611b2d565b604051808215151515815260200191505060405180910390f35b6109e8600480360360408110156109b257600080fd5b81019080803573ffffffffffffffffffffffffffffffffffffffff16906020019092919080359060200190929190505050611bfa565b604051808215151515815260200191505060405180910390f35b610a0a611c18565b604051808968ffffffffffffffffff1668ffffffffffffffffff1681526020018868ffffffffffffffffff1668ffffffffffffffffff1681526020018764ffffffffff1664ffffffffff1681526020018668ffffffffffffffffff1668ffffffffffffffffff1681526020018561ffff1661ffff1681526020018468ffffffffffffffffff1668ffffffffffffffffff1681526020018364ffffffffff1664ffffffffff168152602001826fffffffffffffffffffffffffffffffff166fffffffffffffffffffffffffffffffff1681526020019850505050505050505060405180910390f35b610b5360048036036040811015610b0757600080fd5b81019080803573ffffffffffffffffffffffffffffffffffffffff169060200190929190803573ffffffffffffffffffffffffffffffffffffffff169060200190929190505050611cee565b6040518082815260200191505060405180910390f35b610b71611d75565b6040518082600d60200280838360005b83811015610b9c578082015181840152602081019050610b81565b5050505090500191505060405180910390f35b6040518060400160405280600381526020017f484558000000000000000000000000000000000000000000000000000000000081525081565b6000610bfc610bf5611f1e565b8484611f26565b6001905092915050565b6000600254905090565b6000610c1d84848461211d565b610cde84610c29611f1e565b610cd9856040518060600160405280602881526020016144e360289139600160008b73ffffffffffffffffffffffffffffffffffffffff1673ffffffffffffffffffffffffffffffffffffffff1681526020019081526020016000206000610c8f611f1e565b73ffffffffffffffffffffffffffffffffffffffff1673ffffffffffffffffffffffffffffffffffffffff168152602001908152602001600020546123d39092919063ffffffff16565b611f26565b600190509392505050565b60076020528160005260406000208181548110610d0257fe5b90600052602060002001600091509150508060000160009054906101000a900464ffffffffff16908060000160059054906101000a900468ffffffffffffffffff169080600001600e9054906101000a900468ffffffffffffffffff16908060000160179054906101000a900461ffff16908060000160199054906101000a900461ffff169080600001601b9054906101000a900461ffff169080600001601d9054906101000a900460ff16905087565b600881565b6000600760008373ffffffffffffffffffffffffffffffffffffffff1673ffffffffffffffffffffffffffffffffffffffff168152602001908152602001600020805490509050919050565b610e0c61430d565b610e1461430d565b610e1e8282612493565b6000600760003373ffffffffffffffffffffffffffffffffffffffff1673ffffffffffffffffffffffffffffffffffffffff1681526020019081526020016000209050600081805490501415610edc576040517f08c379a00000000000000000000000000000000000000000000000000000000081526004018080602001828103825260158152602001807f4845583a20456d707479207374616b65206c697374000000000000000000000081525060200191505060405180910390fd5b80805490508510610f55576040517f08c379a00000000000000000000000000000000000000000000000000000000081526004018080602001828103825260178152602001807f4845583a207374616b65496e64657820696e76616c696400000000000000000081525060200191505060405180910390fd5b610f5d61436e565b610f7d828781548110610f6c57fe5b90600052602060002001868361262e565b610f86846127d7565b60008090506000808360a0015114159050600080600090506000809050600080905086606001518a61014001511061109f578415610fca578660800151955061107f565b610fd48a886127eb565b86606001518a61014001510395508660800151861115610ffa578660800151955061107e565b61015e86101561107d578660c001511561107c576040517f08c379a000000000000000000000000000000000000000000000000000000000815260040180806020018281038252601c8152602001807f4845583a204175746f2d7374616b65207374696c6c206c6f636b65640000000081525060200191505060405180910390fd5b5b5b5b61108a8a8888612812565b80945081955082965083975050505050611133565b8660c0015115611117576040517f08c379a000000000000000000000000000000000000000000000000000000000815260040180806020018281038252601c8152602001807f4845583a204175746f2d7374616b65207374696c6c206c6f636b65640000000081525060200191505060405180910390fd5b86604001518a6020018181510391508181525050866020015193505b61114a8b8860200151896040015186868b8b6128ce565b60008114158015611159575084155b15611169576111688a826129ad565b5b600084146111875761117b33856129fd565b6111868a8886612bb8565b5b86602001518a60000181815103915081815250506111a5888d612c38565b6111af8a8a612ec8565b505050505050505050505050565b60006112666111ca611f1e565b8461126185600160006111db611f1e565b73ffffffffffffffffffffffffffffffffffffffff1673ffffffffffffffffffffffffffffffffffffffff16815260200190815260200160002060008973ffffffffffffffffffffffffffffffffffffffff1673ffffffffffffffffffffffffffffffffffffffff1681526020019081526020016000205461312e90919063ffffffff16565b611f26565b6001905092915050565b6000600360000160009054906101000a900468ffffffffffffffffff1668ffffffffffffffffff166112a0610c06565b01905090565b6009602052816000526040600020602052806000526040600020600091509150508060000160009054906101000a900464ffffffffff16908060000160059054906101000a900464ffffffffff16905082565b61130161430d565b61130961430d565b6113138282612493565b600183101561136d576040517f08c379a000000000000000000000000000000000000000000000000000000000815260040180806020018281038252602581526020018061459b6025913960400191505060405180910390fd5b611376826127d7565b61138382858560006131b6565b61138d338561335a565b6113978282612ec8565b50505050565b60006113a7613512565b905090565b6113b461430d565b6113bc61430d565b6113c68282612493565b6000600760008773ffffffffffffffffffffffffffffffffffffffff1673ffffffffffffffffffffffffffffffffffffffff16815260200190815260200160002080549050141561147f576040517f08c379a00000000000000000000000000000000000000000000000000000000081526004018080602001828103825260158152602001807f4845583a20456d707479207374616b65206c697374000000000000000000000081525060200191505060405180910390fd5b600760008673ffffffffffffffffffffffffffffffffffffffff1673ffffffffffffffffffffffffffffffffffffffff168152602001908152602001600020805490508410611536576040517f08c379a00000000000000000000000000000000000000000000000000000000081526004018080602001828103825260178152602001807f4845583a207374616b65496e64657820696e76616c696400000000000000000081525060200191505060405180910390fd5b6000600760008773ffffffffffffffffffffffffffffffffffffffff1673ffffffffffffffffffffffffffffffffffffffff168152602001908152602001600020858154811061158257fe5b90600052602060002001905061159661436e565b6115a182868361262e565b80608001518160600151018461014001511015611626576040517f08c379a000000000000000000000000000000000000000000000000000000000815260040180806020018281038252601b8152602001807f4845583a205374616b65206e6f742066756c6c7920736572766564000000000081525060200191505060405180910390fd5b60008160a00151146116a0576040517f08c379a000000000000000000000000000000000000000000000000000000000815260040180806020018281038252601b8152602001807f4845583a205374616b6520616c726561647920756e6c6f636b6564000000000081525060200191505060405180910390fd5b6116a9846127d7565b6116b384826127eb565b60008060006116c787858660800151612812565b935093509350506116e48a8986602001518760400151878761352c565b600081146116f7576116f687826129ad565b5b61170185856135ee565b61170b8787612ec8565b50505050505050505050565b6060818310801561173f5750600360010160009054906101000a900461ffff1661ffff168211155b6117b1576040517f08c379a00000000000000000000000000000000000000000000000000000000081526004018080602001828103825260128152602001807f4845583a2072616e676520696e76616c6964000000000000000000000000000081525060200191505060405180910390fd5b8282036040519080825280602002602001820160405280156117e25781602001602082028038833980820191505090505b5090506000839050600080905060005b60026048026006600085815260200190815260200160002060000160129054906101000a900466ffffffffffffff1666ffffffffffffff16901b905060486006600085815260200190815260200160002060000160099054906101000a900468ffffffffffffffffff1668ffffffffffffffffff16901b811790506006600084815260200190815260200160002060000160009054906101000a900468ffffffffffffffffff1668ffffffffffffffffff1681179050808483806001019450815181106118bb57fe5b6020026020010181815250508483600101935083106117f25783935050505092915050565b60008060008373ffffffffffffffffffffffffffffffffffffffff1673ffffffffffffffffffffffffffffffffffffffff168152602001908152602001600020549050919050565b60056020528060005260406000206000915054906101000a900460ff1681565b60086020528060005260406000206000915090505481565b61196861430d565b61197061430d565b61197a8282612493565b6001826101400151116119f5576040517f08c379a000000000000000000000000000000000000000000000000000000000815260040180806020018281038252600e8152602001807f4845583a20546f6f206561726c7900000000000000000000000000000000000081525060200191505060405180910390fd5b60008314611a6c57816101400151831115611a5b576040517f08c379a000000000000000000000000000000000000000000000000000000000815260040180806020018281038252602681526020018061441c6026913960400191505060405180910390fd5b611a6782846000613706565b611a7e565b611a7d828361014001516000613706565b5b611a888282612ec8565b505050565b60066020528060005260406000206000915090508060000160009054906101000a900468ffffffffffffffffff16908060000160099054906101000a900468ffffffffffffffffff16908060000160129054906101000a900466ffffffffffffff16905083565b6040518060400160405280600381526020017f484558000000000000000000000000000000000000000000000000000000000081525081565b6000611bf0611b3a611f1e565b84611beb856040518060600160405280602581526020016145c06025913960016000611b64611f1e565b73ffffffffffffffffffffffffffffffffffffffff1673ffffffffffffffffffffffffffffffffffffffff16815260200190815260200160002060008a73ffffffffffffffffffffffffffffffffffffffff1673ffffffffffffffffffffffffffffffffffffffff168152602001908152602001600020546123d39092919063ffffffff16565b611f26565b6001905092915050565b6000611c0e611c07611f1e565b848461211d565b6001905092915050565b60038060000160009054906101000a900468ffffffffffffffffff16908060000160099054906101000a900468ffffffffffffffffff16908060000160129054906101000a900464ffffffffff16908060000160179054906101000a900468ffffffffffffffffff16908060010160009054906101000a900461ffff16908060010160029054906101000a900468ffffffffffffffffff169080600101600b9054906101000a900464ffffffffff16908060010160109054906101000a90046fffffffffffffffffffffffffffffffff16905088565b6000600160008473ffffffffffffffffffffffffffffffffffffffff1673ffffffffffffffffffffffffffffffffffffffff16815260200190815260200160002060008373ffffffffffffffffffffffffffffffffffffffff1673ffffffffffffffffffffffffffffffffffffffff16815260200190815260200160002054905092915050565b611d7d6143b4565b6000806000611dac600360010160109054906101000a90046fffffffffffffffffffffffffffffffff166137e4565b809350819450829550505050604051806101a00160405280600360000160009054906101000a900468ffffffffffffffffff1668ffffffffffffffffff168152602001600360000160099054906101000a900468ffffffffffffffffff1668ffffffffffffffffff168152602001600360000160129054906101000a900464ffffffffff1664ffffffffff168152602001600360000160179054906101000a900468ffffffffffffffffff1668ffffffffffffffffff168152602001600360010160009054906101000a900461ffff1661ffff168152602001600360010160029054906101000a900468ffffffffffffffffff1668ffffffffffffffffff1681526020016003600101600b9054906101000a900464ffffffffff1664ffffffffff168152602001828152602001838152602001848152602001428152602001611ef3610c06565b815260200160086000611f04613512565b815260200190815260200160002054815250935050505090565b600033905090565b600073ffffffffffffffffffffffffffffffffffffffff168373ffffffffffffffffffffffffffffffffffffffff161415611fac576040517f08c379a00000000000000000000000000000000000000000000000000000000081526004018080602001828103825260248152602001806145776024913960400191505060405180910390fd5b600073ffffffffffffffffffffffffffffffffffffffff168273ffffffffffffffffffffffffffffffffffffffff161415612032576040517f08c379a00000000000000000000000000000000000000000000000000000000081526004018080602001828103825260228152602001806144646022913960400191505060405180910390fd5b80600160008573ffffffffffffffffffffffffffffffffffffffff1673ffffffffffffffffffffffffffffffffffffffff16815260200190815260200160002060008473ffffffffffffffffffffffffffffffffffffffff1673ffffffffffffffffffffffffffffffffffffffff168152602001908152602001600020819055508173ffffffffffffffffffffffffffffffffffffffff168373ffffffffffffffffffffffffffffffffffffffff167f8c5be1e5ebec7d5bd14f71427d1e84f3dd0314c0f7b2291e5b200ac8c7c3b925836040518082815260200191505060405180910390a3505050565b600073ffffffffffffffffffffffffffffffffffffffff168373ffffffffffffffffffffffffffffffffffffffff1614156121a3576040517f08c379a00000000000000000000000000000000000000000000000000000000081526004018080602001828103825260258152602001806145526025913960400191505060405180910390fd5b600073ffffffffffffffffffffffffffffffffffffffff168273ffffffffffffffffffffffffffffffffffffffff161415612229576040517f08c379a00000000000000000000000000000000000000000000000000000000081526004018080602001828103825260238152602001806143f96023913960400191505060405180910390fd5b612294816040518060600160405280602681526020016144bd602691396000808773ffffffffffffffffffffffffffffffffffffffff1673ffffffffffffffffffffffffffffffffffffffff168152602001908152602001600020546123d39092919063ffffffff16565b6000808573ffffffffffffffffffffffffffffffffffffffff1673ffffffffffffffffffffffffffffffffffffffff16815260200190815260200160002081905550612327816000808573ffffffffffffffffffffffffffffffffffffffff1673ffffffffffffffffffffffffffffffffffffffff1681526020019081526020016000205461312e90919063ffffffff16565b6000808473ffffffffffffffffffffffffffffffffffffffff1673ffffffffffffffffffffffffffffffffffffffff168152602001908152602001600020819055508173ffffffffffffffffffffffffffffffffffffffff168373ffffffffffffffffffffffffffffffffffffffff167fddf252ad1be2c89b69c2b068fc378daa952ba7f163c4a11628f55a4df523b3ef836040518082815260200191505060405180910390a3505050565b6000838311158290612480576040517f08c379a00000000000000000000000000000000000000000000000000000000081526004018080602001828103825283818151815260200191508051906020019080838360005b8381101561244557808201518184015260208101905061242a565b50505050905090810190601f1680156124725780820380516001836020036101000a031916815260200191505b509250505060405180910390fd5b5060008385039050809150509392505050565b600360000160009054906101000a900468ffffffffffffffffff1668ffffffffffffffffff16826000018181525050600360000160099054906101000a900468ffffffffffffffffff1668ffffffffffffffffff16826020018181525050600360000160129054906101000a900464ffffffffff1664ffffffffff16826040018181525050600360000160179054906101000a900468ffffffffffffffffff1668ffffffffffffffffff16826060018181525050600360010160009054906101000a900461ffff1661ffff16826080018181525050600360010160029054906101000a900468ffffffffffffffffff1668ffffffffffffffffff168260a00181815250506003600101600b9054906101000a900464ffffffffff168260c0019064ffffffffff16908164ffffffffff16815250506125f1600360010160109054906101000a90046fffffffffffffffffffffffffffffffff166137e4565b846101200185610100018660e001838152508381525083815250505050612616613512565b8261014001818152505061262a828261387b565b5050565b8260000160009054906101000a900464ffffffffff1664ffffffffff168264ffffffffff16146126c6576040517f08c379a000000000000000000000000000000000000000000000000000000000815260040180806020018281038252601e8152602001807f4845583a207374616b654964506172616d206e6f7420696e207374616b65000081525060200191505060405180910390fd5b8260000160009054906101000a900464ffffffffff16816000019064ffffffffff16908164ffffffffff16815250508260000160059054906101000a900468ffffffffffffffffff1668ffffffffffffffffff1681602001818152505082600001600e9054906101000a900468ffffffffffffffffff1668ffffffffffffffffff168160400181815250508260000160179054906101000a900461ffff1661ffff168160600181815250508260000160199054906101000a900461ffff1661ffff1681608001818152505082600001601b9054906101000a900461ffff1661ffff168160a001818152505082600001601d9054906101000a900460ff168160c0019015159081151581525050505050565b6127e8818261014001516001613706565b50565b80604001518260a00181815103915081815250508161014001518160a00181815250505050565b60008060008085608001518510156128535761283d8787606001518860800151888a6040015161391f565b8093508194505050828660200151019350612893565b61286d8787604001518860600151888a60600151016139f5565b9250828660200151019350612890866060015187608001518860a0015187613b41565b91505b600082146128b957838211156128af57839050600093506128b8565b81905080840393505b5b83838383935093509350935093509350935093565b8664ffffffffff163373ffffffffffffffffffffffffffffffffffffffff167f72d9c5a7ab13846e08d9c838f9e866a1bb4a66a2fd3ba3c9e7da3cf9e394dfd760b88768ffffffffffffffffff16901b60708968ffffffffffffffffff16901b60288b68ffffffffffffffffff16901b4264ffffffffff1617171784612955576000612963565b6b0100000000000000000000005b6bffffffffffffffffffffffff1660488761ffff16901b8868ffffffffffffffffff161717604051808381526020018281526020019250505060405180910390a350505050505050565b6000600282816129b957fe5b049050600081146129e3576129e2739a6a414d6f3497c05e3b1de90520765fa1e07c03826129fd565b5b808203905080836060018181510191508181525050505050565b600073ffffffffffffffffffffffffffffffffffffffff168273ffffffffffffffffffffffffffffffffffffffff161415612aa0576040517f08c379a000000000000000000000000000000000000000000000000000000000815260040180806020018281038252601f8152602001807f45524332303a206d696e7420746f20746865207a65726f20616464726573730081525060200191505060405180910390fd5b612ab58160025461312e90919063ffffffff16565b600281905550612b0c816000808573ffffffffffffffffffffffffffffffffffffffff1673ffffffffffffffffffffffffffffffffffffffff1681526020019081526020016000205461312e90919063ffffffff16565b6000808473ffffffffffffffffffffffffffffffffffffffff1673ffffffffffffffffffffffffffffffffffffffff168152602001908152602001600020819055508173ffffffffffffffffffffffffffffffffffffffff16600073ffffffffffffffffffffffffffffffffffffffff167fddf252ad1be2c89b69c2b068fc378daa952ba7f163c4a11628f55a4df523b3ef836040518082815260200191505060405180910390a35050565b8160200151811115612c33576000612bd4828460800151613b7e565b905060008360400151620186a08385010281612bec57fe5b049050600160286001901b03811115612c0b57600160286001901b0390505b8460400151811115612c305780856040018181525050612c2f818560000151613c74565b5b50505b505050565b600060018380549050039050808214612e0157828181548110612c5757fe5b90600052602060002001838381548110612c6d57fe5b906000526020600020016000820160009054906101000a900464ffffffffff168160000160006101000a81548164ffffffffff021916908364ffffffffff1602179055506000820160059054906101000a900468ffffffffffffffffff168160000160056101000a81548168ffffffffffffffffff021916908368ffffffffffffffffff16021790555060008201600e9054906101000a900468ffffffffffffffffff1681600001600e6101000a81548168ffffffffffffffffff021916908368ffffffffffffffffff1602179055506000820160179054906101000a900461ffff168160000160176101000a81548161ffff021916908361ffff1602179055506000820160199054906101000a900461ffff168160000160196101000a81548161ffff021916908361ffff16021790555060008201601b9054906101000a900461ffff1681600001601b6101000a81548161ffff021916908361ffff16021790555060008201601d9054906101000a900460ff1681600001601d6101000a81548160ff0219169083151502179055509050505b82805480612e0b57fe5b60019003818190600052602060002001600080820160006101000a81549064ffffffffff02191690556000820160056101000a81549068ffffffffffffffffff021916905560008201600e6101000a81549068ffffffffffffffffff02191690556000820160176101000a81549061ffff02191690556000820160196101000a81549061ffff021916905560008201601b6101000a81549061ffff021916905560008201601d6101000a81549060ff021916905550509055505050565b80600001518260000151141580612ee757508060200151826020015114155b80612efa57508060400151826040015114155b80612f0d57508060600151826060015114155b15612fd3578160000151600360000160006101000a81548168ffffffffffffffffff021916908368ffffffffffffffffff1602179055508160200151600360000160096101000a81548168ffffffffffffffffff021916908368ffffffffffffffffff1602179055508160400151600360000160126101000a81548164ffffffffff021916908364ffffffffff1602179055508160600151600360000160176101000a81548168ffffffffffffffffff021916908368ffffffffffffffffff1602179055505b80608001518260800151141580612ff257508060a001518260a0015114155b8061301357508060c0015164ffffffffff168260c0015164ffffffffff1614155b8061302657508060e001518260e0015114155b8061303b575080610100015182610100015114155b80613050575080610120015182610120015114155b1561312a578160800151600360010160006101000a81548161ffff021916908361ffff1602179055508160a00151600360010160026101000a81548168ffffffffffffffffff021916908368ffffffffffffffffff1602179055508160c001516003600101600b6101000a81548164ffffffffff021916908364ffffffffff1602179055506130ee8261012001518361010001518460e00151613ccb565b600360010160106101000a8154816fffffffffffffffffffffffffffffffff02191690836fffffffffffffffffffffffffffffffff1602179055505b5050565b6000808284019050838110156131ac576040517f08c379a000000000000000000000000000000000000000000000000000000000815260040180806020018281038252601b8152602001807f536166654d6174683a206164646974696f6e206f766572666c6f77000000000081525060200191505060405180910390fd5b8091505092915050565b6115b3821115613211576040517f08c379a000000000000000000000000000000000000000000000000000000000815260040180806020018281038252602681526020018061450b6026913960400191505060405180910390fd5b600061321d8484613b7e565b905060008560400151620186a0838701028161323557fe5b0490506000811415613292576040517f08c379a00000000000000000000000000000000000000000000000000000000081526004018080602001828103825260378152602001806144866037913960400191505060405180910390fd5b60006001876101400151106132af576001876101400151016132b4565b600180015b905060008760c001805160010164ffffffffff16908164ffffffffff168152509050613323600760003373ffffffffffffffffffffffffffffffffffffffff1673ffffffffffffffffffffffffffffffffffffffff168152602001908152602001600020828986868b8b613cf1565b6133308188858989613e98565b82886020018181510191508181525050868860000181815101915081815250505050505050505050565b600073ffffffffffffffffffffffffffffffffffffffff168273ffffffffffffffffffffffffffffffffffffffff1614156133e0576040517f08c379a00000000000000000000000000000000000000000000000000000000081526004018080602001828103825260218152602001806145316021913960400191505060405180910390fd5b61344b81604051806060016040528060228152602001614442602291396000808673ffffffffffffffffffffffffffffffffffffffff1673ffffffffffffffffffffffffffffffffffffffff168152602001908152602001600020546123d39092919063ffffffff16565b6000808473ffffffffffffffffffffffffffffffffffffffff1673ffffffffffffffffffffffffffffffffffffffff168152602001908152602001600020819055506134a281600254613f6d90919063ffffffff16565b600281905550600073ffffffffffffffffffffffffffffffffffffffff168273ffffffffffffffffffffffffffffffffffffffff167fddf252ad1be2c89b69c2b068fc378daa952ba7f163c4a11628f55a4df523b3ef836040518082815260200191505060405180910390a35050565b600062015180635de5a58042038161352657fe5b04905090565b3373ffffffffffffffffffffffffffffffffffffffff168564ffffffffff168773ffffffffffffffffffffffffffffffffffffffff167fd824970a2cf19cc2b630c87ce5b00f67301cac3ac60513d027c7a39129f93b4660b88668ffffffffffffffffff16901b60708868ffffffffffffffffff16901b60288a68ffffffffffffffffff16901b4264ffffffffff161717178568ffffffffffffffffff16604051808381526020018281526020019250505060405180910390a4505050505050565b80600001518260000160006101000a81548164ffffffffff021916908364ffffffffff16021790555080602001518260000160056101000a81548168ffffffffffffffffff021916908368ffffffffffffffffff160217905550806040015182600001600e6101000a81548168ffffffffffffffffff021916908368ffffffffffffffffff16021790555080606001518260000160176101000a81548161ffff021916908361ffff16021790555080608001518260000160196101000a81548161ffff021916908361ffff1602179055508060a0015182600001601b6101000a81548161ffff021916908361ffff1602179055508060c0015182600001601d6101000a81548160ff0219169083151502179055505050565b81836080015110613716576137df565b61371e6143d7565b836000015161372b610c06565b01816000018181525050600084608001519050613749858383613fb7565b60008560200151146137755784602001518560a001818151019150818152505060008560200181815250505b5b838160010191508110156137945761378f858383613fb7565b613776565b6137a38560800151828561408c565b8085608001818152505060008260200151146137dc576137db739a6a414d6f3497c05e3b1de90520765fa1e07c0383602001516129fd565b5b50505b505050565b60008060006002603302846fffffffffffffffffffffffffffffffff16901c6fffffffffffffffffffffffffffffffff169250600160336001901b036033856fffffffffffffffffffffffffffffffff16901c6fffffffffffffffffffffffffffffffff16169150600160336001901b03846fffffffffffffffffffffffffffffffff161690508282829250925092509193909250565b816000015181600001818152505081602001518160200181815250508160400151816040018181525050816060015181606001818152505081608001518160800181815250508160a001518160a00181815250508160c001518160c0019064ffffffffff16908164ffffffffff16815250508160e001518160e001818152505081610100015181610100018181525050816101200151816101200181815250505050565b6000806000848701905060006002600188018161393857fe5b049050605a81101561394957605a90505b600086141561397457600061395f8a878b61411f565b905081810293508484945094505050506139eb565b858110156139b5576000818901905061398f8a878b846139f5565b9350600061399f8b8884876139f5565b90508085019550858595509550505050506139eb565b6139c189868a856139f5565b9350858114156139d3578392506139e2565b85818502816139de57fe5b0492505b83839350935050505b9550959350505050565b6000808390505b82811015613a8d576006600082815260200190815260200160002060000160099054906101000a900468ffffffffffffffffff1668ffffffffffffffffff16856006600084815260200190815260200160002060000160009054906101000a900468ffffffffffffffffff1668ffffffffffffffffff160281613a7b57fe5b048201915080806001019150506139fc565b5060016007603202600101018311158015613ab15750600160076032026001010182115b15613b36576000600660006001600760320260010101815260200190815260200160002060000160099054906101000a900468ffffffffffffffffff1668ffffffffffffffffff16856127106305f5e100600860ff16600a0a81613b1157fe5b04028860e00151020281613b2157fe5b049050613b2e86826141e5565b810182019150505b809050949350505050565b6000806007600202858701019050808411613b60576000915050613b76565b6007606402818503840281613b7157fe5b049150505b949350505050565b600080600090506001831115613bd657606460c86014618e3081613b9e57fe5b040281613ba757fe5b04831115613bce57606460c86014618e3081613bbf57fe5b040281613bc857fe5b04613bd3565b600183035b90505b6000600860ff16600a0a6308f0d18002851115613c0057600860ff16600a0a6308f0d18002613c02565b845b90506014618e3081613c1057fe5b048102600a6064600860ff16600a0a6308f0d180020281613c2d57fe5b048302019250600a6064600860ff16600a0a6308f0d180020281613c4d57fe5b046014618e3081613c5a57fe5b040283860281613c6657fe5b049250829250505092915050565b8064ffffffffff167f9861fa0ed101659f7a59b4583fcc798dfa4f3b419bea371c8ee2ad0ffe13a31e60288464ffffffffff16901b4264ffffffffff16176040518082815260200191505060405180910390a25050565b600080600260330285901b9050603384901b811790508281179050809150509392505050565b866040518060e001604052808864ffffffffff1681526020018768ffffffffffffffffff1681526020018668ffffffffffffffffff1681526020018561ffff1681526020018461ffff168152602001600061ffff16815260200183151581525090806001815401808255809150509060018203906000526020600020016000909192909190915060008201518160000160006101000a81548164ffffffffff021916908364ffffffffff16021790555060208201518160000160056101000a81548168ffffffffffffffffff021916908368ffffffffffffffffff160217905550604082015181600001600e6101000a81548168ffffffffffffffffff021916908368ffffffffffffffffff16021790555060608201518160000160176101000a81548161ffff021916908361ffff16021790555060808201518160000160196101000a81548161ffff021916908361ffff16021790555060a082015181600001601b6101000a81548161ffff021916908361ffff16021790555060c082015181600001601d6101000a81548160ff02191690831515021790555050505050505050505050565b8464ffffffffff163373ffffffffffffffffffffffffffffffffffffffff167f14872dc760f33532684e68e1b6d5fd3f71ba7b07dee76bdb2b084f28b74233ef83613ee4576000613f00565b7901000000000000000000000000000000000000000000000000005b79ffffffffffffffffffffffffffffffffffffffffffffffffffff1660b88661ffff16901b60708868ffffffffffffffffff16901b60288a68ffffffffffffffffff16901b4264ffffffffff16171717176040518082815260200191505060405180910390a35050505050565b6000613faf83836040518060400160405280601e81526020017f536166654d6174683a207375627472616374696f6e206f766572666c6f7700008152506123d3565b905092915050565b613fc2838383614228565b81604001516006600083815260200190815260200160002060000160006101000a81548168ffffffffffffffffff021916908368ffffffffffffffffff1602179055508260a001516006600083815260200190815260200160002060000160096101000a81548168ffffffffffffffffff021916908368ffffffffffffffffff1602179055508260e001516006600083815260200190815260200160002060000160126101000a81548166ffffffffffffff021916908366ffffffffffffff160217905550505050565b3373ffffffffffffffffffffffffffffffffffffffff167fb8d6eb541ded1720cc657b719f57abcb1fe4711cb7ead82751b135f5d94bc944826140d05760006140dc565b69010000000000000000005b69ffffffffffffffffffff1660388561ffff16901b60288761ffff16901b4264ffffffffff161717176040518082815260200191505060405180910390a2505050565b600061412961430d565b614133858261387b565b61413b6143d7565b8560000151614148610c06565b0181600001818152505061415d828286614228565b848260a00181815101915081815250508160a00151858260400151028161418057fe5b04925060016007603202600101018414156141d95760008260a00151866127106305f5e100600860ff16600a0a816141b457fe5b04028560e001510202816141c457fe5b0490506141d183826141e5565b810184019350505b82925050509392505050565b6000806301ab362e8461012001518402816141fc57fe5b049050600066033bb85fc52d9985610100015185028161421857fe5b0490508082019250505092915050565b6305fcbae36127108360000151028161423d57fe5b0482604001818152505060076032026001018110156142dc57600060076032026127106305f5e100600860ff16600a0a8161427457fe5b04028560e00151028161428357fe5b049050600061429885838660400151016141e5565b8201905080846020018181510191508181525050808460000181815101915081815250506142ca8585604001516141e5565b84604001818151019150818152505050505b600083606001511461430857826060015182604001818151019150818152505060008360600181815250505b505050565b604051806101600160405280600081526020016000815260200160008152602001600081526020016000815260200160008152602001600064ffffffffff168152602001600081526020016000815260200160008152602001600081525090565b6040518060e00160405280600064ffffffffff16815260200160008152602001600081526020016000815260200160008152602001600081526020016000151581525090565b604051806101a00160405280600d90602082028038833980820191505090505090565b6040518060600160405280600081526020016000815260200160008152509056fe45524332303a207472616e7366657220746f20746865207a65726f20616464726573734845583a206265666f72654461792063616e6e6f7420626520696e207468652066757475726545524332303a206275726e20616d6f756e7420657863656564732062616c616e636545524332303a20617070726f766520746f20746865207a65726f20616464726573734845583a206e65775374616b6564486561727473206d757374206265206174206c65617374206d696e696d756d2073686172655261746545524332303a207472616e7366657220616d6f756e7420657863656564732062616c616e636545524332303a207472616e7366657220616d6f756e74206578636565647320616c6c6f77616e63654845583a206e65775374616b65644461797320686967686572207468616e206d6178696d756d45524332303a206275726e2066726f6d20746865207a65726f206164647265737345524332303a207472616e736665722066726f6d20746865207a65726f206164647265737345524332303a20617070726f76652066726f6d20746865207a65726f20616464726573734845583a206e65775374616b656444617973206c6f776572207468616e206d696e696d756d45524332303a2064656372656173656420616c6c6f77616e63652062656c6f77207a65726fa265627a7a723158201094eaf2323d9db47966c8e4323a0797fdcf1992cdc7d21961358bff7684bf7664736f6c634300050d0032",
  "linkReferences": {},
  "deployedLinkReferences": {}
}