{
  "_format": "hh-sol-artifact-1",
  "contractName": "TransformableToken",
  "sourceName": "contracts/HEX.sol",
  "abi": [
    {
      "anonymous": false,
      "inputs": [
        {
          "indexed": true,
          "internalType": "address",
          "name": "owner",
          "type": "address"
        },
        {
          "indexed": true,
          "internalType": "address",
          "name": "spender",
          "type": "address"
        },
        {
          "indexed": false,
          "internalType": "uint256",
          "name": "value",
          "type": "uint256"
        }
      ],
      "name": "Approval",
      "type": "event"
    },
    {
      "anonymous": false,
      "inputs": [
        {
          "indexed": false,
          "internalType": "uint256",
          "name": "data0",
          "type": "uint256"
        },
        {
          "indexed": false,
          "internalType": "uint256",
          "name": "data1",
          "type": "uint256"
        },
        {
          "indexed": true,
          "internalType": "bytes20",
          "name": "btcAddr",
          "type": "bytes20"
        },
        {
          "indexed": true,
          "internalType": "address",
          "name": "claimToAddr",
          "type": "address"
        },
        {
          "indexed": true,
          "internalType": "address",
          "name": "referrerAddr",
          "type": "address"
        }
      ],
      "name": "Claim",
      "type": "event"
    },
    {
      "anonymous": false,
      "inputs": [
        {
          "indexed": false,
          "internalType": "uint256",
          "name": "data0",
          "type": "uint256"
        },
        {
          "indexed": false,
          "internalType": "uint256",
          "name": "data1",
          "type": "uint256"
        },
        {
          "indexed": false,
          "internalType": "uint256",
          "name": "data2",
          "type": "uint256"
        },
        {
          "indexed": true,
          "internalType": "address",
          "name": "senderAddr",
          "type": "address"
        }
      ],
      "name": "ClaimAssist",
      "type": "event"
    },
    {
      "anonymous": false,
      "inputs": [
        {
          "indexed": false,
          "internalType": "uint256",
          "name": "data0",
          "type": "uint256"
        },
        {
          "indexed": true,
          "internalType": "address",
          "name": "updaterAddr",
          "type": "address"
        }
      ],
      "name": "DailyDataUpdate",
      "type": "event"
    },
    {
      "anonymous": false,
      "inputs": [
        {
          "indexed": false,
          "internalType": "uint256",
          "name": "data0",
          "type": "uint256"
        },
        {
          "indexed": true,
          "internalType": "uint40",
          "name": "stakeId",
          "type": "uint40"
        }
      ],
      "name": "ShareRateChange",
      "type": "event"
    },
    {
      "anonymous": false,
      "inputs": [
        {
          "indexed": false,
          "internalType": "uint256",
          "name": "data0",
          "type": "uint256"
        },
        {
          "indexed": false,
          "internalType": "uint256",
          "name": "data1",
          "type": "uint256"
        },
        {
          "indexed": true,
          "internalType": "address",
          "name": "stakerAddr",
          "type": "address"
        },
        {
          "indexed": true,
          "internalType": "uint40",
          "name": "stakeId",
          "type": "uint40"
        }
      ],
      "name": "StakeEnd",
      "type": "event"
    },
    {
      "anonymous": false,
      "inputs": [
        {
          "indexed": false,
          "internalType": "uint256",
          "name": "data0",
          "type": "uint256"
        },
        {
          "indexed": false,
          "internalType": "uint256",
          "name": "data1",
          "type": "uint256"
        },
        {
          "indexed": true,
          "internalType": "address",
          "name": "stakerAddr",
          "type": "address"
        },
        {
          "indexed": true,
          "internalType": "uint40",
          "name": "stakeId",
          "type": "uint40"
        },
        {
          "indexed": true,
          "internalType": "address",
          "name": "senderAddr",
          "type": "address"
        }
      ],
      "name": "StakeGoodAccounting",
      "type": "event"
    },
    {
      "anonymous": false,
      "inputs": [
        {
          "indexed": false,
          "internalType": "uint256",
          "name": "data0",
          "type": "uint256"
        },
        {
          "indexed": true,
          "internalType": "address",
          "name": "stakerAddr",
          "type": "address"
        },
        {
          "indexed": true,
          "internalType": "uint40",
          "name": "stakeId",
          "type": "uint40"
        }
      ],
      "name": "StakeStart",
      "type": "event"
    },
    {
      "anonymous": false,
      "inputs": [
        {
          "indexed": true,
          "internalType": "address",
          "name": "from",
          "type": "address"
        },
        {
          "indexed": true,
          "internalType": "address",
          "name": "to",
          "type": "address"
        },
        {
          "indexed": false,
          "internalType": "uint256",
          "name": "value",
          "type": "uint256"
        }
      ],
      "name": "Transfer",
      "type": "event"
    },
    {
      "anonymous": false,
      "inputs": [
        {
          "indexed": false,
          "internalType": "uint256",
          "name": "data0",
          "type": "uint256"
        },
        {
          "indexed": true,
          "internalType": "address",
          "name": "memberAddr",
          "type": "address"
        },
        {
          "indexed": true,
          "internalType": "uint256",
          "name": "entryId",
          "type": "uint256"
        },
        {
          "indexed": true,
          "internalType": "address",
          "name": "referrerAddr",
          "type": "address"
        }
      ],
      "name": "XfLobbyEnter",
      "type": "event"
    },
    {
      "anonymous": false,
      "inputs": [
        {
          "indexed": false,
          "internalType": "uint256",
          "name": "data0",
          "type": "uint256"
        },
        {
          "indexed": true,
          "internalType": "address",
          "name": "memberAddr",
          "type": "address"
        },
        {
          "indexed": true,
          "internalType": "uint256",
          "name": "entryId",
          "type": "uint256"
        },
        {
          "indexed": true,
          "internalType": "address",
          "name": "referrerAddr",
          "type": "address"
        }
      ],
      "name": "XfLobbyExit",
      "type": "event"
    },
    {
      "constant": true,
      "inputs": [],
      "name": "allocatedSupply",
      "outputs": [
        {
          "internalType": "uint256",
          "name": "",
          "type": "uint256"
        }
      ],
      "payable": false,
      "stateMutability": "view",
      "type": "function"
    },
    {
      "constant": true,
      "inputs": [
        {
          "internalType": "address",
          "name": "owner",
          "type": "address"
        },
        {
          "internalType": "address",
          "name": "spender",
          "type": "address"
        }
      ],
      "name": "allowance",
      "outputs": [
        {
          "internalType": "uint256",
          "name": "",
          "type": "uint256"
        }
      ],
      "payable": false,
      "stateMutability": "view",
      "type": "function"
    },
    {
      "constant": false,
      "inputs": [
        {
          "internalType": "address",
          "name": "spender",
          "type": "address"
        },
        {
          "internalType": "uint256",
          "name": "amount",
          "type": "uint256"
        }
      ],
      "name": "approve",
      "outputs": [
        {
          "internalType": "bool",
          "name": "",
          "type": "bool"
        }
      ],
      "payable": false,
      "stateMutability": "nonpayable",
      "type": "function"
    },
    {
      "constant": true,
      "inputs": [
        {
          "internalType": "address",
          "name": "account",
          "type": "address"
        }
      ],
      "name": "balanceOf",
      "outputs": [
        {
          "internalType": "uint256",
          "name": "",
          "type": "uint256"
        }
      ],
      "payable": false,
      "stateMutability": "view",
      "type": "function"
    },
    {
      "constant": false,
      "inputs": [
        {
          "internalType": "uint256",
          "name": "rawSatoshis",
          "type": "uint256"
        },
        {
          "internalType": "bytes32[]",
          "name": "proof",
          "type": "bytes32[]"
        },
        {
          "internalType": "address",
          "name": "claimToAddr",
          "type": "address"
        },
        {
          "internalType": "bytes32",
          "name": "pubKeyX",
          "type": "bytes32"
        },
        {
          "internalType": "bytes32",
          "name": "pubKeyY",
          "type": "bytes32"
        },
        {
          "internalType": "uint8",
          "name": "claimFlags",
          "type": "uint8"
        },
        {
          "internalType": "uint8",
          "name": "v",
          "type": "uint8"
        },
        {
          "internalType": "bytes32",
          "name": "r",
          "type": "bytes32"
        },
        {
          "internalType": "bytes32",
          "name": "s",
          "type": "bytes32"
        },
        {
          "internalType": "uint256",
          "name": "autoStakeDays",
          "type": "uint256"
        },
        {
          "internalType": "address",
          "name": "referrerAddr",
          "type": "address"
        }
      ],
      "name": "btcAddressClaim",
      "outputs": [
        {
          "internalType": "uint256",
          "name": "",
          "type": "uint256"
        }
      ],
      "payable": false,
      "stateMutability": "nonpayable",
      "type": "function"
    },
    {
      "constant": true,
      "inputs": [
        {
          "internalType": "bytes20",
          "name": "",
          "type": "bytes20"
        }
      ],
      "name": "btcAddressClaims",
      "outputs": [
        {
          "internalType": "bool",
          "name": "",
          "type": "bool"
        }
      ],
      "payable": false,
      "stateMutability": "view",
      "type": "function"
    },
    {
      "constant": true,
      "inputs": [
        {
          "internalType": "bytes20",
          "name": "btcAddr",
          "type": "bytes20"
        },
        {
          "internalType": "uint256",
          "name": "rawSatoshis",
          "type": "uint256"
        },
        {
          "internalType": "bytes32[]",
          "name": "proof",
          "type": "bytes32[]"
        }
      ],
      "name": "btcAddressIsClaimable",
      "outputs": [
        {
          "internalType": "bool",
          "name": "",
          "type": "bool"
        }
      ],
      "payable": false,
      "stateMutability": "view",
      "type": "function"
    },
    {
      "constant": true,
      "inputs": [
        {
          "internalType": "bytes20",
          "name": "btcAddr",
          "type": "bytes20"
        },
        {
          "internalType": "uint256",
          "name": "rawSatoshis",
          "type": "uint256"
        },
        {
          "internalType": "bytes32[]",
          "name": "proof",
          "type": "bytes32[]"
        }
      ],
      "name": "btcAddressIsValid",
      "outputs": [
        {
          "internalType": "bool",
          "name": "",
          "type": "bool"
        }
      ],
      "payable": false,
      "stateMutability": "pure",
      "type": "function"
    },
    {
      "constant": true,
      "inputs": [
        {
          "internalType": "address",
          "name": "claimToAddr",
          "type": "address"
        },
        {
          "internalType": "bytes32",
          "name": "claimParamHash",
          "type": "bytes32"
        },
        {
          "internalType": "bytes32",
          "name": "pubKeyX",
          "type": "bytes32"
        },
        {
          "internalType": "bytes32",
          "name": "pubKeyY",
          "type": "bytes32"
        },
        {
          "internalType": "uint8",
          "name": "claimFlags",
          "type": "uint8"
        },
        {
          "internalType": "uint8",
          "name": "v",
          "type": "uint8"
        },
        {
          "internalType": "bytes32",
          "name": "r",
          "type": "bytes32"
        },
        {
          "internalType": "bytes32",
          "name": "s",
          "type": "bytes32"
        }
      ],
      "name": "claimMessageMatchesSignature",
      "outputs": [
        {
          "internalType": "bool",
          "name": "",
          "type": "bool"
        }
      ],
      "payable": false,
      "stateMutability": "pure",
      "type": "function"
    },
    {
      "constant": true,
      "inputs": [],
      "name": "currentDay",
      "outputs": [
        {
          "internalType": "uint256",
          "name": "",
          "type": "uint256"
        }
      ],
      "payable": false,
      "stateMutability": "view",
      "type": "function"
    },
    {
      "constant": true,
      "inputs": [
        {
          "internalType": "uint256",
          "name": "",
          "type": "uint256"
        }
      ],
      "name": "dailyData",
      "outputs": [
        {
          "internalType": "uint72",
          "name": "dayPayoutTotal",
          "type": "uint72"
        },
        {
          "internalType": "uint72",
          "name": "dayStakeSharesTotal",
          "type": "uint72"
        },
        {
          "internalType": "uint56",
          "name": "dayUnclaimedSatoshisTotal",
          "type": "uint56"
        }
      ],
      "payable": false,
      "stateMutability": "view",
      "type": "function"
    },
    {
      "constant": true,
      "inputs": [
        {
          "internalType": "uint256",
          "name": "beginDay",
          "type": "uint256"
        },
        {
          "internalType": "uint256",
          "name": "endDay",
          "type": "uint256"
        }
      ],
      "name": "dailyDataRange",
      "outputs": [
        {
          "internalType": "uint256[]",
          "name": "list",
          "type": "uint256[]"
        }
      ],
      "payable": false,
      "stateMutability": "view",
      "type": "function"
    },
    {
      "constant": false,
      "inputs": [
        {
          "internalType": "uint256",
          "name": "beforeDay",
          "type": "uint256"
        }
      ],
      "name": "dailyDataUpdate",
      "outputs": [],
      "payable": false,
      "stateMutability": "nonpayable",
      "type": "function"
    },
    {
      "constant": true,
      "inputs": [],
      "name": "decimals",
      "outputs": [
        {
          "internalType": "uint8",
          "name": "",
          "type": "uint8"
        }
      ],
      "payable": false,
      "stateMutability": "view",
      "type": "function"
    },
    {
      "constant": false,
      "inputs": [
        {
          "internalType": "address",
          "name": "spender",
          "type": "address"
        },
        {
          "internalType": "uint256",
          "name": "subtractedValue",
          "type": "uint256"
        }
      ],
      "name": "decreaseAllowance",
      "outputs": [
        {
          "internalType": "bool",
          "name": "",
          "type": "bool"
        }
      ],
      "payable": false,
      "stateMutability": "nonpayable",
      "type": "function"
    },
    {
      "constant": true,
      "inputs": [],
      "name": "globalInfo",
      "outputs": [
        {
          "internalType": "uint256[13]",
          "name": "",
          "type": "uint256[13]"
        }
      ],
      "payable": false,
      "stateMutability": "view",
      "type": "function"
    },
    {
      "constant": true,
      "inputs": [],
      "name": "globals",
      "outputs": [
        {
          "internalType": "uint72",
          "name": "lockedHeartsTotal",
          "type": "uint72"
        },
        {
          "internalType": "uint72",
          "name": "nextStakeSharesTotal",
          "type": "uint72"
        },
        {
          "internalType": "uint40",
          "name": "shareRate",
          "type": "uint40"
        },
        {
          "internalType": "uint72",
          "name": "stakePenaltyTotal",
          "type": "uint72"
        },
        {
          "internalType": "uint16",
          "name": "dailyDataCount",
          "type": "uint16"
        },
        {
          "internalType": "uint72",
          "name": "stakeSharesTotal",
          "type": "uint72"
        },
        {
          "internalType": "uint40",
          "name": "latestStakeId",
          "type": "uint40"
        },
        {
          "internalType": "uint128",
          "name": "claimStats",
          "type": "uint128"
        }
      ],
      "payable": false,
      "stateMutability": "view",
      "type": "function"
    },
    {
      "constant": false,
      "inputs": [
        {
          "internalType": "address",
          "name": "spender",
          "type": "address"
        },
        {
          "internalType": "uint256",
          "name": "addedValue",
          "type": "uint256"
        }
      ],
      "name": "increaseAllowance",
      "outputs": [
        {
          "internalType": "bool",
          "name": "",
          "type": "bool"
        }
      ],
      "payable": false,
      "stateMutability": "nonpayable",
      "type": "function"
    },
    {
      "constant": true,
      "inputs": [
        {
          "internalType": "bytes32",
          "name": "merkleLeaf",
          "type": "bytes32"
        },
        {
          "internalType": "bytes32[]",
          "name": "proof",
          "type": "bytes32[]"
        }
      ],
      "name": "merkleProofIsValid",
      "outputs": [
        {
          "internalType": "bool",
          "name": "",
          "type": "bool"
        }
      ],
      "payable": false,
      "stateMutability": "pure",
      "type": "function"
    },
    {
      "constant": true,
      "inputs": [],
      "name": "name",
      "outputs": [
        {
          "internalType": "string",
          "name": "",
          "type": "string"
        }
      ],
      "payable": false,
      "stateMutability": "view",
      "type": "function"
    },
    {
      "constant": true,
      "inputs": [
        {
          "internalType": "bytes32",
          "name": "pubKeyX",
          "type": "bytes32"
        },
        {
          "internalType": "bytes32",
          "name": "pubKeyY",
          "type": "bytes32"
        },
        {
          "internalType": "uint8",
          "name": "claimFlags",
          "type": "uint8"
        }
      ],
      "name": "pubKeyToBtcAddress",
      "outputs": [
        {
          "internalType": "bytes20",
          "name": "",
          "type": "bytes20"
        }
      ],
      "payable": false,
      "stateMutability": "pure",
      "type": "function"
    },
    {
      "constant": true,
      "inputs": [
        {
          "internalType": "bytes32",
          "name": "pubKeyX",
          "type": "bytes32"
        },
        {
          "internalType": "bytes32",
          "name": "pubKeyY",
          "type": "bytes32"
        }
      ],
      "name": "pubKeyToEthAddress",
      "outputs": [
        {
          "internalType": "address",
          "name": "",
          "type": "address"
        }
      ],
      "payable": false,
      "stateMutability": "pure",
      "type": "function"
    },
    {
      "constant": true,
      "inputs": [
        {
          "internalType": "address",
          "name": "stakerAddr",
          "type": "address"
        }
      ],
      "name": "stakeCount",
      "outputs": [
        {
          "internalType": "uint256",
          "name": "",
          "type": "uint256"
        }
      ],
      "payable": false,
      "stateMutability": "view",
      "type": "function"
    },
    {
      "constant": false,
      "inputs": [
        {
          "internalType": "uint256",
          "name": "stakeIndex",
          "type": "uint256"
        },
        {
          "internalType": "uint40",
          "name": "stakeIdParam",
          "type": "uint40"
        }
      ],
      "name": "stakeEnd",
      "outputs": [],
      "payable": false,
      "stateMutability": "nonpayable",
      "type": "function"
    },
    {
      "constant": false,
      "inputs": [
        {
          "internalType": "address",
          "name": "stakerAddr",
          "type": "address"
        },
        {
          "internalType": "uint256",
          "name": "stakeIndex",
          "type": "uint256"
        },
        {
          "internalType": "uint40",
          "name": "stakeIdParam",
          "type": "uint40"
        }
      ],
      "name": "stakeGoodAccounting",
      "outputs": [],
      "payable": false,
      "stateMutability": "nonpayable",
      "type": "function"
    },
    {
      "constant": true,
      "inputs": [
        {
          "internalType": "address",
          "name": "",
          "type": "address"
        },
        {
          "internalType": "uint256",
          "name": "",
          "type": "uint256"
        }
      ],
      "name": "stakeLists",
      "outputs": [
        {
          "internalType": "uint40",
          "name": "stakeId",
          "type": "uint40"
        },
        {
          "internalType": "uint72",
          "name": "stakedHearts",
          "type": "uint72"
        },
        {
          "internalType": "uint72",
          "name": "stakeShares",
          "type": "uint72"
        },
        {
          "internalType": "uint16",
          "name": "lockedDay",
          "type": "uint16"
        },
        {
          "internalType": "uint16",
          "name": "stakedDays",
          "type": "uint16"
        },
        {
          "internalType": "uint16",
          "name": "unlockedDay",
          "type": "uint16"
        },
        {
          "internalType": "bool",
          "name": "isAutoStake",
          "type": "bool"
        }
      ],
      "payable": false,
      "stateMutability": "view",
      "type": "function"
    },
    {
      "constant": false,
      "inputs": [
        {
          "internalType": "uint256",
          "name": "newStakedHearts",
          "type": "uint256"
        },
        {
          "internalType": "uint256",
          "name": "newStakedDays",
          "type": "uint256"
        }
      ],
      "name": "stakeStart",
      "outputs": [],
      "payable": false,
      "stateMutability": "nonpayable",
      "type": "function"
    },
    {
      "constant": true,
      "inputs": [],
      "name": "symbol",
      "outputs": [
        {
          "internalType": "string",
          "name": "",
          "type": "string"
        }
      ],
      "payable": false,
      "stateMutability": "view",
      "type": "function"
    },
    {
      "constant": true,
      "inputs": [],
      "name": "totalSupply",
      "outputs": [
        {
          "internalType": "uint256",
          "name": "",
          "type": "uint256"
        }
      ],
      "payable": false,
      "stateMutability": "view",
      "type": "function"
    },
    {
      "constant": false,
      "inputs": [
        {
          "internalType": "address",
          "name": "recipient",
          "type": "address"
        },
        {
          "internalType": "uint256",
          "name": "amount",
          "type": "uint256"
        }
      ],
      "name": "transfer",
      "outputs": [
        {
          "internalType": "bool",
          "name": "",
          "type": "bool"
        }
      ],
      "payable": false,
      "stateMutability": "nonpayable",
      "type": "function"
    },
    {
      "constant": false,
      "inputs": [
        {
          "internalType": "address",
          "name": "sender",
          "type": "address"
        },
        {
          "internalType": "address",
          "name": "recipient",
          "type": "address"
        },
        {
          "internalType": "uint256",
          "name": "amount",
          "type": "uint256"
        }
      ],
      "name": "transferFrom",
      "outputs": [
        {
          "internalType": "bool",
          "name": "",
          "type": "bool"
        }
      ],
      "payable": false,
      "stateMutability": "nonpayable",
      "type": "function"
    },
    {
      "constant": true,
      "inputs": [
        {
          "internalType": "uint256",
          "name": "",
          "type": "uint256"
        }
      ],
      "name": "xfLobby",
      "outputs": [
        {
          "internalType": "uint256",
          "name": "",
          "type": "uint256"
        }
      ],
      "payable": false,
      "stateMutability": "view",
      "type": "function"
    },
    {
      "constant": false,
      "inputs": [
        {
          "internalType": "address",
          "name": "referrerAddr",
          "type": "address"
        }
      ],
      "name": "xfLobbyEnter",
      "outputs": [],
      "payable": true,
      "stateMutability": "payable",
      "type": "function"
    },
    {
      "constant": true,
      "inputs": [
        {
          "internalType": "address",
          "name": "memberAddr",
          "type": "address"
        },
        {
          "internalType": "uint256",
          "name": "entryId",
          "type": "uint256"
        }
      ],
      "name": "xfLobbyEntry",
      "outputs": [
        {
          "internalType": "uint256",
          "name": "rawAmount",
          "type": "uint256"
        },
        {
          "internalType": "address",
          "name": "referrerAddr",
          "type": "address"
        }
      ],
      "payable": false,
      "stateMutability": "view",
      "type": "function"
    },
    {
      "constant": false,
      "inputs": [
        {
          "internalType": "uint256",
          "name": "enterDay",
          "type": "uint256"
        },
        {
          "internalType": "uint256",
          "name": "count",
          "type": "uint256"
        }
      ],
      "name": "xfLobbyExit",
      "outputs": [],
      "payable": false,
      "stateMutability": "nonpayable",
      "type": "function"
    },
    {
      "constant": false,
      "inputs": [],
      "name": "xfLobbyFlush",
      "outputs": [],
      "payable": false,
      "stateMutability": "nonpayable",
      "type": "function"
    },
    {
      "constant": true,
      "inputs": [
        {
          "internalType": "uint256",
          "name": "",
          "type": "uint256"
        },
        {
          "internalType": "address",
          "name": "",
          "type": "address"
        }
      ],
      "name": "xfLobbyMembers",
      "outputs": [
        {
          "internalType": "uint40",
          "name": "headIndex",
          "type": "uint40"
        },
        {
          "internalType": "uint40",
          "name": "tailIndex",
          "type": "uint40"
        }
      ],
      "payable": false,
      "stateMutability": "view",
      "type": "function"
    },
    {
      "constant": true,
      "inputs": [
        {
          "internalType": "address",
          "name": "memberAddr",
          "type": "address"
        }
      ],
      "name": "xfLobbyPendingDays",
      "outputs": [
        {
          "internalType": "uint256[2]",
          "name": "words",
          "type": "uint256[2]"
        }
      ],
      "payable": false,
      "stateMutability": "view",
      "type": "function"
    },
    {
      "constant": true,
      "inputs": [
        {
          "internalType": "uint256",
          "name": "beginDay",
          "type": "uint256"
        },
        {
          "internalType": "uint256",
          "name": "endDay",
          "type": "uint256"
        }
      ],
      "name": "xfLobbyRange",
      "outputs": [
        {
          "internalType": "uint256[]",
          "name": "list",
          "type": "uint256[]"
        }
      ],
      "payable": false,
      "stateMutability": "view",
      "type": "function"
    }
  ],
  "bytecode": "0x6080604052617b41806100136000396000f3fe6080604052600436106102305760003560e01c80636a210a0e1161012e578063a9059cbb116100ab578063d5a373ff1161006f578063d5a373ff1461123d578063dd62ed3e146112f3578063ec9a191714611378578063f04b5fa014611439578063f57a1b3c1461148c57610230565b8063a9059cbb14610fa3578063bd926ed314611016578063c3124525146110b8578063cbb151d3146111b4578063ce7d1f77146111f957610230565b80638f1c65c0116100f25780638f1c65c014610c9957806390de687114610cd457806395d89b4114610d6f57806396f62b9d14610dff578063a457c2d714610f3057610230565b80636a210a0e14610a2857806370a0823114610ac25780637c42662014610b2757806387a0f31c14610b895780638e21aa0114610bd857610230565b806333060d90116101bc57806344f0de751161018057806344f0de75146108a857806352a438b8146109355780635ac1f3571461097a5780635c9302c91461099157806365cf71b2146109bc57610230565b806333060d90146106c7578063343009a21461072c57806339509351146107785780633a70a5ca146107eb57806344203faf1461081657610230565b80632607443b116102035780632607443b146103f657806327aa6018146104e5578063283a5baf1461058d57806330c1a78514610611578063313ce5671461069657610230565b806306fdde0314610235578063095ea7b3146102c557806318160ddd1461033857806323b872dd14610363575b600080fd5b34801561024157600080fd5b5061024a611526565b6040518080602001828103825283818151815260200191508051906020019080838360005b8381101561028a57808201518184015260208101905061026f565b50505050905090810190601f1680156102b75780820380516001836020036101000a031916815260200191505b509250505060405180910390f35b3480156102d157600080fd5b5061031e600480360360408110156102e857600080fd5b81019080803573ffffffffffffffffffffffffffffffffffffffff1690602001909291908035906020019092919050505061155f565b604051808215151515815260200191505060405180910390f35b34801561034457600080fd5b5061034d61157d565b6040518082815260200191505060405180910390f35b34801561036f57600080fd5b506103dc6004803603606081101561038657600080fd5b81019080803573ffffffffffffffffffffffffffffffffffffffff169060200190929190803573ffffffffffffffffffffffffffffffffffffffff16906020019092919080359060200190929190505050611587565b604051808215151515815260200191505060405180910390f35b34801561040257600080fd5b5061044f6004803603604081101561041957600080fd5b81019080803573ffffffffffffffffffffffffffffffffffffffff16906020019092919080359060200190929190505050611660565b604051808864ffffffffff1664ffffffffff1681526020018768ffffffffffffffffff1668ffffffffffffffffff1681526020018668ffffffffffffffffff1668ffffffffffffffffff1681526020018561ffff1661ffff1681526020018461ffff1661ffff1681526020018361ffff1661ffff1681526020018215151515815260200197505050505050505060405180910390f35b3480156104f157600080fd5b506105736004803603604081101561050857600080fd5b81019080803590602001909291908035906020019064010000000081111561052f57600080fd5b82018360208201111561054157600080fd5b8035906020019184602083028401116401000000008311171561056357600080fd5b909192939192939050505061172a565b604051808215151515815260200191505060405180910390f35b34801561059957600080fd5b506105dd600480360360608110156105b057600080fd5b810190808035906020019092919080359060200190929190803560ff169060200190929190505050611780565b60405180826bffffffffffffffffffffffff19166bffffffffffffffffffffffff1916815260200191505060405180910390f35b34801561061d57600080fd5b506106546004803603604081101561063457600080fd5b810190808035906020019092919080359060200190929190505050611a15565b604051808273ffffffffffffffffffffffffffffffffffffffff1673ffffffffffffffffffffffffffffffffffffffff16815260200191505060405180910390f35b3480156106a257600080fd5b506106ab611a51565b604051808260ff1660ff16815260200191505060405180910390f35b3480156106d357600080fd5b50610716600480360360208110156106ea57600080fd5b81019080803573ffffffffffffffffffffffffffffffffffffffff169060200190929190505050611a56565b6040518082815260200191505060405180910390f35b34801561073857600080fd5b506107766004803603604081101561074f57600080fd5b8101908080359060200190929190803564ffffffffff169060200190929190505050611aa2565b005b34801561078457600080fd5b506107d16004803603604081101561079b57600080fd5b81019080803573ffffffffffffffffffffffffffffffffffffffff16906020019092919080359060200190929190505050611e5b565b604051808215151515815260200191505060405180910390f35b3480156107f757600080fd5b50610800611f0e565b6040518082815260200191505060405180910390f35b34801561082257600080fd5b5061086f6004803603604081101561083957600080fd5b8101908080359060200190929190803573ffffffffffffffffffffffffffffffffffffffff169060200190929190505050611f44565b604051808364ffffffffff1664ffffffffff1681526020018264ffffffffff1664ffffffffff1681526020019250505060405180910390f35b3480156108b457600080fd5b506108f7600480360360208110156108cb57600080fd5b81019080803573ffffffffffffffffffffffffffffffffffffffff169060200190929190505050611f97565b6040518082600260200280838360005b83811015610922578082015181840152602081019050610907565b5050505090500191505060405180910390f35b34801561094157600080fd5b506109786004803603604081101561095857600080fd5b8101908080359060200190929190803590602001909291905050506120ec565b005b34801561098657600080fd5b5061098f612190565b005b34801561099d57600080fd5b506109a6612292565b6040518082815260200191505060405180910390f35b3480156109c857600080fd5b50610a26600480360360608110156109df57600080fd5b81019080803573ffffffffffffffffffffffffffffffffffffffff16906020019092919080359060200190929190803564ffffffffff1690602001909291905050506122a1565b005b348015610a3457600080fd5b50610a6b60048036036040811015610a4b57600080fd5b81019080803590602001909291908035906020019092919050505061260c565b6040518080602001828103825283818151815260200191508051906020019060200280838360005b83811015610aae578082015181840152602081019050610a93565b505050509050019250505060405180910390f35b348015610ace57600080fd5b50610b1160048036036020811015610ae557600080fd5b81019080803573ffffffffffffffffffffffffffffffffffffffff1690602001909291905050506127d5565b6040518082815260200191505060405180910390f35b348015610b3357600080fd5b50610b6f60048036036020811015610b4a57600080fd5b8101908080356bffffffffffffffffffffffff1916906020019092919050505061281d565b604051808215151515815260200191505060405180910390f35b348015610b9557600080fd5b50610bc260048036036020811015610bac57600080fd5b810190808035906020019092919050505061283d565b6040518082815260200191505060405180910390f35b348015610be457600080fd5b50610c7f60048036036060811015610bfb57600080fd5b8101908080356bffffffffffffffffffffffff191690602001909291908035906020019092919080359060200190640100000000811115610c3b57600080fd5b820183602082011115610c4d57600080fd5b80359060200191846020830284011164010000000083111715610c6f57600080fd5b9091929391929390505050612855565b604051808215151515815260200191505060405180910390f35b348015610ca557600080fd5b50610cd260048036036020811015610cbc57600080fd5b81019080803590602001909291905050506129de565b005b348015610ce057600080fd5b50610d0d60048036036020811015610cf757600080fd5b8101908080359060200190929190505050612b0b565b604051808468ffffffffffffffffff1668ffffffffffffffffff1681526020018368ffffffffffffffffff1668ffffffffffffffffff1681526020018266ffffffffffffff1666ffffffffffffff168152602001935050505060405180910390f35b348015610d7b57600080fd5b50610d84612b72565b6040518080602001828103825283818151815260200191508051906020019080838360005b83811015610dc4578082015181840152602081019050610da9565b50505050905090810190601f168015610df15780820380516001836020036101000a031916815260200191505b509250505060405180910390f35b348015610e0b57600080fd5b50610f1a6004803603610160811015610e2357600080fd5b810190808035906020019092919080359060200190640100000000811115610e4a57600080fd5b820183602082011115610e5c57600080fd5b80359060200191846020830284011164010000000083111715610e7e57600080fd5b9091929391929390803573ffffffffffffffffffffffffffffffffffffffff1690602001909291908035906020019092919080359060200190929190803560ff169060200190929190803560ff169060200190929190803590602001909291908035906020019092919080359060200190929190803573ffffffffffffffffffffffffffffffffffffffff169060200190929190505050612bab565b6040518082815260200191505060405180910390f35b348015610f3c57600080fd5b50610f8960048036036040811015610f5357600080fd5b81019080803573ffffffffffffffffffffffffffffffffffffffff16906020019092919080359060200190929190505050612f7e565b604051808215151515815260200191505060405180910390f35b348015610faf57600080fd5b50610ffc60048036036040811015610fc657600080fd5b81019080803573ffffffffffffffffffffffffffffffffffffffff1690602001909291908035906020019092919050505061304b565b604051808215151515815260200191505060405180910390f35b34801561102257600080fd5b5061106f6004803603604081101561103957600080fd5b81019080803573ffffffffffffffffffffffffffffffffffffffff16906020019092919080359060200190929190505050613069565b604051808381526020018273ffffffffffffffffffffffffffffffffffffffff1673ffffffffffffffffffffffffffffffffffffffff1681526020019250505060405180910390f35b3480156110c457600080fd5b506110cd6131ee565b604051808968ffffffffffffffffff1668ffffffffffffffffff1681526020018868ffffffffffffffffff1668ffffffffffffffffff1681526020018764ffffffffff1664ffffffffff1681526020018668ffffffffffffffffff1668ffffffffffffffffff1681526020018561ffff1661ffff1681526020018468ffffffffffffffffff1668ffffffffffffffffff1681526020018364ffffffffff1664ffffffffff168152602001826fffffffffffffffffffffffffffffffff166fffffffffffffffffffffffffffffffff1681526020019850505050505050505060405180910390f35b3480156111c057600080fd5b506111f7600480360360408110156111d757600080fd5b8101908080359060200190929190803590602001909291905050506132c4565b005b61123b6004803603602081101561120f57600080fd5b81019080803573ffffffffffffffffffffffffffffffffffffffff169060200190929190505050613762565b005b34801561124957600080fd5b506112d9600480360361010081101561126157600080fd5b81019080803573ffffffffffffffffffffffffffffffffffffffff169060200190929190803590602001909291908035906020019092919080359060200190929190803560ff169060200190929190803560ff1690602001909291908035906020019092919080359060200190929190505050613a07565b604051808215151515815260200191505060405180910390f35b3480156112ff57600080fd5b506113626004803603604081101561131657600080fd5b81019080803573ffffffffffffffffffffffffffffffffffffffff169060200190929190803573ffffffffffffffffffffffffffffffffffffffff169060200190929190505050613b5d565b6040518082815260200191505060405180910390f35b34801561138457600080fd5b5061141f6004803603606081101561139b57600080fd5b8101908080356bffffffffffffffffffffffff1916906020019092919080359060200190929190803590602001906401000000008111156113db57600080fd5b8201836020820111156113ed57600080fd5b8035906020019184602083028401116401000000008311171561140f57600080fd5b9091929391929390505050613be4565b604051808215151515815260200191505060405180910390f35b34801561144557600080fd5b5061144e613c3c565b6040518082600d60200280838360005b8381101561147957808201518184015260208101905061145e565b5050505090500191505060405180910390f35b34801561149857600080fd5b506114cf600480360360408110156114af57600080fd5b810190808035906020019092919080359060200190929190505050613de5565b6040518080602001828103825283818151815260200191508051906020019060200280838360005b838110156115125780820151818401526020810190506114f7565b505050509050019250505060405180910390f35b6040518060400160405280600381526020017f484558000000000000000000000000000000000000000000000000000000000081525081565b600061157361156c613f0b565b8484613f13565b6001905092915050565b6000600254905090565b600061159484848461410a565b611655846115a0613f0b565b611650856040518060600160405280602881526020016179e660289139600160008b73ffffffffffffffffffffffffffffffffffffffff1673ffffffffffffffffffffffffffffffffffffffff1681526020019081526020016000206000611606613f0b565b73ffffffffffffffffffffffffffffffffffffffff1673ffffffffffffffffffffffffffffffffffffffff168152602001908152602001600020546143c09092919063ffffffff16565b613f13565b600190509392505050565b6007602052816000526040600020818154811061167957fe5b90600052602060002001600091509150508060000160009054906101000a900464ffffffffff16908060000160059054906101000a900468ffffffffffffffffff169080600001600e9054906101000a900468ffffffffffffffffff16908060000160179054906101000a900461ffff16908060000160199054906101000a900461ffff169080600001601b9054906101000a900461ffff169080600001601d9054906101000a900460ff16905087565b600061177784848480806020026020016040519081016040528093929190818152602001838360200280828437600081840152601f19601f82011690508083019250505050505050614480565b90509392505050565b60008060606000806002861660ff16141590506000806004871660ff16141590506000806008881660ff161415905082156118b9578180156117bf5750805b15611832576040517f08c379a00000000000000000000000000000000000000000000000000000000081526004018080602001828103825260178152602001807f4845583a20636c61696d466c61677320696e76616c696400000000000000000081525060200191505060405180910390fd5b600060f81b600160f81b89601f6020811061184957fe5b1a60f81b167effffffffffffffffffffffffffffffffffffffffffffffffffffffffffffff19161461187c57600361187f565b60025b94508489604051602001808360ff1660ff1660f81b8152600101828152602001925050506040516020818303038152906040529350611977565b811580156118c5575080155b611937576040517f08c379a00000000000000000000000000000000000000000000000000000000081526004018080602001828103825260178152602001807f4845583a20636c61696d466c61677320696e76616c696400000000000000000081525060200191505060405180910390fd5b60049450848989604051602001808460ff1660ff1660f81b8152600101838152602001828152602001935050505060405160208183030381529060405293505b6000611982856144b8565b90508215611a04576119f78160405160200180807e14000000000000000000000000000000000000000000000000000000000000815250600201826bffffffffffffffffffffffff19166bffffffffffffffffffffffff191681526014019150506040516020818303038152906040526144b8565b9650505050505050611a0e565b8096505050505050505b9392505050565b6000828260405160200180838152602001828152602001925050506040516020818303038152906040528051906020012060001c905092915050565b600881565b6000600760008373ffffffffffffffffffffffffffffffffffffffff1673ffffffffffffffffffffffffffffffffffffffff168152602001908152602001600020805490509050919050565b611aaa61777f565b611ab261777f565b611abc82826145ff565b6000600760003373ffffffffffffffffffffffffffffffffffffffff1673ffffffffffffffffffffffffffffffffffffffff1681526020019081526020016000209050600081805490501415611b7a576040517f08c379a00000000000000000000000000000000000000000000000000000000081526004018080602001828103825260158152602001807f4845583a20456d707479207374616b65206c697374000000000000000000000081525060200191505060405180910390fd5b80805490508510611bf3576040517f08c379a00000000000000000000000000000000000000000000000000000000081526004018080602001828103825260178152602001807f4845583a207374616b65496e64657820696e76616c696400000000000000000081525060200191505060405180910390fd5b611bfb6177e0565b611c1b828781548110611c0a57fe5b90600052602060002001868361479a565b611c2484614943565b60008090506000808360a0015114159050600080600090506000809050600080905086606001518a610140015110611d3d578415611c685786608001519550611d1d565b611c728a88614957565b86606001518a61014001510395508660800151861115611c985786608001519550611d1c565b61015e861015611d1b578660c0015115611d1a576040517f08c379a000000000000000000000000000000000000000000000000000000000815260040180806020018281038252601c8152602001807f4845583a204175746f2d7374616b65207374696c6c206c6f636b65640000000081525060200191505060405180910390fd5b5b5b5b611d288a888861497e565b80945081955082965083975050505050611dd1565b8660c0015115611db5576040517f08c379a000000000000000000000000000000000000000000000000000000000815260040180806020018281038252601c8152602001807f4845583a204175746f2d7374616b65207374696c6c206c6f636b65640000000081525060200191505060405180910390fd5b86604001518a6020018181510391508181525050866020015193505b611de88b8860200151896040015186868b8b614a3a565b60008114158015611df7575084155b15611e0757611e068a82614b19565b5b60008414611e2557611e193385614b69565b611e248a8886614d24565b5b86602001518a6000018181510391508181525050611e43888d614da4565b611e4d8a8a615034565b505050505050505050505050565b6000611f04611e68613f0b565b84611eff8560016000611e79613f0b565b73ffffffffffffffffffffffffffffffffffffffff1673ffffffffffffffffffffffffffffffffffffffff16815260200190815260200160002060008973ffffffffffffffffffffffffffffffffffffffff1673ffffffffffffffffffffffffffffffffffffffff1681526020019081526020016000205461529a90919063ffffffff16565b613f13565b6001905092915050565b6000600360000160009054906101000a900468ffffffffffffffffff1668ffffffffffffffffff16611f3e61157d565b01905090565b6009602052816000526040600020602052806000526040600020600091509150508060000160009054906101000a900464ffffffffff16908060000160059054906101000a900464ffffffffff16905082565b611f9f617826565b60006001611fab615322565b0190506007603202600101811115611fc857600760320260010190505b5b60008180600190039250146120e3576009600082815260200190815260200160002060008473ffffffffffffffffffffffffffffffffffffffff1673ffffffffffffffffffffffffffffffffffffffff16815260200190815260200160002060000160009054906101000a900464ffffffffff1664ffffffffff166009600083815260200190815260200160002060008573ffffffffffffffffffffffffffffffffffffffff1673ffffffffffffffffffffffffffffffffffffffff16815260200190815260200160002060000160059054906101000a900464ffffffffff1664ffffffffff1611156120de5760ff81166001901b82600883901c600281106120ce57fe5b6020020181815117915081815250505b611fc9565b81915050919050565b6120f461777f565b6120fc61777f565b61210682826145ff565b6001831015612160576040517f08c379a0000000000000000000000000000000000000000000000000000000008152600401808060200182810382526025815260200180617ac36025913960400191505060405180910390fd5b61216982614943565b612176828585600061533c565b61218033856154e0565b61218a8282615034565b50505050565b60003073ffffffffffffffffffffffffffffffffffffffff1631141561221e576040517f08c379a000000000000000000000000000000000000000000000000000000000815260040180806020018281038252600d8152602001807f4845583a204e6f2076616c75650000000000000000000000000000000000000081525060200191505060405180910390fd5b73dec9f2793e3c17cd26eefb21c4762fa5128e039973ffffffffffffffffffffffffffffffffffffffff166108fc3073ffffffffffffffffffffffffffffffffffffffff16319081150290604051600060405180830381858888f1935050505015801561228f573d6000803e3d6000fd5b50565b600061229c615322565b905090565b6122a961777f565b6122b161777f565b6122bb82826145ff565b6000600760008773ffffffffffffffffffffffffffffffffffffffff1673ffffffffffffffffffffffffffffffffffffffff168152602001908152602001600020805490501415612374576040517f08c379a00000000000000000000000000000000000000000000000000000000081526004018080602001828103825260158152602001807f4845583a20456d707479207374616b65206c697374000000000000000000000081525060200191505060405180910390fd5b600760008673ffffffffffffffffffffffffffffffffffffffff1673ffffffffffffffffffffffffffffffffffffffff16815260200190815260200160002080549050841061242b576040517f08c379a00000000000000000000000000000000000000000000000000000000081526004018080602001828103825260178152602001807f4845583a207374616b65496e64657820696e76616c696400000000000000000081525060200191505060405180910390fd5b6000600760008773ffffffffffffffffffffffffffffffffffffffff1673ffffffffffffffffffffffffffffffffffffffff168152602001908152602001600020858154811061247757fe5b90600052602060002001905061248b6177e0565b61249682868361479a565b8060800151816060015101846101400151101561251b576040517f08c379a000000000000000000000000000000000000000000000000000000000815260040180806020018281038252601b8152602001807f4845583a205374616b65206e6f742066756c6c7920736572766564000000000081525060200191505060405180910390fd5b60008160a0015114612595576040517f08c379a000000000000000000000000000000000000000000000000000000000815260040180806020018281038252601b8152602001807f4845583a205374616b6520616c726561647920756e6c6f636b6564000000000081525060200191505060405180910390fd5b61259e84614943565b6125a88482614957565b60008060006125bc8785866080015161497e565b935093509350506125d98a89866020015187604001518787615698565b600081146125ec576125eb8782614b19565b5b6125f6858561575a565b6126008787615034565b50505050505050505050565b606081831080156126345750600360010160009054906101000a900461ffff1661ffff168211155b6126a6576040517f08c379a00000000000000000000000000000000000000000000000000000000081526004018080602001828103825260128152602001807f4845583a2072616e676520696e76616c6964000000000000000000000000000081525060200191505060405180910390fd5b8282036040519080825280602002602001820160405280156126d75781602001602082028038833980820191505090505b5090506000839050600080905060005b60026048026006600085815260200190815260200160002060000160129054906101000a900466ffffffffffffff1666ffffffffffffff16901b905060486006600085815260200190815260200160002060000160099054906101000a900468ffffffffffffffffff1668ffffffffffffffffff16901b811790506006600084815260200190815260200160002060000160009054906101000a900468ffffffffffffffffff1668ffffffffffffffffff1681179050808483806001019450815181106127b057fe5b6020026020010181815250508483600101935083106126e75783935050505092915050565b60008060008373ffffffffffffffffffffffffffffffffffffffff1673ffffffffffffffffffffffffffffffffffffffff168152602001908152602001600020549050919050565b60056020528060005260406000206000915054906101000a900460ff1681565b60086020528060005260406000206000915090505481565b600080612860615322565b905060018110156128bc576040517f08c379a000000000000000000000000000000000000000000000000000000000815260040180806020018281038252602481526020018061791a6024913960400191505060405180910390fd5b60076032026001018110612938576040517f08c379a000000000000000000000000000000000000000000000000000000000815260040180806020018281038252601a8152602001807f4845583a20436c61696d2070686173652068617320656e64656400000000000081525060200191505060405180910390fd5b60056000876bffffffffffffffffffffffff19166bffffffffffffffffffffffff1916815260200190815260200160002060009054906101000a900460ff16156129865760009150506129d6565b6129d28686868680806020026020016040519081016040528093929190818152602001838360200280828437600081840152601f19601f82011690508083019250505050505050615872565b9150505b949350505050565b6129e661777f565b6129ee61777f565b6129f882826145ff565b600182610140015111612a73576040517f08c379a000000000000000000000000000000000000000000000000000000000815260040180806020018281038252600e8152602001807f4845583a20546f6f206561726c7900000000000000000000000000000000000081525060200191505060405180910390fd5b60008314612aea57816101400151831115612ad9576040517f08c379a00000000000000000000000000000000000000000000000000000000081526004018080602001828103825260268152602001806178b06026913960400191505060405180910390fd5b612ae5828460006159fa565b612afc565b612afb8283610140015160006159fa565b5b612b068282615034565b505050565b60066020528060005260406000206000915090508060000160009054906101000a900468ffffffffffffffffff16908060000160099054906101000a900468ffffffffffffffffff16908060000160129054906101000a900466ffffffffffffff16905083565b6040518060400160405280600381526020017f484558000000000000000000000000000000000000000000000000000000000081525081565b600065173cdf6f6e318d1115612c29576040517f08c379a00000000000000000000000000000000000000000000000000000000081526004018080602001828103825260158152602001807f4845583a2043484b3a207261775361746f73686973000000000000000000000081525060200191505060405180910390fd5b61015e831015612c84576040517f08c379a0000000000000000000000000000000000000000000000000000000008152600401808060200182810382526025815260200180617a556025913960400191505060405180910390fd5b60008060001b90503373ffffffffffffffffffffffffffffffffffffffff168b73ffffffffffffffffffffffffffffffffffffffff1614612d4b577f4e831acb4223b66de3b3d2e54a2edeefb0de3d7916e2886a4b134d9764d41bec60001b8484604051602001808481526020018381526020018273ffffffffffffffffffffffffffffffffffffffff1673ffffffffffffffffffffffffffffffffffffffff1660601b815260140193505050506040516020818303038152906040528051906020012090505b612d5b8b828c8c8c8c8c8c613a07565b612dcd576040517f08c379a00000000000000000000000000000000000000000000000000000000081526004018080602001828103825260178152602001807f4845583a205369676e6174757265206d69736d6174636800000000000000000081525060200191505060405180910390fd5b506000612ddb8a8a8a611780565b905060056000826bffffffffffffffffffffffff19166bffffffffffffffffffffffff1916815260200190815260200160002060009054906101000a900460ff1615612e72576040517f08c379a00000000000000000000000000000000000000000000000000000000081526004018080602001828103825260288152602001806179be6028913960400191505060405180910390fd5b612ebe818f8f8f80806020026020016040519081016040528093929190818152602001838360200280828437600081840152601f19601f82011690508083019250505050505050615872565b612f13576040517f08c379a000000000000000000000000000000000000000000000000000000000815260040180806020018281038252602381526020018061799b6023913960400191505060405180910390fd5b600160056000836bffffffffffffffffffffffff19166bffffffffffffffffffffffff1916815260200190815260200160002060006101000a81548160ff021916908315150217905550612f6b8e8c838b8888615ad8565b9150509c9b505050505050505050505050565b6000613041612f8b613f0b565b8461303c85604051806060016040528060258152602001617ae86025913960016000612fb5613f0b565b73ffffffffffffffffffffffffffffffffffffffff1673ffffffffffffffffffffffffffffffffffffffff16815260200190815260200160002060008a73ffffffffffffffffffffffffffffffffffffffff1673ffffffffffffffffffffffffffffffffffffffff168152602001908152602001600020546143c09092919063ffffffff16565b613f13565b6001905092915050565b600061305f613058613f0b565b848461410a565b6001905092915050565b6000806000602884901c90506000600160286001901b038516905060006009600084815260200190815260200160002060008873ffffffffffffffffffffffffffffffffffffffff1673ffffffffffffffffffffffffffffffffffffffff1681526020019081526020016000206001016000838152602001908152602001600020905060008160000160009054906101000a90046bffffffffffffffffffffffff166bffffffffffffffffffffffff16141561318d576040517f08c379a00000000000000000000000000000000000000000000000000000000081526004018080602001828103825260128152602001807f4845583a20506172616d20696e76616c6964000000000000000000000000000081525060200191505060405180910390fd5b8060000160009054906101000a90046bffffffffffffffffffffffff1681600001600c9054906101000a900473ffffffffffffffffffffffffffffffffffffffff16816bffffffffffffffffffffffff169150945094505050509250929050565b60038060000160009054906101000a900468ffffffffffffffffff16908060000160099054906101000a900468ffffffffffffffffff16908060000160129054906101000a900464ffffffffff16908060000160179054906101000a900468ffffffffffffffffff16908060010160009054906101000a900461ffff16908060010160029054906101000a900468ffffffffffffffffff169080600101600b9054906101000a900464ffffffffff16908060010160109054906101000a90046fffffffffffffffffffffffffffffffff16905088565b6132cc615322565b8210613340576040517f08c379a000000000000000000000000000000000000000000000000000000000815260040180806020018281038252601a8152602001807f4845583a20526f756e64206973206e6f7420636f6d706c65746500000000000081525060200191505060405180910390fd5b60006009600084815260200190815260200160002060003373ffffffffffffffffffffffffffffffffffffffff1673ffffffffffffffffffffffffffffffffffffffff168152602001908152602001600020905060008160000160009054906101000a900464ffffffffff1664ffffffffff169050600080841461345c57818360000160059054906101000a900464ffffffffff1664ffffffffff1603841115613452576040517f08c379a00000000000000000000000000000000000000000000000000000000081526004018080602001828103825260128152602001807f4845583a20636f756e7420696e76616c6964000000000000000000000000000081525060200191505060405180910390fd5b83820190506134f1565b8260000160059054906101000a900464ffffffffff1664ffffffffff1690508082106134f0576040517f08c379a00000000000000000000000000000000000000000000000000000000081526004018080602001828103825260128152602001807f4845583a20636f756e7420696e76616c6964000000000000000000000000000081525060200191505060405180910390fd5b5b60006134fc86615b1e565b9050600060086000888152602001908152602001600020549050600080905060008090505b600087600101600088815260200190815260200160002060000160009054906101000a90046bffffffffffffffffffffffff166bffffffffffffffffffffffff1690506000886001016000898152602001908152602001600020600001600c9054906101000a900473ffffffffffffffffffffffffffffffffffffffff169050886001016000898152602001908152602001600020600080820160006101000a8154906bffffffffffffffffffffffff021916905560008201600c6101000a81549073ffffffffffffffffffffffffffffffffffffffff021916905550506000858388028161360c57fe5b049050600073ffffffffffffffffffffffffffffffffffffffff168273ffffffffffffffffffffffffffffffffffffffff161415613655576136508c8a8385615bd7565b6136e3565b6000600a828161366157fe5b049050808201915060006005838161367557fe5b0490503373ffffffffffffffffffffffffffffffffffffffff168473ffffffffffffffffffffffffffffffffffffffff1614156136c25780830192506136bd8e8c8587615bd7565b6136d9565b6136ce8e8c8587615bd7565b6136d88482614b69565b5b8082018601955050505b808501945050505084866001019650861061352157858760000160006101000a81548164ffffffffff021916908364ffffffffff1602179055506000811461374457613743739a6a414d6f3497c05e3b1de90520765fa1e07c0382614b69565b5b60008214613757576137563383614b69565b5b505050505050505050565b600061376c615322565b9050600760320260010181106137ea576040517f08c379a00000000000000000000000000000000000000000000000000000000081526004018080602001828103825260178152602001807f4845583a204c6f6262696573206861766520656e64656400000000000000000081525060200191505060405180910390fd5b60003490506000811415613866576040517f08c379a00000000000000000000000000000000000000000000000000000000081526004018080602001828103825260148152602001807f4845583a20416d6f756e7420726571756972656400000000000000000000000081525060200191505060405180910390fd5b60006009600084815260200190815260200160002060003373ffffffffffffffffffffffffffffffffffffffff1673ffffffffffffffffffffffffffffffffffffffff1681526020019081526020016000209050600081600001600581819054906101000a900464ffffffffff168092919060010191906101000a81548164ffffffffff021916908364ffffffffff16021790555064ffffffffff1690506040518060400160405280846bffffffffffffffffffffffff1681526020018673ffffffffffffffffffffffffffffffffffffffff1681525082600101600083815260200190815260200160002060008201518160000160006101000a8154816bffffffffffffffffffffffff02191690836bffffffffffffffffffffffff160217905550602082015181600001600c6101000a81548173ffffffffffffffffffffffffffffffffffffffff021916908373ffffffffffffffffffffffffffffffffffffffff160217905550905050826008600086815260200190815260200160002060008282540192505081905550613a0084828588615c61565b5050505050565b6000601b8460ff1610158015613a215750601e8460ff1611155b613a93576040517f08c379a000000000000000000000000000000000000000000000000000000000815260040180806020018281038252600e8152602001807f4845583a207620696e76616c696400000000000000000000000000000000000081525060200191505060405180910390fd5b6000613a9f8888611a15565b90506000613ab6613ab18c8c8a615cee565b6160d0565b90508173ffffffffffffffffffffffffffffffffffffffff1660018288888860405160008152602001604052604051808581526020018460ff1660ff1681526020018381526020018281526020019450505050506020604051602081039080840390855afa158015613b2c573d6000803e3d6000fd5b5050506020604051035173ffffffffffffffffffffffffffffffffffffffff16149250505098975050505050505050565b6000600160008473ffffffffffffffffffffffffffffffffffffffff1673ffffffffffffffffffffffffffffffffffffffff16815260200190815260200160002060008373ffffffffffffffffffffffffffffffffffffffff1673ffffffffffffffffffffffffffffffffffffffff16815260200190815260200160002054905092915050565b6000613c328585858580806020026020016040519081016040528093929190818152602001838360200280828437600081840152601f19601f82011690508083019250505050505050615872565b9050949350505050565b613c44617848565b6000806000613c73600360010160109054906101000a90046fffffffffffffffffffffffffffffffff16616232565b809350819450829550505050604051806101a00160405280600360000160009054906101000a900468ffffffffffffffffff1668ffffffffffffffffff168152602001600360000160099054906101000a900468ffffffffffffffffff1668ffffffffffffffffff168152602001600360000160129054906101000a900464ffffffffff1664ffffffffff168152602001600360000160179054906101000a900468ffffffffffffffffff1668ffffffffffffffffff168152602001600360010160009054906101000a900461ffff1661ffff168152602001600360010160029054906101000a900468ffffffffffffffffff1668ffffffffffffffffff1681526020016003600101600b9054906101000a900464ffffffffff1664ffffffffff168152602001828152602001838152602001848152602001428152602001613dba61157d565b815260200160086000613dcb615322565b815260200190815260200160002054815250935050505090565b60608183108015613dfd575060076032026001018211155b8015613e105750613e0c615322565b8211155b613e82576040517f08c379a00000000000000000000000000000000000000000000000000000000081526004018080602001828103825260128152602001807f4845583a20696e76616c69642072616e6765000000000000000000000000000081525060200191505060405180910390fd5b828203604051908082528060200260200182016040528015613eb35781602001602082028038833980820191505090505b509050600083905060008090505b6008600083806001019450815260200190815260200160002054838280600101935081518110613eed57fe5b602002602001018181525050838210613ec157829250505092915050565b600033905090565b600073ffffffffffffffffffffffffffffffffffffffff168373ffffffffffffffffffffffffffffffffffffffff161415613f99576040517f08c379a0000000000000000000000000000000000000000000000000000000008152600401808060200182810382526024815260200180617a9f6024913960400191505060405180910390fd5b600073ffffffffffffffffffffffffffffffffffffffff168273ffffffffffffffffffffffffffffffffffffffff16141561401f576040517f08c379a00000000000000000000000000000000000000000000000000000000081526004018080602001828103825260228152602001806178f86022913960400191505060405180910390fd5b80600160008573ffffffffffffffffffffffffffffffffffffffff1673ffffffffffffffffffffffffffffffffffffffff16815260200190815260200160002060008473ffffffffffffffffffffffffffffffffffffffff1673ffffffffffffffffffffffffffffffffffffffff168152602001908152602001600020819055508173ffffffffffffffffffffffffffffffffffffffff168373ffffffffffffffffffffffffffffffffffffffff167f8c5be1e5ebec7d5bd14f71427d1e84f3dd0314c0f7b2291e5b200ac8c7c3b925836040518082815260200191505060405180910390a3505050565b600073ffffffffffffffffffffffffffffffffffffffff168373ffffffffffffffffffffffffffffffffffffffff161415614190576040517f08c379a0000000000000000000000000000000000000000000000000000000008152600401808060200182810382526025815260200180617a7a6025913960400191505060405180910390fd5b600073ffffffffffffffffffffffffffffffffffffffff168273ffffffffffffffffffffffffffffffffffffffff161415614216576040517f08c379a000000000000000000000000000000000000000000000000000000000815260040180806020018281038252602381526020018061788d6023913960400191505060405180910390fd5b61428181604051806060016040528060268152602001617975602691396000808773ffffffffffffffffffffffffffffffffffffffff1673ffffffffffffffffffffffffffffffffffffffff168152602001908152602001600020546143c09092919063ffffffff16565b6000808573ffffffffffffffffffffffffffffffffffffffff1673ffffffffffffffffffffffffffffffffffffffff16815260200190815260200160002081905550614314816000808573ffffffffffffffffffffffffffffffffffffffff1673ffffffffffffffffffffffffffffffffffffffff1681526020019081526020016000205461529a90919063ffffffff16565b6000808473ffffffffffffffffffffffffffffffffffffffff1673ffffffffffffffffffffffffffffffffffffffff168152602001908152602001600020819055508173ffffffffffffffffffffffffffffffffffffffff168373ffffffffffffffffffffffffffffffffffffffff167fddf252ad1be2c89b69c2b068fc378daa952ba7f163c4a11628f55a4df523b3ef836040518082815260200191505060405180910390a3505050565b600083831115829061446d576040517f08c379a00000000000000000000000000000000000000000000000000000000081526004018080602001828103825283818151815260200191508051906020019080838360005b83811015614432578082015181840152602081019050614417565b50505050905090810190601f16801561445f5780820380516001836020036101000a031916815260200191505b509250505060405180910390fd5b5060008385039050809150509392505050565b60006144b0827f4e831acb4223b66de3b3d2e54a2edeefb0de3d7916e2886a4b134d9764d41bec60001b856162c9565b905092915050565b600060036002836040518082805190602001908083835b602083106144f257805182526020820191506020810190506020830392506144cf565b6001836020036101000a038019825116818451168082178552505050505050905001915050602060405180830381855afa158015614534573d6000803e3d6000fd5b5050506040513d602081101561454957600080fd5b8101908080519060200190929190505050604051602001808281526020019150506040516020818303038152906040526040518082805190602001908083835b602083106145ac5780518252602082019150602081019050602083039250614589565b6001836020036101000a038019825116818451168082178552505050505050905001915050602060405180830381855afa1580156145ee573d6000803e3d6000fd5b5050506040515160601b9050919050565b600360000160009054906101000a900468ffffffffffffffffff1668ffffffffffffffffff16826000018181525050600360000160099054906101000a900468ffffffffffffffffff1668ffffffffffffffffff16826020018181525050600360000160129054906101000a900464ffffffffff1664ffffffffff16826040018181525050600360000160179054906101000a900468ffffffffffffffffff1668ffffffffffffffffff16826060018181525050600360010160009054906101000a900461ffff1661ffff16826080018181525050600360010160029054906101000a900468ffffffffffffffffff1668ffffffffffffffffff168260a00181815250506003600101600b9054906101000a900464ffffffffff168260c0019064ffffffffff16908164ffffffffff168152505061475d600360010160109054906101000a90046fffffffffffffffffffffffffffffffff16616232565b846101200185610100018660e001838152508381525083815250505050614782615322565b826101400181815250506147968282616382565b5050565b8260000160009054906101000a900464ffffffffff1664ffffffffff168264ffffffffff1614614832576040517f08c379a000000000000000000000000000000000000000000000000000000000815260040180806020018281038252601e8152602001807f4845583a207374616b654964506172616d206e6f7420696e207374616b65000081525060200191505060405180910390fd5b8260000160009054906101000a900464ffffffffff16816000019064ffffffffff16908164ffffffffff16815250508260000160059054906101000a900468ffffffffffffffffff1668ffffffffffffffffff1681602001818152505082600001600e9054906101000a900468ffffffffffffffffff1668ffffffffffffffffff168160400181815250508260000160179054906101000a900461ffff1661ffff168160600181815250508260000160199054906101000a900461ffff1661ffff1681608001818152505082600001601b9054906101000a900461ffff1661ffff168160a001818152505082600001601d9054906101000a900460ff168160c0019015159081151581525050505050565b6149548182610140015160016159fa565b50565b80604001518260a00181815103915081815250508161014001518160a00181815250505050565b60008060008085608001518510156149bf576149a98787606001518860800151888a60400151616426565b80935081945050508286602001510193506149ff565b6149d98787604001518860600151888a60600151016164fc565b92508286602001510193506149fc866060015187608001518860a0015187616648565b91505b60008214614a255783821115614a1b5783905060009350614a24565b81905080840393505b5b83838383935093509350935093509350935093565b8664ffffffffff163373ffffffffffffffffffffffffffffffffffffffff167f72d9c5a7ab13846e08d9c838f9e866a1bb4a66a2fd3ba3c9e7da3cf9e394dfd760b88768ffffffffffffffffff16901b60708968ffffffffffffffffff16901b60288b68ffffffffffffffffff16901b4264ffffffffff1617171784614ac1576000614acf565b6b0100000000000000000000005b6bffffffffffffffffffffffff1660488761ffff16901b8868ffffffffffffffffff161717604051808381526020018281526020019250505060405180910390a350505050505050565b600060028281614b2557fe5b04905060008114614b4f57614b4e739a6a414d6f3497c05e3b1de90520765fa1e07c0382614b69565b5b808203905080836060018181510191508181525050505050565b600073ffffffffffffffffffffffffffffffffffffffff168273ffffffffffffffffffffffffffffffffffffffff161415614c0c576040517f08c379a000000000000000000000000000000000000000000000000000000000815260040180806020018281038252601f8152602001807f45524332303a206d696e7420746f20746865207a65726f20616464726573730081525060200191505060405180910390fd5b614c218160025461529a90919063ffffffff16565b600281905550614c78816000808573ffffffffffffffffffffffffffffffffffffffff1673ffffffffffffffffffffffffffffffffffffffff1681526020019081526020016000205461529a90919063ffffffff16565b6000808473ffffffffffffffffffffffffffffffffffffffff1673ffffffffffffffffffffffffffffffffffffffff168152602001908152602001600020819055508173ffffffffffffffffffffffffffffffffffffffff16600073ffffffffffffffffffffffffffffffffffffffff167fddf252ad1be2c89b69c2b068fc378daa952ba7f163c4a11628f55a4df523b3ef836040518082815260200191505060405180910390a35050565b8160200151811115614d9f576000614d40828460800151616685565b905060008360400151620186a08385010281614d5857fe5b049050600160286001901b03811115614d7757600160286001901b0390505b8460400151811115614d9c5780856040018181525050614d9b81856000015161677b565b5b50505b505050565b600060018380549050039050808214614f6d57828181548110614dc357fe5b90600052602060002001838381548110614dd957fe5b906000526020600020016000820160009054906101000a900464ffffffffff168160000160006101000a81548164ffffffffff021916908364ffffffffff1602179055506000820160059054906101000a900468ffffffffffffffffff168160000160056101000a81548168ffffffffffffffffff021916908368ffffffffffffffffff16021790555060008201600e9054906101000a900468ffffffffffffffffff1681600001600e6101000a81548168ffffffffffffffffff021916908368ffffffffffffffffff1602179055506000820160179054906101000a900461ffff168160000160176101000a81548161ffff021916908361ffff1602179055506000820160199054906101000a900461ffff168160000160196101000a81548161ffff021916908361ffff16021790555060008201601b9054906101000a900461ffff1681600001601b6101000a81548161ffff021916908361ffff16021790555060008201601d9054906101000a900460ff1681600001601d6101000a81548160ff0219169083151502179055509050505b82805480614f7757fe5b60019003818190600052602060002001600080820160006101000a81549064ffffffffff02191690556000820160056101000a81549068ffffffffffffffffff021916905560008201600e6101000a81549068ffffffffffffffffff02191690556000820160176101000a81549061ffff02191690556000820160196101000a81549061ffff021916905560008201601b6101000a81549061ffff021916905560008201601d6101000a81549060ff021916905550509055505050565b8060000151826000015114158061505357508060200151826020015114155b8061506657508060400151826040015114155b8061507957508060600151826060015114155b1561513f578160000151600360000160006101000a81548168ffffffffffffffffff021916908368ffffffffffffffffff1602179055508160200151600360000160096101000a81548168ffffffffffffffffff021916908368ffffffffffffffffff1602179055508160400151600360000160126101000a81548164ffffffffff021916908364ffffffffff1602179055508160600151600360000160176101000a81548168ffffffffffffffffff021916908368ffffffffffffffffff1602179055505b8060800151826080015114158061515e57508060a001518260a0015114155b8061517f57508060c0015164ffffffffff168260c0015164ffffffffff1614155b8061519257508060e001518260e0015114155b806151a7575080610100015182610100015114155b806151bc575080610120015182610120015114155b15615296578160800151600360010160006101000a81548161ffff021916908361ffff1602179055508160a00151600360010160026101000a81548168ffffffffffffffffff021916908368ffffffffffffffffff1602179055508160c001516003600101600b6101000a81548164ffffffffff021916908364ffffffffff16021790555061525a8261012001518361010001518460e001516167d2565b600360010160106101000a8154816fffffffffffffffffffffffffffffffff02191690836fffffffffffffffffffffffffffffffff1602179055505b5050565b600080828401905083811015615318576040517f08c379a000000000000000000000000000000000000000000000000000000000815260040180806020018281038252601b8152602001807f536166654d6174683a206164646974696f6e206f766572666c6f77000000000081525060200191505060405180910390fd5b8091505092915050565b600062015180635de5a58042038161533657fe5b04905090565b6115b3821115615397576040517f08c379a0000000000000000000000000000000000000000000000000000000008152600401808060200182810382526026815260200180617a0e6026913960400191505060405180910390fd5b60006153a38484616685565b905060008560400151620186a083870102816153bb57fe5b0490506000811415615418576040517f08c379a000000000000000000000000000000000000000000000000000000000815260040180806020018281038252603781526020018061793e6037913960400191505060405180910390fd5b60006001876101400151106154355760018761014001510161543a565b600180015b905060008760c001805160010164ffffffffff16908164ffffffffff1681525090506154a9600760003373ffffffffffffffffffffffffffffffffffffffff1673ffffffffffffffffffffffffffffffffffffffff168152602001908152602001600020828986868b8b6167f8565b6154b6818885898961699f565b82886020018181510191508181525050868860000181815101915081815250505050505050505050565b600073ffffffffffffffffffffffffffffffffffffffff168273ffffffffffffffffffffffffffffffffffffffff161415615566576040517f08c379a0000000000000000000000000000000000000000000000000000000008152600401808060200182810382526021815260200180617a346021913960400191505060405180910390fd5b6155d1816040518060600160405280602281526020016178d6602291396000808673ffffffffffffffffffffffffffffffffffffffff1673ffffffffffffffffffffffffffffffffffffffff168152602001908152602001600020546143c09092919063ffffffff16565b6000808473ffffffffffffffffffffffffffffffffffffffff1673ffffffffffffffffffffffffffffffffffffffff1681526020019081526020016000208190555061562881600254616a7490919063ffffffff16565b600281905550600073ffffffffffffffffffffffffffffffffffffffff168273ffffffffffffffffffffffffffffffffffffffff167fddf252ad1be2c89b69c2b068fc378daa952ba7f163c4a11628f55a4df523b3ef836040518082815260200191505060405180910390a35050565b3373ffffffffffffffffffffffffffffffffffffffff168564ffffffffff168773ffffffffffffffffffffffffffffffffffffffff167fd824970a2cf19cc2b630c87ce5b00f67301cac3ac60513d027c7a39129f93b4660b88668ffffffffffffffffff16901b60708868ffffffffffffffffff16901b60288a68ffffffffffffffffff16901b4264ffffffffff161717178568ffffffffffffffffff16604051808381526020018281526020019250505060405180910390a4505050505050565b80600001518260000160006101000a81548164ffffffffff021916908364ffffffffff16021790555080602001518260000160056101000a81548168ffffffffffffffffff021916908368ffffffffffffffffff160217905550806040015182600001600e6101000a81548168ffffffffffffffffff021916908368ffffffffffffffffff16021790555080606001518260000160176101000a81548161ffff021916908361ffff16021790555080608001518260000160196101000a81548161ffff021916908361ffff1602179055508060a0015182600001601b6101000a81548161ffff021916908361ffff1602179055508060c0015182600001601d6101000a81548160ff0219169083151502179055505050565b600080602d6001602d6060036001901b03901b8360008151811061589257fe5b602002602001015160001c1614615911576040517f08c379a00000000000000000000000000000000000000000000000000000000081526004018080602001828103825260128152602001807f4845583a2070726f6f6620696e76616c6964000000000000000000000000000081525060200191505060405180910390fd5b6000600190505b82518110156159cc576000602d6001602d6060036001901b03901b84838151811061593f57fe5b602002602001015160001c1614156159bf576040517f08c379a00000000000000000000000000000000000000000000000000000000081526004018080602001828103825260128152602001807f4845583a2070726f6f6620696e76616c6964000000000000000000000000000081525060200191505060405180910390fd5b8080600101915050615918565b5060008360001b856bffffffffffffffffffffffff19161790506159f08184614480565b9150509392505050565b81836080015110615a0a57615ad3565b615a1261786b565b8360000151615a1f61157d565b01816000018181525050600084608001519050615a3d858383616abe565b6000856020015114615a695784602001518560a001818151019150818152505060008560200181815250505b5b83816001019150811015615a8857615a83858383616abe565b615a6a565b615a9785608001518285616b93565b808560800181815250506000826020015114615ad057615acf739a6a414d6f3497c05e3b1de90520765fa1e07c038360200151614b69565b5b50505b505050565b6000615ae261777f565b615aea61777f565b615af482826145ff565b615b03828a8a8a8a8a8a616c26565b9250615b0f8282615034565b82925050509695505050505050565b600060018210615bbe57615b3061777f565b615b3861777f565b615b4282826145ff565b615b4b82614943565b60006006600086815260200190815260200160002060000160129054906101000a900466ffffffffffffff1666ffffffffffffff16905060076032026127106305f5e100600860ff16600a0a81615b9e57fe5b0402820281615ba957fe5b049350615bb68383615034565b505050615bcf565b600860ff16600a0a633b9aca000290505b809050919050565b8073ffffffffffffffffffffffffffffffffffffffff1683602886901b173373ffffffffffffffffffffffffffffffffffffffff167fa6b19fa7f41317a186e1d58e9d81f86a52f1102b6bce10b4eca83f37aaa5846860288668ffffffffffffffffff16901b4264ffffffffff16176040518082815260200191505060405180910390a450505050565b8073ffffffffffffffffffffffffffffffffffffffff1683602886901b173373ffffffffffffffffffffffffffffffffffffffff167f25ecdb937d5c5cc78f0d18dfb1ac82c44086b5dc608380ba357d06c9868f0b1d6028866bffffffffffffffffffffffff16901b4264ffffffffff16176040518082815260200191505060405180910390a450505050565b60608060006001841660ff161415615d3b576040518060400160405280600f81526020017f436c61696d5f4845585f746f5f30780000000000000000000000000000000000815250615d72565b6040518060400160405280601681526020017f436c61696d5f426974636f696e4845585f746f5f3078000000000000000000008152505b90506000806010851660ff161490506060615d8d8783616e04565b90506000801b861415615eca5760187f426974636f696e205369676e6564204d6573736167653a0a000000000000000060026014028551018584604051602001808660ff1660ff1660f81b81526001018567ffffffffffffffff191667ffffffffffffffff191681526018018460ff1660ff1660f81b815260010183805190602001908083835b60208310615e375780518252602082019150602081019050602083039250615e14565b6001836020036101000a03801982511681845116808217855250505050505090500182805190602001908083835b60208310615e885780518252602082019150602081019050602083039250615e65565b6001836020036101000a0380198251168184511680821785525050505050509050019550505050505060405160208183030381529060405293505050506160c9565b60606002600c0260ff166040519080825280601f01601f191660200182016040528015615f065781602001600182028038833980820191505090505b509050615f188188600c60ff16616eeb565b60187f426974636f696e205369676e6564204d6573736167653a0a00000000000000006002600c02600160026014028851010101868585604051602001808760ff1660ff1660f81b81526001018667ffffffffffffffff191667ffffffffffffffff191681526018018560ff1660ff1660f81b815260010184805190602001908083835b60208310615fbf5780518252602082019150602081019050602083039250615f9c565b6001836020036101000a03801982511681845116808217855250505050505090500183805190602001908083835b602083106160105780518252602082019150602081019050602083039250615fed565b6001836020036101000a038019825116818451168082178552505050505050905001807f5f0000000000000000000000000000000000000000000000000000000000000081525060010182805190602001908083835b602083106160895780518252602082019150602081019050602083039250616066565b6001836020036101000a03801982511681845116808217855250505050505090500196505050505050506040516020818303038152906040529450505050505b9392505050565b6000600280836040518082805190602001908083835b6020831061610957805182526020820191506020810190506020830392506160e6565b6001836020036101000a038019825116818451168082178552505050505050905001915050602060405180830381855afa15801561614b573d6000803e3d6000fd5b5050506040513d602081101561616057600080fd5b8101908080519060200190929190505050604051602001808281526020019150506040516020818303038152906040526040518082805190602001908083835b602083106161c357805182526020820191506020810190506020830392506161a0565b6001836020036101000a038019825116818451168082178552505050505050905001915050602060405180830381855afa158015616205573d6000803e3d6000fd5b5050506040513d602081101561621a57600080fd5b81019080805190602001909291905050509050919050565b60008060006002603302846fffffffffffffffffffffffffffffffff16901c6fffffffffffffffffffffffffffffffff169250600160336001901b036033856fffffffffffffffffffffffffffffffff16901c6fffffffffffffffffffffffffffffffff16169150600160336001901b03846fffffffffffffffffffffffffffffffff161690508282829250925092509193909250565b60008082905060008090505b85518110156163745760008682815181106162ec57fe5b60200260200101519050808310156163345782816040516020018083815260200182815260200192505050604051602081830303815290604052805190602001209250616366565b808360405160200180838152602001828152602001925050506040516020818303038152906040528051906020012092505b5080806001019150506162d5565b508381149150509392505050565b816000015181600001818152505081602001518160200181815250508160400151816040018181525050816060015181606001818152505081608001518160800181815250508160a001518160a00181815250508160c001518160c0019064ffffffffff16908164ffffffffff16815250508160e001518160e001818152505081610100015181610100018181525050816101200151816101200181815250505050565b6000806000848701905060006002600188018161643f57fe5b049050605a81101561645057605a90505b600086141561647b5760006164668a878b61701c565b905081810293508484945094505050506164f2565b858110156164bc57600081890190506164968a878b846164fc565b935060006164a68b8884876164fc565b90508085019550858595509550505050506164f2565b6164c889868a856164fc565b9350858114156164da578392506164e9565b85818502816164e557fe5b0492505b83839350935050505b9550959350505050565b6000808390505b82811015616594576006600082815260200190815260200160002060000160099054906101000a900468ffffffffffffffffff1668ffffffffffffffffff16856006600084815260200190815260200160002060000160009054906101000a900468ffffffffffffffffff1668ffffffffffffffffff16028161658257fe5b04820191508080600101915050616503565b50600160076032026001010183111580156165b85750600160076032026001010182115b1561663d576000600660006001600760320260010101815260200190815260200160002060000160099054906101000a900468ffffffffffffffffff1668ffffffffffffffffff16856127106305f5e100600860ff16600a0a8161661857fe5b04028860e0015102028161662857fe5b04905061663586826170e2565b810182019150505b809050949350505050565b600080600760020285870101905080841161666757600091505061667d565b600760640281850384028161667857fe5b049150505b949350505050565b6000806000905060018311156166dd57606460c86014618e30816166a557fe5b0402816166ae57fe5b048311156166d557606460c86014618e30816166c657fe5b0402816166cf57fe5b046166da565b600183035b90505b6000600860ff16600a0a6308f0d1800285111561670757600860ff16600a0a6308f0d18002616709565b845b90506014618e308161671757fe5b048102600a6064600860ff16600a0a6308f0d18002028161673457fe5b048302019250600a6064600860ff16600a0a6308f0d18002028161675457fe5b046014618e308161676157fe5b04028386028161676d57fe5b049250829250505092915050565b8064ffffffffff167f9861fa0ed101659f7a59b4583fcc798dfa4f3b419bea371c8ee2ad0ffe13a31e60288464ffffffffff16901b4264ffffffffff16176040518082815260200191505060405180910390a25050565b600080600260330285901b9050603384901b811790508281179050809150509392505050565b866040518060e001604052808864ffffffffff1681526020018768ffffffffffffffffff1681526020018668ffffffffffffffffff1681526020018561ffff1681526020018461ffff168152602001600061ffff16815260200183151581525090806001815401808255809150509060018203906000526020600020016000909192909190915060008201518160000160006101000a81548164ffffffffff021916908364ffffffffff16021790555060208201518160000160056101000a81548168ffffffffffffffffff021916908368ffffffffffffffffff160217905550604082015181600001600e6101000a81548168ffffffffffffffffff021916908368ffffffffffffffffff16021790555060608201518160000160176101000a81548161ffff021916908361ffff16021790555060808201518160000160196101000a81548161ffff021916908361ffff16021790555060a082015181600001601b6101000a81548161ffff021916908361ffff16021790555060c082015181600001601d6101000a81548160ff02191690831515021790555050505050505050505050565b8464ffffffffff163373ffffffffffffffffffffffffffffffffffffffff167f14872dc760f33532684e68e1b6d5fd3f71ba7b07dee76bdb2b084f28b74233ef836169eb576000616a07565b7901000000000000000000000000000000000000000000000000005b79ffffffffffffffffffffffffffffffffffffffffffffffffffff1660b88661ffff16901b60708868ffffffffffffffffff16901b60288a68ffffffffffffffffff16901b4264ffffffffff16171717176040518082815260200191505060405180910390a35050505050565b6000616ab683836040518060400160405280601e81526020017f536166654d6174683a207375627472616374696f6e206f766572666c6f7700008152506143c0565b905092915050565b616ac9838383617125565b81604001516006600083815260200190815260200160002060000160006101000a81548168ffffffffffffffffff021916908368ffffffffffffffffff1602179055508260a001516006600083815260200190815260200160002060000160096101000a81548168ffffffffffffffffff021916908368ffffffffffffffffff1602179055508260e001516006600083815260200190815260200160002060000160126101000a81548166ffffffffffffff021916908366ffffffffffffff160217905550505050565b3373ffffffffffffffffffffffffffffffffffffffff167fb8d6eb541ded1720cc657b719f57abcb1fe4711cb7ead82751b135f5d94bc94482616bd7576000616be3565b69010000000000000000005b69ffffffffffffffffffff1660388561ffff16901b60288761ffff16901b4264ffffffffff161717176040518082815260200191505060405180910390a2505050565b600060018861014001511015616c87576040517f08c379a000000000000000000000000000000000000000000000000000000000815260040180806020018281038252602481526020018061791a6024913960400191505060405180910390fd5b600760320260010188610140015110616d08576040517f08c379a000000000000000000000000000000000000000000000000000000000815260040180806020018281038252601a8152602001807f4845583a20436c61696d2070686173652068617320656e64656400000000000081525060200191505060405180910390fd5b616d1188614943565b6301ab362e88610120015110616d8f576040517f08c379a000000000000000000000000000000000000000000000000000000000815260040180806020018281038252601e8152602001807f4845583a2043484b3a205f636c61696d656442746341646472436f756e74000081525060200191505060405180910390fd5b6000806000616d9e8b8b61720a565b9250925092508a61012001805180919060010181525050616dc58989898d8787878c617318565b935060006064605a860281616dd657fe5b049050616de68c8289600161533c565b616df28a828703614b69565b84945050505050979650505050505050565b6060600260140260ff166040519080825280601f01601f191660200182016040528015616e405781602001600182028038833980820191505090505b509050616e64818460601b6bffffffffffffffffffffffff1916601460ff16616eeb565b8115616ee257600081805190602001209050600080905060008090505b601460ff16811015616ede576000838260208110616e9b57fe5b1a60f81b60f81c9050616ebc858480600101955060048460ff16901c61742f565b616ed08584806001019550600f841661742f565b508080600101915050616e81565b5050505b80905092915050565b600080905060008090505b82811015617015576000848260208110616f0c57fe5b1a60f81b60f81c90507f303132333435363738396162636465660000000000000000000000000000000060048260ff16901c60ff1660108110616f4b57fe5b1a60f81b868480600101955081518110616f6157fe5b60200101907effffffffffffffffffffffffffffffffffffffffffffffffffffffffffffff1916908160001a9053507f3031323334353637383961626364656600000000000000000000000000000000600f821660ff1660108110616fc257fe5b1a60f81b868480600101955081518110616fd857fe5b60200101907effffffffffffffffffffffffffffffffffffffffffffffffffffffffffffff1916908160001a905350508080600101915050616ef6565b5050505050565b600061702661777f565b6170308582616382565b61703861786b565b856000015161704561157d565b0181600001818152505061705a828286617125565b848260a00181815101915081815250508160a00151858260400151028161707d57fe5b04925060016007603202600101018414156170d65760008260a00151866127106305f5e100600860ff16600a0a816170b157fe5b04028560e001510202816170c157fe5b0490506170ce83826170e2565b810184019350505b82925050509392505050565b6000806301ab362e8461012001518402816170f957fe5b049050600066033bb85fc52d9985610100015185028161711557fe5b0490508082019250505092915050565b6305fcbae36127108360000151028161713a57fe5b0482604001818152505060076032026001018110156171d957600060076032026127106305f5e100600860ff16600a0a8161717157fe5b04028560e00151028161718057fe5b049050600061719585838660400151016170e2565b8201905080846020018181510191508181525050808460000181815101915081815250506171c78585604001516170e2565b84604001818151019150818152505050505b600083606001511461720557826060015182604001818151019150818152505060008360600181815250505b505050565b6000806000617218846174ee565b925066033bb85fc52d998386610100015101111561729e576040517f08c379a000000000000000000000000000000000000000000000000000000000815260040180806020018281038252601f8152602001807f4845583a2043484b3a205f636c61696d65645361746f73686973546f74616c0081525060200191505060405180910390fd5b8285610100018181510191508181525050600085610140015160076032026001010390506172cc8482617545565b9350838660e00181815103915081815250506127106305f5e100600860ff16600a0a816172f557fe5b040284029250617305838261755f565b9150838383935093509350509250925092565b600082840190506000839050600073ffffffffffffffffffffffffffffffffffffffff168373ffffffffffffffffffffffffffffffffffffffff16141561736d576173688a8a8a8a8a8789617582565b617401565b6000600a838161737957fe5b049050808301925060006005848161738d57fe5b049050808201830192508b73ffffffffffffffffffffffffffffffffffffffff168573ffffffffffffffffffffffffffffffffffffffff1614156173e45780840193506173df8c8c8c8c8c898b617582565b6173fe565b6173f38c8c8c8c8c898b617582565b6173fd8582614b69565b5b50505b61741f739a6a414d6f3497c05e3b1de90520765fa1e07c0382614b69565b8191505098975050505050505050565b600083838151811061743d57fe5b602001015160f81c60f81b90507f6100000000000000000000000000000000000000000000000000000000000000817effffffffffffffffffffffffffffffffffffffffffffffffffffffffffffff1916101580156174a0575060088260ff1610155b156174e857602060f81b81188484815181106174b857fe5b60200101907effffffffffffffffffffffffffffffffffffffffffffffffffffffffffffff1916908160001a9053505b50505050565b600064174876e80082101561750557819050617540565b64e8d4a510008210617523576004828161751b57fe5b049050617540565b65034630b8a000826501ba60d338000383028161753c57fe5b0490505b919050565b600060076032028284028161755657fe5b04905092915050565b600060056001600760320203026001830384028161757957fe5b04905092915050565b8073ffffffffffffffffffffffffffffffffffffffff168773ffffffffffffffffffffffffffffffffffffffff16876bffffffffffffffffffffffff19167f41e3c7dc6eebc97a48a437ff2afdc629613f12c48ba37a2c94563f80acba972560a08668ffffffffffffffffff16901b60988a60ff16901b60608966ffffffffffffff16901b60288b66ffffffffffffff16901b4264ffffffffff16171717173373ffffffffffffffffffffffffffffffffffffffff16604051808381526020018281526020019250505060405180910390a43373ffffffffffffffffffffffffffffffffffffffff168773ffffffffffffffffffffffffffffffffffffffff16141561768d57617776565b3373ffffffffffffffffffffffffffffffffffffffff167f3a84b2d9dac24683628d63034c6949797f15fab735e16232518ee4e753fd49b760c88666ffffffffffffff16901b60288960601c73ffffffffffffffffffffffffffffffffffffffff16901b4264ffffffffff16171760d88860ff16901b60388b73ffffffffffffffffffffffffffffffffffffffff16901b8766ffffffffffffff16171760488573ffffffffffffffffffffffffffffffffffffffff16901b8668ffffffffffffffffff161760405180848152602001838152602001828152602001935050505060405180910390a25b50505050505050565b604051806101600160405280600081526020016000815260200160008152602001600081526020016000815260200160008152602001600064ffffffffff168152602001600081526020016000815260200160008152602001600081525090565b6040518060e00160405280600064ffffffffff16815260200160008152602001600081526020016000815260200160008152602001600081526020016000151581525090565b6040518060400160405280600290602082028038833980820191505090505090565b604051806101a00160405280600d90602082028038833980820191505090505090565b6040518060600160405280600081526020016000815260200160008152509056fe45524332303a207472616e7366657220746f20746865207a65726f20616464726573734845583a206265666f72654461792063616e6e6f7420626520696e207468652066757475726545524332303a206275726e20616d6f756e7420657863656564732062616c616e636545524332303a20617070726f766520746f20746865207a65726f20616464726573734845583a20436c61696d20706861736520686173206e6f742079657420737461727465644845583a206e65775374616b6564486561727473206d757374206265206174206c65617374206d696e696d756d2073686172655261746545524332303a207472616e7366657220616d6f756e7420657863656564732062616c616e63654845583a204254432061646472657373206f722062616c616e636520756e6b6e6f776e4845583a2042544320616464726573732062616c616e636520616c726561647920636c61696d656445524332303a207472616e7366657220616d6f756e74206578636565647320616c6c6f77616e63654845583a206e65775374616b65644461797320686967686572207468616e206d6178696d756d45524332303a206275726e2066726f6d20746865207a65726f20616464726573734845583a206175746f5374616b6544617973206c6f776572207468616e206d696e696d756d45524332303a207472616e736665722066726f6d20746865207a65726f206164647265737345524332303a20617070726f76652066726f6d20746865207a65726f20616464726573734845583a206e65775374616b656444617973206c6f776572207468616e206d696e696d756d45524332303a2064656372656173656420616c6c6f77616e63652062656c6f77207a65726fa265627a7a72315820da3cedf22ebbc4cf0b303c4df56968a17a59bc80c7c9f7cbc87660dbdbd8610564736f6c634300050d0032",
  "linkReferences": {},
  "deployedLinkReferences": {}
}