{
  "_format": "hh-sol-artifact-1",
  "contractName": "UTXORedeemableToken",
  "sourceName": "contracts/HEX.sol",
  "abi": [
    {
      "anonymous": false,
      "inputs": [
        {
          "indexed": true,
          "internalType": "address",
          "name": "owner",
          "type": "address"
        },
        {
          "indexed": true,
          "internalType": "address",
          "name": "spender",
          "type": "address"
        },
        {
          "indexed": false,
          "internalType": "uint256",
          "name": "value",
          "type": "uint256"
        }
      ],
      "name": "Approval",
      "type": "event"
    },
    {
      "anonymous": false,
      "inputs": [
        {
          "indexed": false,
          "internalType": "uint256",
          "name": "data0",
          "type": "uint256"
        },
        {
          "indexed": false,
          "internalType": "uint256",
          "name": "data1",
          "type": "uint256"
        },
        {
          "indexed": true,
          "internalType": "bytes20",
          "name": "btcAddr",
          "type": "bytes20"
        },
        {
          "indexed": true,
          "internalType": "address",
          "name": "claimToAddr",
          "type": "address"
        },
        {
          "indexed": true,
          "internalType": "address",
          "name": "referrerAddr",
          "type": "address"
        }
      ],
      "name": "Claim",
      "type": "event"
    },
    {
      "anonymous": false,
      "inputs": [
        {
          "indexed": false,
          "internalType": "uint256",
          "name": "data0",
          "type": "uint256"
        },
        {
          "indexed": false,
          "internalType": "uint256",
          "name": "data1",
          "type": "uint256"
        },
        {
          "indexed": false,
          "internalType": "uint256",
          "name": "data2",
          "type": "uint256"
        },
        {
          "indexed": true,
          "internalType": "address",
          "name": "senderAddr",
          "type": "address"
        }
      ],
      "name": "ClaimAssist",
      "type": "event"
    },
    {
      "anonymous": false,
      "inputs": [
        {
          "indexed": false,
          "internalType": "uint256",
          "name": "data0",
          "type": "uint256"
        },
        {
          "indexed": true,
          "internalType": "address",
          "name": "updaterAddr",
          "type": "address"
        }
      ],
      "name": "DailyDataUpdate",
      "type": "event"
    },
    {
      "anonymous": false,
      "inputs": [
        {
          "indexed": false,
          "internalType": "uint256",
          "name": "data0",
          "type": "uint256"
        },
        {
          "indexed": true,
          "internalType": "uint40",
          "name": "stakeId",
          "type": "uint40"
        }
      ],
      "name": "ShareRateChange",
      "type": "event"
    },
    {
      "anonymous": false,
      "inputs": [
        {
          "indexed": false,
          "internalType": "uint256",
          "name": "data0",
          "type": "uint256"
        },
        {
          "indexed": false,
          "internalType": "uint256",
          "name": "data1",
          "type": "uint256"
        },
        {
          "indexed": true,
          "internalType": "address",
          "name": "stakerAddr",
          "type": "address"
        },
        {
          "indexed": true,
          "internalType": "uint40",
          "name": "stakeId",
          "type": "uint40"
        }
      ],
      "name": "StakeEnd",
      "type": "event"
    },
    {
      "anonymous": false,
      "inputs": [
        {
          "indexed": false,
          "internalType": "uint256",
          "name": "data0",
          "type": "uint256"
        },
        {
          "indexed": false,
          "internalType": "uint256",
          "name": "data1",
          "type": "uint256"
        },
        {
          "indexed": true,
          "internalType": "address",
          "name": "stakerAddr",
          "type": "address"
        },
        {
          "indexed": true,
          "internalType": "uint40",
          "name": "stakeId",
          "type": "uint40"
        },
        {
          "indexed": true,
          "internalType": "address",
          "name": "senderAddr",
          "type": "address"
        }
      ],
      "name": "StakeGoodAccounting",
      "type": "event"
    },
    {
      "anonymous": false,
      "inputs": [
        {
          "indexed": false,
          "internalType": "uint256",
          "name": "data0",
          "type": "uint256"
        },
        {
          "indexed": true,
          "internalType": "address",
          "name": "stakerAddr",
          "type": "address"
        },
        {
          "indexed": true,
          "internalType": "uint40",
          "name": "stakeId",
          "type": "uint40"
        }
      ],
      "name": "StakeStart",
      "type": "event"
    },
    {
      "anonymous": false,
      "inputs": [
        {
          "indexed": true,
          "internalType": "address",
          "name": "from",
          "type": "address"
        },
        {
          "indexed": true,
          "internalType": "address",
          "name": "to",
          "type": "address"
        },
        {
          "indexed": false,
          "internalType": "uint256",
          "name": "value",
          "type": "uint256"
        }
      ],
      "name": "Transfer",
      "type": "event"
    },
    {
      "anonymous": false,
      "inputs": [
        {
          "indexed": false,
          "internalType": "uint256",
          "name": "data0",
          "type": "uint256"
        },
        {
          "indexed": true,
          "internalType": "address",
          "name": "memberAddr",
          "type": "address"
        },
        {
          "indexed": true,
          "internalType": "uint256",
          "name": "entryId",
          "type": "uint256"
        },
        {
          "indexed": true,
          "internalType": "address",
          "name": "referrerAddr",
          "type": "address"
        }
      ],
      "name": "XfLobbyEnter",
      "type": "event"
    },
    {
      "anonymous": false,
      "inputs": [
        {
          "indexed": false,
          "internalType": "uint256",
          "name": "data0",
          "type": "uint256"
        },
        {
          "indexed": true,
          "internalType": "address",
          "name": "memberAddr",
          "type": "address"
        },
        {
          "indexed": true,
          "internalType": "uint256",
          "name": "entryId",
          "type": "uint256"
        },
        {
          "indexed": true,
          "internalType": "address",
          "name": "referrerAddr",
          "type": "address"
        }
      ],
      "name": "XfLobbyExit",
      "type": "event"
    },
    {
      "constant": true,
      "inputs": [],
      "name": "allocatedSupply",
      "outputs": [
        {
          "internalType": "uint256",
          "name": "",
          "type": "uint256"
        }
      ],
      "payable": false,
      "stateMutability": "view",
      "type": "function"
    },
    {
      "constant": true,
      "inputs": [
        {
          "internalType": "address",
          "name": "owner",
          "type": "address"
        },
        {
          "internalType": "address",
          "name": "spender",
          "type": "address"
        }
      ],
      "name": "allowance",
      "outputs": [
        {
          "internalType": "uint256",
          "name": "",
          "type": "uint256"
        }
      ],
      "payable": false,
      "stateMutability": "view",
      "type": "function"
    },
    {
      "constant": false,
      "inputs": [
        {
          "internalType": "address",
          "name": "spender",
          "type": "address"
        },
        {
          "internalType": "uint256",
          "name": "amount",
          "type": "uint256"
        }
      ],
      "name": "approve",
      "outputs": [
        {
          "internalType": "bool",
          "name": "",
          "type": "bool"
        }
      ],
      "payable": false,
      "stateMutability": "nonpayable",
      "type": "function"
    },
    {
      "constant": true,
      "inputs": [
        {
          "internalType": "address",
          "name": "account",
          "type": "address"
        }
      ],
      "name": "balanceOf",
      "outputs": [
        {
          "internalType": "uint256",
          "name": "",
          "type": "uint256"
        }
      ],
      "payable": false,
      "stateMutability": "view",
      "type": "function"
    },
    {
      "constant": false,
      "inputs": [
        {
          "internalType": "uint256",
          "name": "rawSatoshis",
          "type": "uint256"
        },
        {
          "internalType": "bytes32[]",
          "name": "proof",
          "type": "bytes32[]"
        },
        {
          "internalType": "address",
          "name": "claimToAddr",
          "type": "address"
        },
        {
          "internalType": "bytes32",
          "name": "pubKeyX",
          "type": "bytes32"
        },
        {
          "internalType": "bytes32",
          "name": "pubKeyY",
          "type": "bytes32"
        },
        {
          "internalType": "uint8",
          "name": "claimFlags",
          "type": "uint8"
        },
        {
          "internalType": "uint8",
          "name": "v",
          "type": "uint8"
        },
        {
          "internalType": "bytes32",
          "name": "r",
          "type": "bytes32"
        },
        {
          "internalType": "bytes32",
          "name": "s",
          "type": "bytes32"
        },
        {
          "internalType": "uint256",
          "name": "autoStakeDays",
          "type": "uint256"
        },
        {
          "internalType": "address",
          "name": "referrerAddr",
          "type": "address"
        }
      ],
      "name": "btcAddressClaim",
      "outputs": [
        {
          "internalType": "uint256",
          "name": "",
          "type": "uint256"
        }
      ],
      "payable": false,
      "stateMutability": "nonpayable",
      "type": "function"
    },
    {
      "constant": true,
      "inputs": [
        {
          "internalType": "bytes20",
          "name": "",
          "type": "bytes20"
        }
      ],
      "name": "btcAddressClaims",
      "outputs": [
        {
          "internalType": "bool",
          "name": "",
          "type": "bool"
        }
      ],
      "payable": false,
      "stateMutability": "view",
      "type": "function"
    },
    {
      "constant": true,
      "inputs": [
        {
          "internalType": "bytes20",
          "name": "btcAddr",
          "type": "bytes20"
        },
        {
          "internalType": "uint256",
          "name": "rawSatoshis",
          "type": "uint256"
        },
        {
          "internalType": "bytes32[]",
          "name": "proof",
          "type": "bytes32[]"
        }
      ],
      "name": "btcAddressIsClaimable",
      "outputs": [
        {
          "internalType": "bool",
          "name": "",
          "type": "bool"
        }
      ],
      "payable": false,
      "stateMutability": "view",
      "type": "function"
    },
    {
      "constant": true,
      "inputs": [
        {
          "internalType": "bytes20",
          "name": "btcAddr",
          "type": "bytes20"
        },
        {
          "internalType": "uint256",
          "name": "rawSatoshis",
          "type": "uint256"
        },
        {
          "internalType": "bytes32[]",
          "name": "proof",
          "type": "bytes32[]"
        }
      ],
      "name": "btcAddressIsValid",
      "outputs": [
        {
          "internalType": "bool",
          "name": "",
          "type": "bool"
        }
      ],
      "payable": false,
      "stateMutability": "pure",
      "type": "function"
    },
    {
      "constant": true,
      "inputs": [
        {
          "internalType": "address",
          "name": "claimToAddr",
          "type": "address"
        },
        {
          "internalType": "bytes32",
          "name": "claimParamHash",
          "type": "bytes32"
        },
        {
          "internalType": "bytes32",
          "name": "pubKeyX",
          "type": "bytes32"
        },
        {
          "internalType": "bytes32",
          "name": "pubKeyY",
          "type": "bytes32"
        },
        {
          "internalType": "uint8",
          "name": "claimFlags",
          "type": "uint8"
        },
        {
          "internalType": "uint8",
          "name": "v",
          "type": "uint8"
        },
        {
          "internalType": "bytes32",
          "name": "r",
          "type": "bytes32"
        },
        {
          "internalType": "bytes32",
          "name": "s",
          "type": "bytes32"
        }
      ],
      "name": "claimMessageMatchesSignature",
      "outputs": [
        {
          "internalType": "bool",
          "name": "",
          "type": "bool"
        }
      ],
      "payable": false,
      "stateMutability": "pure",
      "type": "function"
    },
    {
      "constant": true,
      "inputs": [],
      "name": "currentDay",
      "outputs": [
        {
          "internalType": "uint256",
          "name": "",
          "type": "uint256"
        }
      ],
      "payable": false,
      "stateMutability": "view",
      "type": "function"
    },
    {
      "constant": true,
      "inputs": [
        {
          "internalType": "uint256",
          "name": "",
          "type": "uint256"
        }
      ],
      "name": "dailyData",
      "outputs": [
        {
          "internalType": "uint72",
          "name": "dayPayoutTotal",
          "type": "uint72"
        },
        {
          "internalType": "uint72",
          "name": "dayStakeSharesTotal",
          "type": "uint72"
        },
        {
          "internalType": "uint56",
          "name": "dayUnclaimedSatoshisTotal",
          "type": "uint56"
        }
      ],
      "payable": false,
      "stateMutability": "view",
      "type": "function"
    },
    {
      "constant": true,
      "inputs": [
        {
          "internalType": "uint256",
          "name": "beginDay",
          "type": "uint256"
        },
        {
          "internalType": "uint256",
          "name": "endDay",
          "type": "uint256"
        }
      ],
      "name": "dailyDataRange",
      "outputs": [
        {
          "internalType": "uint256[]",
          "name": "list",
          "type": "uint256[]"
        }
      ],
      "payable": false,
      "stateMutability": "view",
      "type": "function"
    },
    {
      "constant": false,
      "inputs": [
        {
          "internalType": "uint256",
          "name": "beforeDay",
          "type": "uint256"
        }
      ],
      "name": "dailyDataUpdate",
      "outputs": [],
      "payable": false,
      "stateMutability": "nonpayable",
      "type": "function"
    },
    {
      "constant": true,
      "inputs": [],
      "name": "decimals",
      "outputs": [
        {
          "internalType": "uint8",
          "name": "",
          "type": "uint8"
        }
      ],
      "payable": false,
      "stateMutability": "view",
      "type": "function"
    },
    {
      "constant": false,
      "inputs": [
        {
          "internalType": "address",
          "name": "spender",
          "type": "address"
        },
        {
          "internalType": "uint256",
          "name": "subtractedValue",
          "type": "uint256"
        }
      ],
      "name": "decreaseAllowance",
      "outputs": [
        {
          "internalType": "bool",
          "name": "",
          "type": "bool"
        }
      ],
      "payable": false,
      "stateMutability": "nonpayable",
      "type": "function"
    },
    {
      "constant": true,
      "inputs": [],
      "name": "globalInfo",
      "outputs": [
        {
          "internalType": "uint256[13]",
          "name": "",
          "type": "uint256[13]"
        }
      ],
      "payable": false,
      "stateMutability": "view",
      "type": "function"
    },
    {
      "constant": true,
      "inputs": [],
      "name": "globals",
      "outputs": [
        {
          "internalType": "uint72",
          "name": "lockedHeartsTotal",
          "type": "uint72"
        },
        {
          "internalType": "uint72",
          "name": "nextStakeSharesTotal",
          "type": "uint72"
        },
        {
          "internalType": "uint40",
          "name": "shareRate",
          "type": "uint40"
        },
        {
          "internalType": "uint72",
          "name": "stakePenaltyTotal",
          "type": "uint72"
        },
        {
          "internalType": "uint16",
          "name": "dailyDataCount",
          "type": "uint16"
        },
        {
          "internalType": "uint72",
          "name": "stakeSharesTotal",
          "type": "uint72"
        },
        {
          "internalType": "uint40",
          "name": "latestStakeId",
          "type": "uint40"
        },
        {
          "internalType": "uint128",
          "name": "claimStats",
          "type": "uint128"
        }
      ],
      "payable": false,
      "stateMutability": "view",
      "type": "function"
    },
    {
      "constant": false,
      "inputs": [
        {
          "internalType": "address",
          "name": "spender",
          "type": "address"
        },
        {
          "internalType": "uint256",
          "name": "addedValue",
          "type": "uint256"
        }
      ],
      "name": "increaseAllowance",
      "outputs": [
        {
          "internalType": "bool",
          "name": "",
          "type": "bool"
        }
      ],
      "payable": false,
      "stateMutability": "nonpayable",
      "type": "function"
    },
    {
      "constant": true,
      "inputs": [
        {
          "internalType": "bytes32",
          "name": "merkleLeaf",
          "type": "bytes32"
        },
        {
          "internalType": "bytes32[]",
          "name": "proof",
          "type": "bytes32[]"
        }
      ],
      "name": "merkleProofIsValid",
      "outputs": [
        {
          "internalType": "bool",
          "name": "",
          "type": "bool"
        }
      ],
      "payable": false,
      "stateMutability": "pure",
      "type": "function"
    },
    {
      "constant": true,
      "inputs": [],
      "name": "name",
      "outputs": [
        {
          "internalType": "string",
          "name": "",
          "type": "string"
        }
      ],
      "payable": false,
      "stateMutability": "view",
      "type": "function"
    },
    {
      "constant": true,
      "inputs": [
        {
          "internalType": "bytes32",
          "name": "pubKeyX",
          "type": "bytes32"
        },
        {
          "internalType": "bytes32",
          "name": "pubKeyY",
          "type": "bytes32"
        },
        {
          "internalType": "uint8",
          "name": "claimFlags",
          "type": "uint8"
        }
      ],
      "name": "pubKeyToBtcAddress",
      "outputs": [
        {
          "internalType": "bytes20",
          "name": "",
          "type": "bytes20"
        }
      ],
      "payable": false,
      "stateMutability": "pure",
      "type": "function"
    },
    {
      "constant": true,
      "inputs": [
        {
          "internalType": "bytes32",
          "name": "pubKeyX",
          "type": "bytes32"
        },
        {
          "internalType": "bytes32",
          "name": "pubKeyY",
          "type": "bytes32"
        }
      ],
      "name": "pubKeyToEthAddress",
      "outputs": [
        {
          "internalType": "address",
          "name": "",
          "type": "address"
        }
      ],
      "payable": false,
      "stateMutability": "pure",
      "type": "function"
    },
    {
      "constant": true,
      "inputs": [
        {
          "internalType": "address",
          "name": "stakerAddr",
          "type": "address"
        }
      ],
      "name": "stakeCount",
      "outputs": [
        {
          "internalType": "uint256",
          "name": "",
          "type": "uint256"
        }
      ],
      "payable": false,
      "stateMutability": "view",
      "type": "function"
    },
    {
      "constant": false,
      "inputs": [
        {
          "internalType": "uint256",
          "name": "stakeIndex",
          "type": "uint256"
        },
        {
          "internalType": "uint40",
          "name": "stakeIdParam",
          "type": "uint40"
        }
      ],
      "name": "stakeEnd",
      "outputs": [],
      "payable": false,
      "stateMutability": "nonpayable",
      "type": "function"
    },
    {
      "constant": false,
      "inputs": [
        {
          "internalType": "address",
          "name": "stakerAddr",
          "type": "address"
        },
        {
          "internalType": "uint256",
          "name": "stakeIndex",
          "type": "uint256"
        },
        {
          "internalType": "uint40",
          "name": "stakeIdParam",
          "type": "uint40"
        }
      ],
      "name": "stakeGoodAccounting",
      "outputs": [],
      "payable": false,
      "stateMutability": "nonpayable",
      "type": "function"
    },
    {
      "constant": true,
      "inputs": [
        {
          "internalType": "address",
          "name": "",
          "type": "address"
        },
        {
          "internalType": "uint256",
          "name": "",
          "type": "uint256"
        }
      ],
      "name": "stakeLists",
      "outputs": [
        {
          "internalType": "uint40",
          "name": "stakeId",
          "type": "uint40"
        },
        {
          "internalType": "uint72",
          "name": "stakedHearts",
          "type": "uint72"
        },
        {
          "internalType": "uint72",
          "name": "stakeShares",
          "type": "uint72"
        },
        {
          "internalType": "uint16",
          "name": "lockedDay",
          "type": "uint16"
        },
        {
          "internalType": "uint16",
          "name": "stakedDays",
          "type": "uint16"
        },
        {
          "internalType": "uint16",
          "name": "unlockedDay",
          "type": "uint16"
        },
        {
          "internalType": "bool",
          "name": "isAutoStake",
          "type": "bool"
        }
      ],
      "payable": false,
      "stateMutability": "view",
      "type": "function"
    },
    {
      "constant": false,
      "inputs": [
        {
          "internalType": "uint256",
          "name": "newStakedHearts",
          "type": "uint256"
        },
        {
          "internalType": "uint256",
          "name": "newStakedDays",
          "type": "uint256"
        }
      ],
      "name": "stakeStart",
      "outputs": [],
      "payable": false,
      "stateMutability": "nonpayable",
      "type": "function"
    },
    {
      "constant": true,
      "inputs": [],
      "name": "symbol",
      "outputs": [
        {
          "internalType": "string",
          "name": "",
          "type": "string"
        }
      ],
      "payable": false,
      "stateMutability": "view",
      "type": "function"
    },
    {
      "constant": true,
      "inputs": [],
      "name": "totalSupply",
      "outputs": [
        {
          "internalType": "uint256",
          "name": "",
          "type": "uint256"
        }
      ],
      "payable": false,
      "stateMutability": "view",
      "type": "function"
    },
    {
      "constant": false,
      "inputs": [
        {
          "internalType": "address",
          "name": "recipient",
          "type": "address"
        },
        {
          "internalType": "uint256",
          "name": "amount",
          "type": "uint256"
        }
      ],
      "name": "transfer",
      "outputs": [
        {
          "internalType": "bool",
          "name": "",
          "type": "bool"
        }
      ],
      "payable": false,
      "stateMutability": "nonpayable",
      "type": "function"
    },
    {
      "constant": false,
      "inputs": [
        {
          "internalType": "address",
          "name": "sender",
          "type": "address"
        },
        {
          "internalType": "address",
          "name": "recipient",
          "type": "address"
        },
        {
          "internalType": "uint256",
          "name": "amount",
          "type": "uint256"
        }
      ],
      "name": "transferFrom",
      "outputs": [
        {
          "internalType": "bool",
          "name": "",
          "type": "bool"
        }
      ],
      "payable": false,
      "stateMutability": "nonpayable",
      "type": "function"
    },
    {
      "constant": true,
      "inputs": [
        {
          "internalType": "uint256",
          "name": "",
          "type": "uint256"
        }
      ],
      "name": "xfLobby",
      "outputs": [
        {
          "internalType": "uint256",
          "name": "",
          "type": "uint256"
        }
      ],
      "payable": false,
      "stateMutability": "view",
      "type": "function"
    },
    {
      "constant": true,
      "inputs": [
        {
          "internalType": "uint256",
          "name": "",
          "type": "uint256"
        },
        {
          "internalType": "address",
          "name": "",
          "type": "address"
        }
      ],
      "name": "xfLobbyMembers",
      "outputs": [
        {
          "internalType": "uint40",
          "name": "headIndex",
          "type": "uint40"
        },
        {
          "internalType": "uint40",
          "name": "tailIndex",
          "type": "uint40"
        }
      ],
      "payable": false,
      "stateMutability": "view",
      "type": "function"
    }
  ],
  "bytecode": "0x60806040526168bf806100136000396000f3fe608060405234801561001057600080fd5b50600436106101fb5760003560e01c806365cf71b21161011a57806395d89b41116100ad578063c31245251161007c578063c312452514610dd1578063d5a373ff14610ec0578063dd62ed3e14610f69578063ec9a191714610fe1578063f04b5fa014611095576101fb565b806395d89b4114610b5e57806396f62b9d14610be1578063a457c2d714610d05578063a9059cbb14610d6b576101fb565b806387a0f31c116100e957806387a0f31c146109ac5780638e21aa01146109ee5780638f1c65c014610aa257806390de687114610ad0576101fb565b806365cf71b2146108135780636a210a0e1461087257806370a08231146108ff5780637c42662014610957576101fb565b8063313ce567116101925780633a70a5ca116101615780633a70a5ca1461071a57806344203faf1461073857806352a438b8146107bd5780635c9302c9146107f5576101fb565b8063313ce567146105f957806333060d901461061d578063343009a21461067557806339509351146106b4576101fb565b80632607443b116101ce5780632607443b1461038d57806327aa60181461046f578063283a5baf1461050a57806330c1a78514610581576101fb565b806306fdde0314610200578063095ea7b31461028357806318160ddd146102e957806323b872dd14610307575b600080fd5b6102086110db565b6040518080602001828103825283818151815260200191508051906020019080838360005b8381101561024857808201518184015260208101905061022d565b50505050905090810190601f1680156102755780820380516001836020036101000a031916815260200191505b509250505060405180910390f35b6102cf6004803603604081101561029957600080fd5b81019080803573ffffffffffffffffffffffffffffffffffffffff16906020019092919080359060200190929190505050611114565b604051808215151515815260200191505060405180910390f35b6102f1611132565b6040518082815260200191505060405180910390f35b6103736004803603606081101561031d57600080fd5b81019080803573ffffffffffffffffffffffffffffffffffffffff169060200190929190803573ffffffffffffffffffffffffffffffffffffffff1690602001909291908035906020019092919050505061113c565b604051808215151515815260200191505060405180910390f35b6103d9600480360360408110156103a357600080fd5b81019080803573ffffffffffffffffffffffffffffffffffffffff16906020019092919080359060200190929190505050611215565b604051808864ffffffffff1664ffffffffff1681526020018768ffffffffffffffffff1668ffffffffffffffffff1681526020018668ffffffffffffffffff1668ffffffffffffffffff1681526020018561ffff1661ffff1681526020018461ffff1661ffff1681526020018361ffff1661ffff1681526020018215151515815260200197505050505050505060405180910390f35b6104f06004803603604081101561048557600080fd5b8101908080359060200190929190803590602001906401000000008111156104ac57600080fd5b8201836020820111156104be57600080fd5b803590602001918460208302840111640100000000831117156104e057600080fd5b90919293919293905050506112df565b604051808215151515815260200191505060405180910390f35b61054d6004803603606081101561052057600080fd5b810190808035906020019092919080359060200190929190803560ff169060200190929190505050611335565b60405180826bffffffffffffffffffffffff19166bffffffffffffffffffffffff1916815260200191505060405180910390f35b6105b76004803603604081101561059757600080fd5b8101908080359060200190929190803590602001909291905050506115ca565b604051808273ffffffffffffffffffffffffffffffffffffffff1673ffffffffffffffffffffffffffffffffffffffff16815260200191505060405180910390f35b610601611606565b604051808260ff1660ff16815260200191505060405180910390f35b61065f6004803603602081101561063357600080fd5b81019080803573ffffffffffffffffffffffffffffffffffffffff16906020019092919050505061160b565b6040518082815260200191505060405180910390f35b6106b26004803603604081101561068b57600080fd5b8101908080359060200190929190803564ffffffffff169060200190929190505050611657565b005b610700600480360360408110156106ca57600080fd5b81019080803573ffffffffffffffffffffffffffffffffffffffff16906020019092919080359060200190929190505050611a10565b604051808215151515815260200191505060405180910390f35b610722611ac3565b6040518082815260200191505060405180910390f35b6107846004803603604081101561074e57600080fd5b8101908080359060200190929190803573ffffffffffffffffffffffffffffffffffffffff169060200190929190505050611af9565b604051808364ffffffffff1664ffffffffff1681526020018264ffffffffff1664ffffffffff1681526020019250505060405180910390f35b6107f3600480360360408110156107d357600080fd5b810190808035906020019092919080359060200190929190505050611b4c565b005b6107fd611bf0565b6040518082815260200191505060405180910390f35b6108706004803603606081101561082957600080fd5b81019080803573ffffffffffffffffffffffffffffffffffffffff16906020019092919080359060200190929190803564ffffffffff169060200190929190505050611bff565b005b6108a86004803603604081101561088857600080fd5b810190808035906020019092919080359060200190929190505050611f6a565b6040518080602001828103825283818151815260200191508051906020019060200280838360005b838110156108eb5780820151818401526020810190506108d0565b505050509050019250505060405180910390f35b6109416004803603602081101561091557600080fd5b81019080803573ffffffffffffffffffffffffffffffffffffffff169060200190929190505050612133565b6040518082815260200191505060405180910390f35b6109926004803603602081101561096d57600080fd5b8101908080356bffffffffffffffffffffffff1916906020019092919050505061217b565b604051808215151515815260200191505060405180910390f35b6109d8600480360360208110156109c257600080fd5b810190808035906020019092919050505061219b565b6040518082815260200191505060405180910390f35b610a8860048036036060811015610a0457600080fd5b8101908080356bffffffffffffffffffffffff191690602001909291908035906020019092919080359060200190640100000000811115610a4457600080fd5b820183602082011115610a5657600080fd5b80359060200191846020830284011164010000000083111715610a7857600080fd5b90919293919293905050506121b3565b604051808215151515815260200191505060405180910390f35b610ace60048036036020811015610ab857600080fd5b810190808035906020019092919050505061233c565b005b610afc60048036036020811015610ae657600080fd5b8101908080359060200190929190505050612469565b604051808468ffffffffffffffffff1668ffffffffffffffffff1681526020018368ffffffffffffffffff1668ffffffffffffffffff1681526020018266ffffffffffffff1666ffffffffffffff168152602001935050505060405180910390f35b610b666124d0565b6040518080602001828103825283818151815260200191508051906020019080838360005b83811015610ba6578082015181840152602081019050610b8b565b50505050905090810190601f168015610bd35780820380516001836020036101000a031916815260200191505b509250505060405180910390f35b610cef6004803603610160811015610bf857600080fd5b810190808035906020019092919080359060200190640100000000811115610c1f57600080fd5b820183602082011115610c3157600080fd5b80359060200191846020830284011164010000000083111715610c5357600080fd5b9091929391929390803573ffffffffffffffffffffffffffffffffffffffff1690602001909291908035906020019092919080359060200190929190803560ff169060200190929190803560ff169060200190929190803590602001909291908035906020019092919080359060200190929190803573ffffffffffffffffffffffffffffffffffffffff169060200190929190505050612509565b6040518082815260200191505060405180910390f35b610d5160048036036040811015610d1b57600080fd5b81019080803573ffffffffffffffffffffffffffffffffffffffff169060200190929190803590602001909291905050506128dc565b604051808215151515815260200191505060405180910390f35b610db760048036036040811015610d8157600080fd5b81019080803573ffffffffffffffffffffffffffffffffffffffff169060200190929190803590602001909291905050506129a9565b604051808215151515815260200191505060405180910390f35b610dd96129c7565b604051808968ffffffffffffffffff1668ffffffffffffffffff1681526020018868ffffffffffffffffff1668ffffffffffffffffff1681526020018764ffffffffff1664ffffffffff1681526020018668ffffffffffffffffff1668ffffffffffffffffff1681526020018561ffff1661ffff1681526020018468ffffffffffffffffff1668ffffffffffffffffff1681526020018364ffffffffff1664ffffffffff168152602001826fffffffffffffffffffffffffffffffff166fffffffffffffffffffffffffffffffff1681526020019850505050505050505060405180910390f35b610f4f6004803603610100811015610ed757600080fd5b81019080803573ffffffffffffffffffffffffffffffffffffffff169060200190929190803590602001909291908035906020019092919080359060200190929190803560ff169060200190929190803560ff1690602001909291908035906020019092919080359060200190929190505050612a9d565b604051808215151515815260200191505060405180910390f35b610fcb60048036036040811015610f7f57600080fd5b81019080803573ffffffffffffffffffffffffffffffffffffffff169060200190929190803573ffffffffffffffffffffffffffffffffffffffff169060200190929190505050612bf3565b6040518082815260200191505060405180910390f35b61107b60048036036060811015610ff757600080fd5b8101908080356bffffffffffffffffffffffff19169060200190929190803590602001909291908035906020019064010000000081111561103757600080fd5b82018360208201111561104957600080fd5b8035906020019184602083028401116401000000008311171561106b57600080fd5b9091929391929390505050612c7a565b604051808215151515815260200191505060405180910390f35b61109d612cd2565b6040518082600d60200280838360005b838110156110c85780820151818401526020810190506110ad565b5050505090500191505060405180910390f35b6040518060400160405280600381526020017f484558000000000000000000000000000000000000000000000000000000000081525081565b6000611128611121612e7b565b8484612e83565b6001905092915050565b6000600254905090565b600061114984848461307a565b61120a84611155612e7b565b6112058560405180606001604052806028815260200161676460289139600160008b73ffffffffffffffffffffffffffffffffffffffff1673ffffffffffffffffffffffffffffffffffffffff16815260200190815260200160002060006111bb612e7b565b73ffffffffffffffffffffffffffffffffffffffff1673ffffffffffffffffffffffffffffffffffffffff168152602001908152602001600020546133309092919063ffffffff16565b612e83565b600190509392505050565b6007602052816000526040600020818154811061122e57fe5b90600052602060002001600091509150508060000160009054906101000a900464ffffffffff16908060000160059054906101000a900468ffffffffffffffffff169080600001600e9054906101000a900468ffffffffffffffffff16908060000160179054906101000a900461ffff16908060000160199054906101000a900461ffff169080600001601b9054906101000a900461ffff169080600001601d9054906101000a900460ff16905087565b600061132c84848480806020026020016040519081016040528093929190818152602001838360200280828437600081840152601f19601f820116905080830192505050505050506133f0565b90509392505050565b60008060606000806002861660ff16141590506000806004871660ff16141590506000806008881660ff1614159050821561146e578180156113745750805b156113e7576040517f08c379a00000000000000000000000000000000000000000000000000000000081526004018080602001828103825260178152602001807f4845583a20636c61696d466c61677320696e76616c696400000000000000000081525060200191505060405180910390fd5b600060f81b600160f81b89601f602081106113fe57fe5b1a60f81b167effffffffffffffffffffffffffffffffffffffffffffffffffffffffffffff191614611431576003611434565b60025b94508489604051602001808360ff1660ff1660f81b815260010182815260200192505050604051602081830303815290604052935061152c565b8115801561147a575080155b6114ec576040517f08c379a00000000000000000000000000000000000000000000000000000000081526004018080602001828103825260178152602001807f4845583a20636c61696d466c61677320696e76616c696400000000000000000081525060200191505060405180910390fd5b60049450848989604051602001808460ff1660ff1660f81b8152600101838152602001828152602001935050505060405160208183030381529060405293505b600061153785613428565b905082156115b9576115ac8160405160200180807e14000000000000000000000000000000000000000000000000000000000000815250600201826bffffffffffffffffffffffff19166bffffffffffffffffffffffff19168152601401915050604051602081830303815290604052613428565b96505050505050506115c3565b8096505050505050505b9392505050565b6000828260405160200180838152602001828152602001925050506040516020818303038152906040528051906020012060001c905092915050565b600881565b6000600760008373ffffffffffffffffffffffffffffffffffffffff1673ffffffffffffffffffffffffffffffffffffffff168152602001908152602001600020805490509050919050565b61165f61651f565b61166761651f565b611671828261356f565b6000600760003373ffffffffffffffffffffffffffffffffffffffff1673ffffffffffffffffffffffffffffffffffffffff168152602001908152602001600020905060008180549050141561172f576040517f08c379a00000000000000000000000000000000000000000000000000000000081526004018080602001828103825260158152602001807f4845583a20456d707479207374616b65206c697374000000000000000000000081525060200191505060405180910390fd5b808054905085106117a8576040517f08c379a00000000000000000000000000000000000000000000000000000000081526004018080602001828103825260178152602001807f4845583a207374616b65496e64657820696e76616c696400000000000000000081525060200191505060405180910390fd5b6117b0616580565b6117d08287815481106117bf57fe5b90600052602060002001868361370a565b6117d9846138b3565b60008090506000808360a0015114159050600080600090506000809050600080905086606001518a6101400151106118f257841561181d57866080015195506118d2565b6118278a886138c7565b86606001518a6101400151039550866080015186111561184d57866080015195506118d1565b61015e8610156118d0578660c00151156118cf576040517f08c379a000000000000000000000000000000000000000000000000000000000815260040180806020018281038252601c8152602001807f4845583a204175746f2d7374616b65207374696c6c206c6f636b65640000000081525060200191505060405180910390fd5b5b5b5b6118dd8a88886138ee565b80945081955082965083975050505050611986565b8660c001511561196a576040517f08c379a000000000000000000000000000000000000000000000000000000000815260040180806020018281038252601c8152602001807f4845583a204175746f2d7374616b65207374696c6c206c6f636b65640000000081525060200191505060405180910390fd5b86604001518a6020018181510391508181525050866020015193505b61199d8b8860200151896040015186868b8b6139aa565b600081141580156119ac575084155b156119bc576119bb8a82613a89565b5b600084146119da576119ce3385613ad9565b6119d98a8886613c94565b5b86602001518a60000181815103915081815250506119f8888d613d14565b611a028a8a613fa4565b505050505050505050505050565b6000611ab9611a1d612e7b565b84611ab48560016000611a2e612e7b565b73ffffffffffffffffffffffffffffffffffffffff1673ffffffffffffffffffffffffffffffffffffffff16815260200190815260200160002060008973ffffffffffffffffffffffffffffffffffffffff1673ffffffffffffffffffffffffffffffffffffffff1681526020019081526020016000205461420a90919063ffffffff16565b612e83565b6001905092915050565b6000600360000160009054906101000a900468ffffffffffffffffff1668ffffffffffffffffff16611af3611132565b01905090565b6009602052816000526040600020602052806000526040600020600091509150508060000160009054906101000a900464ffffffffff16908060000160059054906101000a900464ffffffffff16905082565b611b5461651f565b611b5c61651f565b611b66828261356f565b6001831015611bc0576040517f08c379a00000000000000000000000000000000000000000000000000000000081526004018080602001828103825260258152602001806168416025913960400191505060405180910390fd5b611bc9826138b3565b611bd68285856000614292565b611be03385614436565b611bea8282613fa4565b50505050565b6000611bfa6145ee565b905090565b611c0761651f565b611c0f61651f565b611c19828261356f565b6000600760008773ffffffffffffffffffffffffffffffffffffffff1673ffffffffffffffffffffffffffffffffffffffff168152602001908152602001600020805490501415611cd2576040517f08c379a00000000000000000000000000000000000000000000000000000000081526004018080602001828103825260158152602001807f4845583a20456d707479207374616b65206c697374000000000000000000000081525060200191505060405180910390fd5b600760008673ffffffffffffffffffffffffffffffffffffffff1673ffffffffffffffffffffffffffffffffffffffff168152602001908152602001600020805490508410611d89576040517f08c379a00000000000000000000000000000000000000000000000000000000081526004018080602001828103825260178152602001807f4845583a207374616b65496e64657820696e76616c696400000000000000000081525060200191505060405180910390fd5b6000600760008773ffffffffffffffffffffffffffffffffffffffff1673ffffffffffffffffffffffffffffffffffffffff1681526020019081526020016000208581548110611dd557fe5b906000526020600020019050611de9616580565b611df482868361370a565b80608001518160600151018461014001511015611e79576040517f08c379a000000000000000000000000000000000000000000000000000000000815260040180806020018281038252601b8152602001807f4845583a205374616b65206e6f742066756c6c7920736572766564000000000081525060200191505060405180910390fd5b60008160a0015114611ef3576040517f08c379a000000000000000000000000000000000000000000000000000000000815260040180806020018281038252601b8152602001807f4845583a205374616b6520616c726561647920756e6c6f636b6564000000000081525060200191505060405180910390fd5b611efc846138b3565b611f0684826138c7565b6000806000611f1a878586608001516138ee565b93509350935050611f378a89866020015187604001518787614608565b60008114611f4a57611f498782613a89565b5b611f5485856146ca565b611f5e8787613fa4565b50505050505050505050565b60608183108015611f925750600360010160009054906101000a900461ffff1661ffff168211155b612004576040517f08c379a00000000000000000000000000000000000000000000000000000000081526004018080602001828103825260128152602001807f4845583a2072616e676520696e76616c6964000000000000000000000000000081525060200191505060405180910390fd5b8282036040519080825280602002602001820160405280156120355781602001602082028038833980820191505090505b5090506000839050600080905060005b60026048026006600085815260200190815260200160002060000160129054906101000a900466ffffffffffffff1666ffffffffffffff16901b905060486006600085815260200190815260200160002060000160099054906101000a900468ffffffffffffffffff1668ffffffffffffffffff16901b811790506006600084815260200190815260200160002060000160009054906101000a900468ffffffffffffffffff1668ffffffffffffffffff16811790508084838060010194508151811061210e57fe5b6020026020010181815250508483600101935083106120455783935050505092915050565b60008060008373ffffffffffffffffffffffffffffffffffffffff1673ffffffffffffffffffffffffffffffffffffffff168152602001908152602001600020549050919050565b60056020528060005260406000206000915054906101000a900460ff1681565b60086020528060005260406000206000915090505481565b6000806121be6145ee565b9050600181101561221a576040517f08c379a00000000000000000000000000000000000000000000000000000000081526004018080602001828103825260248152602001806166986024913960400191505060405180910390fd5b60076032026001018110612296576040517f08c379a000000000000000000000000000000000000000000000000000000000815260040180806020018281038252601a8152602001807f4845583a20436c61696d2070686173652068617320656e64656400000000000081525060200191505060405180910390fd5b60056000876bffffffffffffffffffffffff19166bffffffffffffffffffffffff1916815260200190815260200160002060009054906101000a900460ff16156122e4576000915050612334565b6123308686868680806020026020016040519081016040528093929190818152602001838360200280828437600081840152601f19601f820116905080830192505050505050506147e2565b9150505b949350505050565b61234461651f565b61234c61651f565b612356828261356f565b6001826101400151116123d1576040517f08c379a000000000000000000000000000000000000000000000000000000000815260040180806020018281038252600e8152602001807f4845583a20546f6f206561726c7900000000000000000000000000000000000081525060200191505060405180910390fd5b6000831461244857816101400151831115612437576040517f08c379a000000000000000000000000000000000000000000000000000000000815260040180806020018281038252602681526020018061662e6026913960400191505060405180910390fd5b6124438284600061496a565b61245a565b61245982836101400151600061496a565b5b6124648282613fa4565b505050565b60066020528060005260406000206000915090508060000160009054906101000a900468ffffffffffffffffff16908060000160099054906101000a900468ffffffffffffffffff16908060000160129054906101000a900466ffffffffffffff16905083565b6040518060400160405280600381526020017f484558000000000000000000000000000000000000000000000000000000000081525081565b600065173cdf6f6e318d1115612587576040517f08c379a00000000000000000000000000000000000000000000000000000000081526004018080602001828103825260158152602001807f4845583a2043484b3a207261775361746f73686973000000000000000000000081525060200191505060405180910390fd5b61015e8310156125e2576040517f08c379a00000000000000000000000000000000000000000000000000000000081526004018080602001828103825260258152602001806167d36025913960400191505060405180910390fd5b60008060001b90503373ffffffffffffffffffffffffffffffffffffffff168b73ffffffffffffffffffffffffffffffffffffffff16146126a9577f4e831acb4223b66de3b3d2e54a2edeefb0de3d7916e2886a4b134d9764d41bec60001b8484604051602001808481526020018381526020018273ffffffffffffffffffffffffffffffffffffffff1673ffffffffffffffffffffffffffffffffffffffff1660601b815260140193505050506040516020818303038152906040528051906020012090505b6126b98b828c8c8c8c8c8c612a9d565b61272b576040517f08c379a00000000000000000000000000000000000000000000000000000000081526004018080602001828103825260178152602001807f4845583a205369676e6174757265206d69736d6174636800000000000000000081525060200191505060405180910390fd5b5060006127398a8a8a611335565b905060056000826bffffffffffffffffffffffff19166bffffffffffffffffffffffff1916815260200190815260200160002060009054906101000a900460ff16156127d0576040517f08c379a000000000000000000000000000000000000000000000000000000000815260040180806020018281038252602881526020018061673c6028913960400191505060405180910390fd5b61281c818f8f8f80806020026020016040519081016040528093929190818152602001838360200280828437600081840152601f19601f820116905080830192505050505050506147e2565b612871576040517f08c379a00000000000000000000000000000000000000000000000000000000081526004018080602001828103825260238152602001806167196023913960400191505060405180910390fd5b600160056000836bffffffffffffffffffffffff19166bffffffffffffffffffffffff1916815260200190815260200160002060006101000a81548160ff0219169083151502179055506128c98e8c838b8888614a48565b9150509c9b505050505050505050505050565b600061299f6128e9612e7b565b8461299a856040518060600160405280602581526020016168666025913960016000612913612e7b565b73ffffffffffffffffffffffffffffffffffffffff1673ffffffffffffffffffffffffffffffffffffffff16815260200190815260200160002060008a73ffffffffffffffffffffffffffffffffffffffff1673ffffffffffffffffffffffffffffffffffffffff168152602001908152602001600020546133309092919063ffffffff16565b612e83565b6001905092915050565b60006129bd6129b6612e7b565b848461307a565b6001905092915050565b60038060000160009054906101000a900468ffffffffffffffffff16908060000160099054906101000a900468ffffffffffffffffff16908060000160129054906101000a900464ffffffffff16908060000160179054906101000a900468ffffffffffffffffff16908060010160009054906101000a900461ffff16908060010160029054906101000a900468ffffffffffffffffff169080600101600b9054906101000a900464ffffffffff16908060010160109054906101000a90046fffffffffffffffffffffffffffffffff16905088565b6000601b8460ff1610158015612ab75750601e8460ff1611155b612b29576040517f08c379a000000000000000000000000000000000000000000000000000000000815260040180806020018281038252600e8152602001807f4845583a207620696e76616c696400000000000000000000000000000000000081525060200191505060405180910390fd5b6000612b3588886115ca565b90506000612b4c612b478c8c8a614a8e565b614e70565b90508173ffffffffffffffffffffffffffffffffffffffff1660018288888860405160008152602001604052604051808581526020018460ff1660ff1681526020018381526020018281526020019450505050506020604051602081039080840390855afa158015612bc2573d6000803e3d6000fd5b5050506020604051035173ffffffffffffffffffffffffffffffffffffffff16149250505098975050505050505050565b6000600160008473ffffffffffffffffffffffffffffffffffffffff1673ffffffffffffffffffffffffffffffffffffffff16815260200190815260200160002060008373ffffffffffffffffffffffffffffffffffffffff1673ffffffffffffffffffffffffffffffffffffffff16815260200190815260200160002054905092915050565b6000612cc88585858580806020026020016040519081016040528093929190818152602001838360200280828437600081840152601f19601f820116905080830192505050505050506147e2565b9050949350505050565b612cda6165c6565b6000806000612d09600360010160109054906101000a90046fffffffffffffffffffffffffffffffff16614fd2565b809350819450829550505050604051806101a00160405280600360000160009054906101000a900468ffffffffffffffffff1668ffffffffffffffffff168152602001600360000160099054906101000a900468ffffffffffffffffff1668ffffffffffffffffff168152602001600360000160129054906101000a900464ffffffffff1664ffffffffff168152602001600360000160179054906101000a900468ffffffffffffffffff1668ffffffffffffffffff168152602001600360010160009054906101000a900461ffff1661ffff168152602001600360010160029054906101000a900468ffffffffffffffffff1668ffffffffffffffffff1681526020016003600101600b9054906101000a900464ffffffffff1664ffffffffff168152602001828152602001838152602001848152602001428152602001612e50611132565b815260200160086000612e616145ee565b815260200190815260200160002054815250935050505090565b600033905090565b600073ffffffffffffffffffffffffffffffffffffffff168373ffffffffffffffffffffffffffffffffffffffff161415612f09576040517f08c379a000000000000000000000000000000000000000000000000000000000815260040180806020018281038252602481526020018061681d6024913960400191505060405180910390fd5b600073ffffffffffffffffffffffffffffffffffffffff168273ffffffffffffffffffffffffffffffffffffffff161415612f8f576040517f08c379a00000000000000000000000000000000000000000000000000000000081526004018080602001828103825260228152602001806166766022913960400191505060405180910390fd5b80600160008573ffffffffffffffffffffffffffffffffffffffff1673ffffffffffffffffffffffffffffffffffffffff16815260200190815260200160002060008473ffffffffffffffffffffffffffffffffffffffff1673ffffffffffffffffffffffffffffffffffffffff168152602001908152602001600020819055508173ffffffffffffffffffffffffffffffffffffffff168373ffffffffffffffffffffffffffffffffffffffff167f8c5be1e5ebec7d5bd14f71427d1e84f3dd0314c0f7b2291e5b200ac8c7c3b925836040518082815260200191505060405180910390a3505050565b600073ffffffffffffffffffffffffffffffffffffffff168373ffffffffffffffffffffffffffffffffffffffff161415613100576040517f08c379a00000000000000000000000000000000000000000000000000000000081526004018080602001828103825260258152602001806167f86025913960400191505060405180910390fd5b600073ffffffffffffffffffffffffffffffffffffffff168273ffffffffffffffffffffffffffffffffffffffff161415613186576040517f08c379a000000000000000000000000000000000000000000000000000000000815260040180806020018281038252602381526020018061660b6023913960400191505060405180910390fd5b6131f1816040518060600160405280602681526020016166f3602691396000808773ffffffffffffffffffffffffffffffffffffffff1673ffffffffffffffffffffffffffffffffffffffff168152602001908152602001600020546133309092919063ffffffff16565b6000808573ffffffffffffffffffffffffffffffffffffffff1673ffffffffffffffffffffffffffffffffffffffff16815260200190815260200160002081905550613284816000808573ffffffffffffffffffffffffffffffffffffffff1673ffffffffffffffffffffffffffffffffffffffff1681526020019081526020016000205461420a90919063ffffffff16565b6000808473ffffffffffffffffffffffffffffffffffffffff1673ffffffffffffffffffffffffffffffffffffffff168152602001908152602001600020819055508173ffffffffffffffffffffffffffffffffffffffff168373ffffffffffffffffffffffffffffffffffffffff167fddf252ad1be2c89b69c2b068fc378daa952ba7f163c4a11628f55a4df523b3ef836040518082815260200191505060405180910390a3505050565b60008383111582906133dd576040517f08c379a00000000000000000000000000000000000000000000000000000000081526004018080602001828103825283818151815260200191508051906020019080838360005b838110156133a2578082015181840152602081019050613387565b50505050905090810190601f1680156133cf5780820380516001836020036101000a031916815260200191505b509250505060405180910390fd5b5060008385039050809150509392505050565b6000613420827f4e831acb4223b66de3b3d2e54a2edeefb0de3d7916e2886a4b134d9764d41bec60001b85615069565b905092915050565b600060036002836040518082805190602001908083835b60208310613462578051825260208201915060208101905060208303925061343f565b6001836020036101000a038019825116818451168082178552505050505050905001915050602060405180830381855afa1580156134a4573d6000803e3d6000fd5b5050506040513d60208110156134b957600080fd5b8101908080519060200190929190505050604051602001808281526020019150506040516020818303038152906040526040518082805190602001908083835b6020831061351c57805182526020820191506020810190506020830392506134f9565b6001836020036101000a038019825116818451168082178552505050505050905001915050602060405180830381855afa15801561355e573d6000803e3d6000fd5b5050506040515160601b9050919050565b600360000160009054906101000a900468ffffffffffffffffff1668ffffffffffffffffff16826000018181525050600360000160099054906101000a900468ffffffffffffffffff1668ffffffffffffffffff16826020018181525050600360000160129054906101000a900464ffffffffff1664ffffffffff16826040018181525050600360000160179054906101000a900468ffffffffffffffffff1668ffffffffffffffffff16826060018181525050600360010160009054906101000a900461ffff1661ffff16826080018181525050600360010160029054906101000a900468ffffffffffffffffff1668ffffffffffffffffff168260a00181815250506003600101600b9054906101000a900464ffffffffff168260c0019064ffffffffff16908164ffffffffff16815250506136cd600360010160109054906101000a90046fffffffffffffffffffffffffffffffff16614fd2565b846101200185610100018660e0018381525083815250838152505050506136f26145ee565b826101400181815250506137068282615122565b5050565b8260000160009054906101000a900464ffffffffff1664ffffffffff168264ffffffffff16146137a2576040517f08c379a000000000000000000000000000000000000000000000000000000000815260040180806020018281038252601e8152602001807f4845583a207374616b654964506172616d206e6f7420696e207374616b65000081525060200191505060405180910390fd5b8260000160009054906101000a900464ffffffffff16816000019064ffffffffff16908164ffffffffff16815250508260000160059054906101000a900468ffffffffffffffffff1668ffffffffffffffffff1681602001818152505082600001600e9054906101000a900468ffffffffffffffffff1668ffffffffffffffffff168160400181815250508260000160179054906101000a900461ffff1661ffff168160600181815250508260000160199054906101000a900461ffff1661ffff1681608001818152505082600001601b9054906101000a900461ffff1661ffff168160a001818152505082600001601d9054906101000a900460ff168160c0019015159081151581525050505050565b6138c481826101400151600161496a565b50565b80604001518260a00181815103915081815250508161014001518160a00181815250505050565b600080600080856080015185101561392f576139198787606001518860800151888a604001516151c6565b809350819450505082866020015101935061396f565b6139498787604001518860600151888a606001510161529c565b925082866020015101935061396c866060015187608001518860a00151876153e8565b91505b60008214613995578382111561398b5783905060009350613994565b81905080840393505b5b83838383935093509350935093509350935093565b8664ffffffffff163373ffffffffffffffffffffffffffffffffffffffff167f72d9c5a7ab13846e08d9c838f9e866a1bb4a66a2fd3ba3c9e7da3cf9e394dfd760b88768ffffffffffffffffff16901b60708968ffffffffffffffffff16901b60288b68ffffffffffffffffff16901b4264ffffffffff1617171784613a31576000613a3f565b6b0100000000000000000000005b6bffffffffffffffffffffffff1660488761ffff16901b8868ffffffffffffffffff161717604051808381526020018281526020019250505060405180910390a350505050505050565b600060028281613a9557fe5b04905060008114613abf57613abe739a6a414d6f3497c05e3b1de90520765fa1e07c0382613ad9565b5b808203905080836060018181510191508181525050505050565b600073ffffffffffffffffffffffffffffffffffffffff168273ffffffffffffffffffffffffffffffffffffffff161415613b7c576040517f08c379a000000000000000000000000000000000000000000000000000000000815260040180806020018281038252601f8152602001807f45524332303a206d696e7420746f20746865207a65726f20616464726573730081525060200191505060405180910390fd5b613b918160025461420a90919063ffffffff16565b600281905550613be8816000808573ffffffffffffffffffffffffffffffffffffffff1673ffffffffffffffffffffffffffffffffffffffff1681526020019081526020016000205461420a90919063ffffffff16565b6000808473ffffffffffffffffffffffffffffffffffffffff1673ffffffffffffffffffffffffffffffffffffffff168152602001908152602001600020819055508173ffffffffffffffffffffffffffffffffffffffff16600073ffffffffffffffffffffffffffffffffffffffff167fddf252ad1be2c89b69c2b068fc378daa952ba7f163c4a11628f55a4df523b3ef836040518082815260200191505060405180910390a35050565b8160200151811115613d0f576000613cb0828460800151615425565b905060008360400151620186a08385010281613cc857fe5b049050600160286001901b03811115613ce757600160286001901b0390505b8460400151811115613d0c5780856040018181525050613d0b81856000015161551b565b5b50505b505050565b600060018380549050039050808214613edd57828181548110613d3357fe5b90600052602060002001838381548110613d4957fe5b906000526020600020016000820160009054906101000a900464ffffffffff168160000160006101000a81548164ffffffffff021916908364ffffffffff1602179055506000820160059054906101000a900468ffffffffffffffffff168160000160056101000a81548168ffffffffffffffffff021916908368ffffffffffffffffff16021790555060008201600e9054906101000a900468ffffffffffffffffff1681600001600e6101000a81548168ffffffffffffffffff021916908368ffffffffffffffffff1602179055506000820160179054906101000a900461ffff168160000160176101000a81548161ffff021916908361ffff1602179055506000820160199054906101000a900461ffff168160000160196101000a81548161ffff021916908361ffff16021790555060008201601b9054906101000a900461ffff1681600001601b6101000a81548161ffff021916908361ffff16021790555060008201601d9054906101000a900460ff1681600001601d6101000a81548160ff0219169083151502179055509050505b82805480613ee757fe5b60019003818190600052602060002001600080820160006101000a81549064ffffffffff02191690556000820160056101000a81549068ffffffffffffffffff021916905560008201600e6101000a81549068ffffffffffffffffff02191690556000820160176101000a81549061ffff02191690556000820160196101000a81549061ffff021916905560008201601b6101000a81549061ffff021916905560008201601d6101000a81549060ff021916905550509055505050565b80600001518260000151141580613fc357508060200151826020015114155b80613fd657508060400151826040015114155b80613fe957508060600151826060015114155b156140af578160000151600360000160006101000a81548168ffffffffffffffffff021916908368ffffffffffffffffff1602179055508160200151600360000160096101000a81548168ffffffffffffffffff021916908368ffffffffffffffffff1602179055508160400151600360000160126101000a81548164ffffffffff021916908364ffffffffff1602179055508160600151600360000160176101000a81548168ffffffffffffffffff021916908368ffffffffffffffffff1602179055505b806080015182608001511415806140ce57508060a001518260a0015114155b806140ef57508060c0015164ffffffffff168260c0015164ffffffffff1614155b8061410257508060e001518260e0015114155b80614117575080610100015182610100015114155b8061412c575080610120015182610120015114155b15614206578160800151600360010160006101000a81548161ffff021916908361ffff1602179055508160a00151600360010160026101000a81548168ffffffffffffffffff021916908368ffffffffffffffffff1602179055508160c001516003600101600b6101000a81548164ffffffffff021916908364ffffffffff1602179055506141ca8261012001518361010001518460e00151615572565b600360010160106101000a8154816fffffffffffffffffffffffffffffffff02191690836fffffffffffffffffffffffffffffffff1602179055505b5050565b600080828401905083811015614288576040517f08c379a000000000000000000000000000000000000000000000000000000000815260040180806020018281038252601b8152602001807f536166654d6174683a206164646974696f6e206f766572666c6f77000000000081525060200191505060405180910390fd5b8091505092915050565b6115b38211156142ed576040517f08c379a000000000000000000000000000000000000000000000000000000000815260040180806020018281038252602681526020018061678c6026913960400191505060405180910390fd5b60006142f98484615425565b905060008560400151620186a0838701028161431157fe5b049050600081141561436e576040517f08c379a00000000000000000000000000000000000000000000000000000000081526004018080602001828103825260378152602001806166bc6037913960400191505060405180910390fd5b600060018761014001511061438b57600187610140015101614390565b600180015b905060008760c001805160010164ffffffffff16908164ffffffffff1681525090506143ff600760003373ffffffffffffffffffffffffffffffffffffffff1673ffffffffffffffffffffffffffffffffffffffff168152602001908152602001600020828986868b8b615598565b61440c818885898961573f565b82886020018181510191508181525050868860000181815101915081815250505050505050505050565b600073ffffffffffffffffffffffffffffffffffffffff168273ffffffffffffffffffffffffffffffffffffffff1614156144bc576040517f08c379a00000000000000000000000000000000000000000000000000000000081526004018080602001828103825260218152602001806167b26021913960400191505060405180910390fd5b61452781604051806060016040528060228152602001616654602291396000808673ffffffffffffffffffffffffffffffffffffffff1673ffffffffffffffffffffffffffffffffffffffff168152602001908152602001600020546133309092919063ffffffff16565b6000808473ffffffffffffffffffffffffffffffffffffffff1673ffffffffffffffffffffffffffffffffffffffff1681526020019081526020016000208190555061457e8160025461581490919063ffffffff16565b600281905550600073ffffffffffffffffffffffffffffffffffffffff168273ffffffffffffffffffffffffffffffffffffffff167fddf252ad1be2c89b69c2b068fc378daa952ba7f163c4a11628f55a4df523b3ef836040518082815260200191505060405180910390a35050565b600062015180635de5a58042038161460257fe5b04905090565b3373ffffffffffffffffffffffffffffffffffffffff168564ffffffffff168773ffffffffffffffffffffffffffffffffffffffff167fd824970a2cf19cc2b630c87ce5b00f67301cac3ac60513d027c7a39129f93b4660b88668ffffffffffffffffff16901b60708868ffffffffffffffffff16901b60288a68ffffffffffffffffff16901b4264ffffffffff161717178568ffffffffffffffffff16604051808381526020018281526020019250505060405180910390a4505050505050565b80600001518260000160006101000a81548164ffffffffff021916908364ffffffffff16021790555080602001518260000160056101000a81548168ffffffffffffffffff021916908368ffffffffffffffffff160217905550806040015182600001600e6101000a81548168ffffffffffffffffff021916908368ffffffffffffffffff16021790555080606001518260000160176101000a81548161ffff021916908361ffff16021790555080608001518260000160196101000a81548161ffff021916908361ffff1602179055508060a0015182600001601b6101000a81548161ffff021916908361ffff1602179055508060c0015182600001601d6101000a81548160ff0219169083151502179055505050565b600080602d6001602d6060036001901b03901b8360008151811061480257fe5b602002602001015160001c1614614881576040517f08c379a00000000000000000000000000000000000000000000000000000000081526004018080602001828103825260128152602001807f4845583a2070726f6f6620696e76616c6964000000000000000000000000000081525060200191505060405180910390fd5b6000600190505b825181101561493c576000602d6001602d6060036001901b03901b8483815181106148af57fe5b602002602001015160001c16141561492f576040517f08c379a00000000000000000000000000000000000000000000000000000000081526004018080602001828103825260128152602001807f4845583a2070726f6f6620696e76616c6964000000000000000000000000000081525060200191505060405180910390fd5b8080600101915050614888565b5060008360001b856bffffffffffffffffffffffff191617905061496081846133f0565b9150509392505050565b8183608001511061497a57614a43565b6149826165e9565b836000015161498f611132565b018160000181815250506000846080015190506149ad85838361585e565b60008560200151146149d95784602001518560a001818151019150818152505060008560200181815250505b5b838160010191508110156149f8576149f385838361585e565b6149da565b614a0785608001518285615933565b808560800181815250506000826020015114614a4057614a3f739a6a414d6f3497c05e3b1de90520765fa1e07c038360200151613ad9565b5b50505b505050565b6000614a5261651f565b614a5a61651f565b614a64828261356f565b614a73828a8a8a8a8a8a6159c6565b9250614a7f8282613fa4565b82925050509695505050505050565b60608060006001841660ff161415614adb576040518060400160405280600f81526020017f436c61696d5f4845585f746f5f30780000000000000000000000000000000000815250614b12565b6040518060400160405280601681526020017f436c61696d5f426974636f696e4845585f746f5f3078000000000000000000008152505b90506000806010851660ff161490506060614b2d8783615ba4565b90506000801b861415614c6a5760187f426974636f696e205369676e6564204d6573736167653a0a000000000000000060026014028551018584604051602001808660ff1660ff1660f81b81526001018567ffffffffffffffff191667ffffffffffffffff191681526018018460ff1660ff1660f81b815260010183805190602001908083835b60208310614bd75780518252602082019150602081019050602083039250614bb4565b6001836020036101000a03801982511681845116808217855250505050505090500182805190602001908083835b60208310614c285780518252602082019150602081019050602083039250614c05565b6001836020036101000a038019825116818451168082178552505050505050905001955050505050506040516020818303038152906040529350505050614e69565b60606002600c0260ff166040519080825280601f01601f191660200182016040528015614ca65781602001600182028038833980820191505090505b509050614cb88188600c60ff16615c8b565b60187f426974636f696e205369676e6564204d6573736167653a0a00000000000000006002600c02600160026014028851010101868585604051602001808760ff1660ff1660f81b81526001018667ffffffffffffffff191667ffffffffffffffff191681526018018560ff1660ff1660f81b815260010184805190602001908083835b60208310614d5f5780518252602082019150602081019050602083039250614d3c565b6001836020036101000a03801982511681845116808217855250505050505090500183805190602001908083835b60208310614db05780518252602082019150602081019050602083039250614d8d565b6001836020036101000a038019825116818451168082178552505050505050905001807f5f0000000000000000000000000000000000000000000000000000000000000081525060010182805190602001908083835b60208310614e295780518252602082019150602081019050602083039250614e06565b6001836020036101000a03801982511681845116808217855250505050505090500196505050505050506040516020818303038152906040529450505050505b9392505050565b6000600280836040518082805190602001908083835b60208310614ea95780518252602082019150602081019050602083039250614e86565b6001836020036101000a038019825116818451168082178552505050505050905001915050602060405180830381855afa158015614eeb573d6000803e3d6000fd5b5050506040513d6020811015614f0057600080fd5b8101908080519060200190929190505050604051602001808281526020019150506040516020818303038152906040526040518082805190602001908083835b60208310614f635780518252602082019150602081019050602083039250614f40565b6001836020036101000a038019825116818451168082178552505050505050905001915050602060405180830381855afa158015614fa5573d6000803e3d6000fd5b5050506040513d6020811015614fba57600080fd5b81019080805190602001909291905050509050919050565b60008060006002603302846fffffffffffffffffffffffffffffffff16901c6fffffffffffffffffffffffffffffffff169250600160336001901b036033856fffffffffffffffffffffffffffffffff16901c6fffffffffffffffffffffffffffffffff16169150600160336001901b03846fffffffffffffffffffffffffffffffff161690508282829250925092509193909250565b60008082905060008090505b855181101561511457600086828151811061508c57fe5b60200260200101519050808310156150d45782816040516020018083815260200182815260200192505050604051602081830303815290604052805190602001209250615106565b808360405160200180838152602001828152602001925050506040516020818303038152906040528051906020012092505b508080600101915050615075565b508381149150509392505050565b816000015181600001818152505081602001518160200181815250508160400151816040018181525050816060015181606001818152505081608001518160800181815250508160a001518160a00181815250508160c001518160c0019064ffffffffff16908164ffffffffff16815250508160e001518160e001818152505081610100015181610100018181525050816101200151816101200181815250505050565b600080600084870190506000600260018801816151df57fe5b049050605a8110156151f057605a90505b600086141561521b5760006152068a878b615dbc565b90508181029350848494509450505050615292565b8581101561525c57600081890190506152368a878b8461529c565b935060006152468b88848761529c565b9050808501955085859550955050505050615292565b61526889868a8561529c565b93508581141561527a57839250615289565b858185028161528557fe5b0492505b83839350935050505b9550959350505050565b6000808390505b82811015615334576006600082815260200190815260200160002060000160099054906101000a900468ffffffffffffffffff1668ffffffffffffffffff16856006600084815260200190815260200160002060000160009054906101000a900468ffffffffffffffffff1668ffffffffffffffffff16028161532257fe5b048201915080806001019150506152a3565b50600160076032026001010183111580156153585750600160076032026001010182115b156153dd576000600660006001600760320260010101815260200190815260200160002060000160099054906101000a900468ffffffffffffffffff1668ffffffffffffffffff16856127106305f5e100600860ff16600a0a816153b857fe5b04028860e001510202816153c857fe5b0490506153d58682615e82565b810182019150505b809050949350505050565b600080600760020285870101905080841161540757600091505061541d565b600760640281850384028161541857fe5b049150505b949350505050565b60008060009050600183111561547d57606460c86014618e308161544557fe5b04028161544e57fe5b0483111561547557606460c86014618e308161546657fe5b04028161546f57fe5b0461547a565b600183035b90505b6000600860ff16600a0a6308f0d180028511156154a757600860ff16600a0a6308f0d180026154a9565b845b90506014618e30816154b757fe5b048102600a6064600860ff16600a0a6308f0d1800202816154d457fe5b048302019250600a6064600860ff16600a0a6308f0d1800202816154f457fe5b046014618e308161550157fe5b04028386028161550d57fe5b049250829250505092915050565b8064ffffffffff167f9861fa0ed101659f7a59b4583fcc798dfa4f3b419bea371c8ee2ad0ffe13a31e60288464ffffffffff16901b4264ffffffffff16176040518082815260200191505060405180910390a25050565b600080600260330285901b9050603384901b811790508281179050809150509392505050565b866040518060e001604052808864ffffffffff1681526020018768ffffffffffffffffff1681526020018668ffffffffffffffffff1681526020018561ffff1681526020018461ffff168152602001600061ffff16815260200183151581525090806001815401808255809150509060018203906000526020600020016000909192909190915060008201518160000160006101000a81548164ffffffffff021916908364ffffffffff16021790555060208201518160000160056101000a81548168ffffffffffffffffff021916908368ffffffffffffffffff160217905550604082015181600001600e6101000a81548168ffffffffffffffffff021916908368ffffffffffffffffff16021790555060608201518160000160176101000a81548161ffff021916908361ffff16021790555060808201518160000160196101000a81548161ffff021916908361ffff16021790555060a082015181600001601b6101000a81548161ffff021916908361ffff16021790555060c082015181600001601d6101000a81548160ff02191690831515021790555050505050505050505050565b8464ffffffffff163373ffffffffffffffffffffffffffffffffffffffff167f14872dc760f33532684e68e1b6d5fd3f71ba7b07dee76bdb2b084f28b74233ef8361578b5760006157a7565b7901000000000000000000000000000000000000000000000000005b79ffffffffffffffffffffffffffffffffffffffffffffffffffff1660b88661ffff16901b60708868ffffffffffffffffff16901b60288a68ffffffffffffffffff16901b4264ffffffffff16171717176040518082815260200191505060405180910390a35050505050565b600061585683836040518060400160405280601e81526020017f536166654d6174683a207375627472616374696f6e206f766572666c6f770000815250613330565b905092915050565b615869838383615ec5565b81604001516006600083815260200190815260200160002060000160006101000a81548168ffffffffffffffffff021916908368ffffffffffffffffff1602179055508260a001516006600083815260200190815260200160002060000160096101000a81548168ffffffffffffffffff021916908368ffffffffffffffffff1602179055508260e001516006600083815260200190815260200160002060000160126101000a81548166ffffffffffffff021916908366ffffffffffffff160217905550505050565b3373ffffffffffffffffffffffffffffffffffffffff167fb8d6eb541ded1720cc657b719f57abcb1fe4711cb7ead82751b135f5d94bc94482615977576000615983565b69010000000000000000005b69ffffffffffffffffffff1660388561ffff16901b60288761ffff16901b4264ffffffffff161717176040518082815260200191505060405180910390a2505050565b600060018861014001511015615a27576040517f08c379a00000000000000000000000000000000000000000000000000000000081526004018080602001828103825260248152602001806166986024913960400191505060405180910390fd5b600760320260010188610140015110615aa8576040517f08c379a000000000000000000000000000000000000000000000000000000000815260040180806020018281038252601a8152602001807f4845583a20436c61696d2070686173652068617320656e64656400000000000081525060200191505060405180910390fd5b615ab1886138b3565b6301ab362e88610120015110615b2f576040517f08c379a000000000000000000000000000000000000000000000000000000000815260040180806020018281038252601e8152602001807f4845583a2043484b3a205f636c61696d656442746341646472436f756e74000081525060200191505060405180910390fd5b6000806000615b3e8b8b615faa565b9250925092508a61012001805180919060010181525050615b658989898d8787878c6160b8565b935060006064605a860281615b7657fe5b049050615b868c82896001614292565b615b928a828703613ad9565b84945050505050979650505050505050565b6060600260140260ff166040519080825280601f01601f191660200182016040528015615be05781602001600182028038833980820191505090505b509050615c04818460601b6bffffffffffffffffffffffff1916601460ff16615c8b565b8115615c8257600081805190602001209050600080905060008090505b601460ff16811015615c7e576000838260208110615c3b57fe5b1a60f81b60f81c9050615c5c858480600101955060048460ff16901c6161cf565b615c708584806001019550600f84166161cf565b508080600101915050615c21565b5050505b80905092915050565b600080905060008090505b82811015615db5576000848260208110615cac57fe5b1a60f81b60f81c90507f303132333435363738396162636465660000000000000000000000000000000060048260ff16901c60ff1660108110615ceb57fe5b1a60f81b868480600101955081518110615d0157fe5b60200101907effffffffffffffffffffffffffffffffffffffffffffffffffffffffffffff1916908160001a9053507f3031323334353637383961626364656600000000000000000000000000000000600f821660ff1660108110615d6257fe5b1a60f81b868480600101955081518110615d7857fe5b60200101907effffffffffffffffffffffffffffffffffffffffffffffffffffffffffffff1916908160001a905350508080600101915050615c96565b5050505050565b6000615dc661651f565b615dd08582615122565b615dd86165e9565b8560000151615de5611132565b01816000018181525050615dfa828286615ec5565b848260a00181815101915081815250508160a001518582604001510281615e1d57fe5b0492506001600760320260010101841415615e765760008260a00151866127106305f5e100600860ff16600a0a81615e5157fe5b04028560e00151020281615e6157fe5b049050615e6e8382615e82565b810184019350505b82925050509392505050565b6000806301ab362e846101200151840281615e9957fe5b049050600066033bb85fc52d99856101000151850281615eb557fe5b0490508082019250505092915050565b6305fcbae361271083600001510281615eda57fe5b048260400181815250506007603202600101811015615f7957600060076032026127106305f5e100600860ff16600a0a81615f1157fe5b04028560e001510281615f2057fe5b0490506000615f358583866040015101615e82565b820190508084602001818151019150818152505080846000018181510191508181525050615f67858560400151615e82565b84604001818151019150818152505050505b6000836060015114615fa557826060015182604001818151019150818152505060008360600181815250505b505050565b6000806000615fb88461628e565b925066033bb85fc52d998386610100015101111561603e576040517f08c379a000000000000000000000000000000000000000000000000000000000815260040180806020018281038252601f8152602001807f4845583a2043484b3a205f636c61696d65645361746f73686973546f74616c0081525060200191505060405180910390fd5b82856101000181815101915081815250506000856101400151600760320260010103905061606c84826162e5565b9350838660e00181815103915081815250506127106305f5e100600860ff16600a0a8161609557fe5b0402840292506160a583826162ff565b9150838383935093509350509250925092565b600082840190506000839050600073ffffffffffffffffffffffffffffffffffffffff168373ffffffffffffffffffffffffffffffffffffffff16141561610d576161088a8a8a8a8a8789616322565b6161a1565b6000600a838161611957fe5b049050808301925060006005848161612d57fe5b049050808201830192508b73ffffffffffffffffffffffffffffffffffffffff168573ffffffffffffffffffffffffffffffffffffffff16141561618457808401935061617f8c8c8c8c8c898b616322565b61619e565b6161938c8c8c8c8c898b616322565b61619d8582613ad9565b5b50505b6161bf739a6a414d6f3497c05e3b1de90520765fa1e07c0382613ad9565b8191505098975050505050505050565b60008383815181106161dd57fe5b602001015160f81c60f81b90507f6100000000000000000000000000000000000000000000000000000000000000817effffffffffffffffffffffffffffffffffffffffffffffffffffffffffffff191610158015616240575060088260ff1610155b1561628857602060f81b811884848151811061625857fe5b60200101907effffffffffffffffffffffffffffffffffffffffffffffffffffffffffffff1916908160001a9053505b50505050565b600064174876e8008210156162a5578190506162e0565b64e8d4a5100082106162c357600482816162bb57fe5b0490506162e0565b65034630b8a000826501ba60d33800038302816162dc57fe5b0490505b919050565b60006007603202828402816162f657fe5b04905092915050565b600060056001600760320203026001830384028161631957fe5b04905092915050565b8073ffffffffffffffffffffffffffffffffffffffff168773ffffffffffffffffffffffffffffffffffffffff16876bffffffffffffffffffffffff19167f41e3c7dc6eebc97a48a437ff2afdc629613f12c48ba37a2c94563f80acba972560a08668ffffffffffffffffff16901b60988a60ff16901b60608966ffffffffffffff16901b60288b66ffffffffffffff16901b4264ffffffffff16171717173373ffffffffffffffffffffffffffffffffffffffff16604051808381526020018281526020019250505060405180910390a43373ffffffffffffffffffffffffffffffffffffffff168773ffffffffffffffffffffffffffffffffffffffff16141561642d57616516565b3373ffffffffffffffffffffffffffffffffffffffff167f3a84b2d9dac24683628d63034c6949797f15fab735e16232518ee4e753fd49b760c88666ffffffffffffff16901b60288960601c73ffffffffffffffffffffffffffffffffffffffff16901b4264ffffffffff16171760d88860ff16901b60388b73ffffffffffffffffffffffffffffffffffffffff16901b8766ffffffffffffff16171760488573ffffffffffffffffffffffffffffffffffffffff16901b8668ffffffffffffffffff161760405180848152602001838152602001828152602001935050505060405180910390a25b50505050505050565b604051806101600160405280600081526020016000815260200160008152602001600081526020016000815260200160008152602001600064ffffffffff168152602001600081526020016000815260200160008152602001600081525090565b6040518060e00160405280600064ffffffffff16815260200160008152602001600081526020016000815260200160008152602001600081526020016000151581525090565b604051806101a00160405280600d90602082028038833980820191505090505090565b6040518060600160405280600081526020016000815260200160008152509056fe45524332303a207472616e7366657220746f20746865207a65726f20616464726573734845583a206265666f72654461792063616e6e6f7420626520696e207468652066757475726545524332303a206275726e20616d6f756e7420657863656564732062616c616e636545524332303a20617070726f766520746f20746865207a65726f20616464726573734845583a20436c61696d20706861736520686173206e6f742079657420737461727465644845583a206e65775374616b6564486561727473206d757374206265206174206c65617374206d696e696d756d2073686172655261746545524332303a207472616e7366657220616d6f756e7420657863656564732062616c616e63654845583a204254432061646472657373206f722062616c616e636520756e6b6e6f776e4845583a2042544320616464726573732062616c616e636520616c726561647920636c61696d656445524332303a207472616e7366657220616d6f756e74206578636565647320616c6c6f77616e63654845583a206e65775374616b65644461797320686967686572207468616e206d6178696d756d45524332303a206275726e2066726f6d20746865207a65726f20616464726573734845583a206175746f5374616b6544617973206c6f776572207468616e206d696e696d756d45524332303a207472616e736665722066726f6d20746865207a65726f206164647265737345524332303a20617070726f76652066726f6d20746865207a65726f20616464726573734845583a206e65775374616b656444617973206c6f776572207468616e206d696e696d756d45524332303a2064656372656173656420616c6c6f77616e63652062656c6f77207a65726fa265627a7a72315820f80832895b28088c3bc95d0455653bd0d4e750a7d9e3cf84c3e38e19e6efc92b64736f6c634300050d0032",
  "linkReferences": {},
  "deployedLinkReferences": {}
}