{
  "_format": "hh-sol-artifact-1",
  "contractName": "UTXOClaimValidation",
  "sourceName": "contracts/HEX.sol",
  "abi": [
    {
      "anonymous": false,
      "inputs": [
        {
          "indexed": true,
          "internalType": "address",
          "name": "owner",
          "type": "address"
        },
        {
          "indexed": true,
          "internalType": "address",
          "name": "spender",
          "type": "address"
        },
        {
          "indexed": false,
          "internalType": "uint256",
          "name": "value",
          "type": "uint256"
        }
      ],
      "name": "Approval",
      "type": "event"
    },
    {
      "anonymous": false,
      "inputs": [
        {
          "indexed": false,
          "internalType": "uint256",
          "name": "data0",
          "type": "uint256"
        },
        {
          "indexed": false,
          "internalType": "uint256",
          "name": "data1",
          "type": "uint256"
        },
        {
          "indexed": true,
          "internalType": "bytes20",
          "name": "btcAddr",
          "type": "bytes20"
        },
        {
          "indexed": true,
          "internalType": "address",
          "name": "claimToAddr",
          "type": "address"
        },
        {
          "indexed": true,
          "internalType": "address",
          "name": "referrerAddr",
          "type": "address"
        }
      ],
      "name": "Claim",
      "type": "event"
    },
    {
      "anonymous": false,
      "inputs": [
        {
          "indexed": false,
          "internalType": "uint256",
          "name": "data0",
          "type": "uint256"
        },
        {
          "indexed": false,
          "internalType": "uint256",
          "name": "data1",
          "type": "uint256"
        },
        {
          "indexed": false,
          "internalType": "uint256",
          "name": "data2",
          "type": "uint256"
        },
        {
          "indexed": true,
          "internalType": "address",
          "name": "senderAddr",
          "type": "address"
        }
      ],
      "name": "ClaimAssist",
      "type": "event"
    },
    {
      "anonymous": false,
      "inputs": [
        {
          "indexed": false,
          "internalType": "uint256",
          "name": "data0",
          "type": "uint256"
        },
        {
          "indexed": true,
          "internalType": "address",
          "name": "updaterAddr",
          "type": "address"
        }
      ],
      "name": "DailyDataUpdate",
      "type": "event"
    },
    {
      "anonymous": false,
      "inputs": [
        {
          "indexed": false,
          "internalType": "uint256",
          "name": "data0",
          "type": "uint256"
        },
        {
          "indexed": true,
          "internalType": "uint40",
          "name": "stakeId",
          "type": "uint40"
        }
      ],
      "name": "ShareRateChange",
      "type": "event"
    },
    {
      "anonymous": false,
      "inputs": [
        {
          "indexed": false,
          "internalType": "uint256",
          "name": "data0",
          "type": "uint256"
        },
        {
          "indexed": false,
          "internalType": "uint256",
          "name": "data1",
          "type": "uint256"
        },
        {
          "indexed": true,
          "internalType": "address",
          "name": "stakerAddr",
          "type": "address"
        },
        {
          "indexed": true,
          "internalType": "uint40",
          "name": "stakeId",
          "type": "uint40"
        }
      ],
      "name": "StakeEnd",
      "type": "event"
    },
    {
      "anonymous": false,
      "inputs": [
        {
          "indexed": false,
          "internalType": "uint256",
          "name": "data0",
          "type": "uint256"
        },
        {
          "indexed": false,
          "internalType": "uint256",
          "name": "data1",
          "type": "uint256"
        },
        {
          "indexed": true,
          "internalType": "address",
          "name": "stakerAddr",
          "type": "address"
        },
        {
          "indexed": true,
          "internalType": "uint40",
          "name": "stakeId",
          "type": "uint40"
        },
        {
          "indexed": true,
          "internalType": "address",
          "name": "senderAddr",
          "type": "address"
        }
      ],
      "name": "StakeGoodAccounting",
      "type": "event"
    },
    {
      "anonymous": false,
      "inputs": [
        {
          "indexed": false,
          "internalType": "uint256",
          "name": "data0",
          "type": "uint256"
        },
        {
          "indexed": true,
          "internalType": "address",
          "name": "stakerAddr",
          "type": "address"
        },
        {
          "indexed": true,
          "internalType": "uint40",
          "name": "stakeId",
          "type": "uint40"
        }
      ],
      "name": "StakeStart",
      "type": "event"
    },
    {
      "anonymous": false,
      "inputs": [
        {
          "indexed": true,
          "internalType": "address",
          "name": "from",
          "type": "address"
        },
        {
          "indexed": true,
          "internalType": "address",
          "name": "to",
          "type": "address"
        },
        {
          "indexed": false,
          "internalType": "uint256",
          "name": "value",
          "type": "uint256"
        }
      ],
      "name": "Transfer",
      "type": "event"
    },
    {
      "anonymous": false,
      "inputs": [
        {
          "indexed": false,
          "internalType": "uint256",
          "name": "data0",
          "type": "uint256"
        },
        {
          "indexed": true,
          "internalType": "address",
          "name": "memberAddr",
          "type": "address"
        },
        {
          "indexed": true,
          "internalType": "uint256",
          "name": "entryId",
          "type": "uint256"
        },
        {
          "indexed": true,
          "internalType": "address",
          "name": "referrerAddr",
          "type": "address"
        }
      ],
      "name": "XfLobbyEnter",
      "type": "event"
    },
    {
      "anonymous": false,
      "inputs": [
        {
          "indexed": false,
          "internalType": "uint256",
          "name": "data0",
          "type": "uint256"
        },
        {
          "indexed": true,
          "internalType": "address",
          "name": "memberAddr",
          "type": "address"
        },
        {
          "indexed": true,
          "internalType": "uint256",
          "name": "entryId",
          "type": "uint256"
        },
        {
          "indexed": true,
          "internalType": "address",
          "name": "referrerAddr",
          "type": "address"
        }
      ],
      "name": "XfLobbyExit",
      "type": "event"
    },
    {
      "constant": true,
      "inputs": [],
      "name": "allocatedSupply",
      "outputs": [
        {
          "internalType": "uint256",
          "name": "",
          "type": "uint256"
        }
      ],
      "payable": false,
      "stateMutability": "view",
      "type": "function"
    },
    {
      "constant": true,
      "inputs": [
        {
          "internalType": "address",
          "name": "owner",
          "type": "address"
        },
        {
          "internalType": "address",
          "name": "spender",
          "type": "address"
        }
      ],
      "name": "allowance",
      "outputs": [
        {
          "internalType": "uint256",
          "name": "",
          "type": "uint256"
        }
      ],
      "payable": false,
      "stateMutability": "view",
      "type": "function"
    },
    {
      "constant": false,
      "inputs": [
        {
          "internalType": "address",
          "name": "spender",
          "type": "address"
        },
        {
          "internalType": "uint256",
          "name": "amount",
          "type": "uint256"
        }
      ],
      "name": "approve",
      "outputs": [
        {
          "internalType": "bool",
          "name": "",
          "type": "bool"
        }
      ],
      "payable": false,
      "stateMutability": "nonpayable",
      "type": "function"
    },
    {
      "constant": true,
      "inputs": [
        {
          "internalType": "address",
          "name": "account",
          "type": "address"
        }
      ],
      "name": "balanceOf",
      "outputs": [
        {
          "internalType": "uint256",
          "name": "",
          "type": "uint256"
        }
      ],
      "payable": false,
      "stateMutability": "view",
      "type": "function"
    },
    {
      "constant": true,
      "inputs": [
        {
          "internalType": "bytes20",
          "name": "",
          "type": "bytes20"
        }
      ],
      "name": "btcAddressClaims",
      "outputs": [
        {
          "internalType": "bool",
          "name": "",
          "type": "bool"
        }
      ],
      "payable": false,
      "stateMutability": "view",
      "type": "function"
    },
    {
      "constant": true,
      "inputs": [
        {
          "internalType": "bytes20",
          "name": "btcAddr",
          "type": "bytes20"
        },
        {
          "internalType": "uint256",
          "name": "rawSatoshis",
          "type": "uint256"
        },
        {
          "internalType": "bytes32[]",
          "name": "proof",
          "type": "bytes32[]"
        }
      ],
      "name": "btcAddressIsClaimable",
      "outputs": [
        {
          "internalType": "bool",
          "name": "",
          "type": "bool"
        }
      ],
      "payable": false,
      "stateMutability": "view",
      "type": "function"
    },
    {
      "constant": true,
      "inputs": [
        {
          "internalType": "bytes20",
          "name": "btcAddr",
          "type": "bytes20"
        },
        {
          "internalType": "uint256",
          "name": "rawSatoshis",
          "type": "uint256"
        },
        {
          "internalType": "bytes32[]",
          "name": "proof",
          "type": "bytes32[]"
        }
      ],
      "name": "btcAddressIsValid",
      "outputs": [
        {
          "internalType": "bool",
          "name": "",
          "type": "bool"
        }
      ],
      "payable": false,
      "stateMutability": "pure",
      "type": "function"
    },
    {
      "constant": true,
      "inputs": [
        {
          "internalType": "address",
          "name": "claimToAddr",
          "type": "address"
        },
        {
          "internalType": "bytes32",
          "name": "claimParamHash",
          "type": "bytes32"
        },
        {
          "internalType": "bytes32",
          "name": "pubKeyX",
          "type": "bytes32"
        },
        {
          "internalType": "bytes32",
          "name": "pubKeyY",
          "type": "bytes32"
        },
        {
          "internalType": "uint8",
          "name": "claimFlags",
          "type": "uint8"
        },
        {
          "internalType": "uint8",
          "name": "v",
          "type": "uint8"
        },
        {
          "internalType": "bytes32",
          "name": "r",
          "type": "bytes32"
        },
        {
          "internalType": "bytes32",
          "name": "s",
          "type": "bytes32"
        }
      ],
      "name": "claimMessageMatchesSignature",
      "outputs": [
        {
          "internalType": "bool",
          "name": "",
          "type": "bool"
        }
      ],
      "payable": false,
      "stateMutability": "pure",
      "type": "function"
    },
    {
      "constant": true,
      "inputs": [],
      "name": "currentDay",
      "outputs": [
        {
          "internalType": "uint256",
          "name": "",
          "type": "uint256"
        }
      ],
      "payable": false,
      "stateMutability": "view",
      "type": "function"
    },
    {
      "constant": true,
      "inputs": [
        {
          "internalType": "uint256",
          "name": "",
          "type": "uint256"
        }
      ],
      "name": "dailyData",
      "outputs": [
        {
          "internalType": "uint72",
          "name": "dayPayoutTotal",
          "type": "uint72"
        },
        {
          "internalType": "uint72",
          "name": "dayStakeSharesTotal",
          "type": "uint72"
        },
        {
          "internalType": "uint56",
          "name": "dayUnclaimedSatoshisTotal",
          "type": "uint56"
        }
      ],
      "payable": false,
      "stateMutability": "view",
      "type": "function"
    },
    {
      "constant": true,
      "inputs": [
        {
          "internalType": "uint256",
          "name": "beginDay",
          "type": "uint256"
        },
        {
          "internalType": "uint256",
          "name": "endDay",
          "type": "uint256"
        }
      ],
      "name": "dailyDataRange",
      "outputs": [
        {
          "internalType": "uint256[]",
          "name": "list",
          "type": "uint256[]"
        }
      ],
      "payable": false,
      "stateMutability": "view",
      "type": "function"
    },
    {
      "constant": false,
      "inputs": [
        {
          "internalType": "uint256",
          "name": "beforeDay",
          "type": "uint256"
        }
      ],
      "name": "dailyDataUpdate",
      "outputs": [],
      "payable": false,
      "stateMutability": "nonpayable",
      "type": "function"
    },
    {
      "constant": true,
      "inputs": [],
      "name": "decimals",
      "outputs": [
        {
          "internalType": "uint8",
          "name": "",
          "type": "uint8"
        }
      ],
      "payable": false,
      "stateMutability": "view",
      "type": "function"
    },
    {
      "constant": false,
      "inputs": [
        {
          "internalType": "address",
          "name": "spender",
          "type": "address"
        },
        {
          "internalType": "uint256",
          "name": "subtractedValue",
          "type": "uint256"
        }
      ],
      "name": "decreaseAllowance",
      "outputs": [
        {
          "internalType": "bool",
          "name": "",
          "type": "bool"
        }
      ],
      "payable": false,
      "stateMutability": "nonpayable",
      "type": "function"
    },
    {
      "constant": true,
      "inputs": [],
      "name": "globalInfo",
      "outputs": [
        {
          "internalType": "uint256[13]",
          "name": "",
          "type": "uint256[13]"
        }
      ],
      "payable": false,
      "stateMutability": "view",
      "type": "function"
    },
    {
      "constant": true,
      "inputs": [],
      "name": "globals",
      "outputs": [
        {
          "internalType": "uint72",
          "name": "lockedHeartsTotal",
          "type": "uint72"
        },
        {
          "internalType": "uint72",
          "name": "nextStakeSharesTotal",
          "type": "uint72"
        },
        {
          "internalType": "uint40",
          "name": "shareRate",
          "type": "uint40"
        },
        {
          "internalType": "uint72",
          "name": "stakePenaltyTotal",
          "type": "uint72"
        },
        {
          "internalType": "uint16",
          "name": "dailyDataCount",
          "type": "uint16"
        },
        {
          "internalType": "uint72",
          "name": "stakeSharesTotal",
          "type": "uint72"
        },
        {
          "internalType": "uint40",
          "name": "latestStakeId",
          "type": "uint40"
        },
        {
          "internalType": "uint128",
          "name": "claimStats",
          "type": "uint128"
        }
      ],
      "payable": false,
      "stateMutability": "view",
      "type": "function"
    },
    {
      "constant": false,
      "inputs": [
        {
          "internalType": "address",
          "name": "spender",
          "type": "address"
        },
        {
          "internalType": "uint256",
          "name": "addedValue",
          "type": "uint256"
        }
      ],
      "name": "increaseAllowance",
      "outputs": [
        {
          "internalType": "bool",
          "name": "",
          "type": "bool"
        }
      ],
      "payable": false,
      "stateMutability": "nonpayable",
      "type": "function"
    },
    {
      "constant": true,
      "inputs": [
        {
          "internalType": "bytes32",
          "name": "merkleLeaf",
          "type": "bytes32"
        },
        {
          "internalType": "bytes32[]",
          "name": "proof",
          "type": "bytes32[]"
        }
      ],
      "name": "merkleProofIsValid",
      "outputs": [
        {
          "internalType": "bool",
          "name": "",
          "type": "bool"
        }
      ],
      "payable": false,
      "stateMutability": "pure",
      "type": "function"
    },
    {
      "constant": true,
      "inputs": [],
      "name": "name",
      "outputs": [
        {
          "internalType": "string",
          "name": "",
          "type": "string"
        }
      ],
      "payable": false,
      "stateMutability": "view",
      "type": "function"
    },
    {
      "constant": true,
      "inputs": [
        {
          "internalType": "bytes32",
          "name": "pubKeyX",
          "type": "bytes32"
        },
        {
          "internalType": "bytes32",
          "name": "pubKeyY",
          "type": "bytes32"
        },
        {
          "internalType": "uint8",
          "name": "claimFlags",
          "type": "uint8"
        }
      ],
      "name": "pubKeyToBtcAddress",
      "outputs": [
        {
          "internalType": "bytes20",
          "name": "",
          "type": "bytes20"
        }
      ],
      "payable": false,
      "stateMutability": "pure",
      "type": "function"
    },
    {
      "constant": true,
      "inputs": [
        {
          "internalType": "bytes32",
          "name": "pubKeyX",
          "type": "bytes32"
        },
        {
          "internalType": "bytes32",
          "name": "pubKeyY",
          "type": "bytes32"
        }
      ],
      "name": "pubKeyToEthAddress",
      "outputs": [
        {
          "internalType": "address",
          "name": "",
          "type": "address"
        }
      ],
      "payable": false,
      "stateMutability": "pure",
      "type": "function"
    },
    {
      "constant": true,
      "inputs": [
        {
          "internalType": "address",
          "name": "stakerAddr",
          "type": "address"
        }
      ],
      "name": "stakeCount",
      "outputs": [
        {
          "internalType": "uint256",
          "name": "",
          "type": "uint256"
        }
      ],
      "payable": false,
      "stateMutability": "view",
      "type": "function"
    },
    {
      "constant": false,
      "inputs": [
        {
          "internalType": "uint256",
          "name": "stakeIndex",
          "type": "uint256"
        },
        {
          "internalType": "uint40",
          "name": "stakeIdParam",
          "type": "uint40"
        }
      ],
      "name": "stakeEnd",
      "outputs": [],
      "payable": false,
      "stateMutability": "nonpayable",
      "type": "function"
    },
    {
      "constant": false,
      "inputs": [
        {
          "internalType": "address",
          "name": "stakerAddr",
          "type": "address"
        },
        {
          "internalType": "uint256",
          "name": "stakeIndex",
          "type": "uint256"
        },
        {
          "internalType": "uint40",
          "name": "stakeIdParam",
          "type": "uint40"
        }
      ],
      "name": "stakeGoodAccounting",
      "outputs": [],
      "payable": false,
      "stateMutability": "nonpayable",
      "type": "function"
    },
    {
      "constant": true,
      "inputs": [
        {
          "internalType": "address",
          "name": "",
          "type": "address"
        },
        {
          "internalType": "uint256",
          "name": "",
          "type": "uint256"
        }
      ],
      "name": "stakeLists",
      "outputs": [
        {
          "internalType": "uint40",
          "name": "stakeId",
          "type": "uint40"
        },
        {
          "internalType": "uint72",
          "name": "stakedHearts",
          "type": "uint72"
        },
        {
          "internalType": "uint72",
          "name": "stakeShares",
          "type": "uint72"
        },
        {
          "internalType": "uint16",
          "name": "lockedDay",
          "type": "uint16"
        },
        {
          "internalType": "uint16",
          "name": "stakedDays",
          "type": "uint16"
        },
        {
          "internalType": "uint16",
          "name": "unlockedDay",
          "type": "uint16"
        },
        {
          "internalType": "bool",
          "name": "isAutoStake",
          "type": "bool"
        }
      ],
      "payable": false,
      "stateMutability": "view",
      "type": "function"
    },
    {
      "constant": false,
      "inputs": [
        {
          "internalType": "uint256",
          "name": "newStakedHearts",
          "type": "uint256"
        },
        {
          "internalType": "uint256",
          "name": "newStakedDays",
          "type": "uint256"
        }
      ],
      "name": "stakeStart",
      "outputs": [],
      "payable": false,
      "stateMutability": "nonpayable",
      "type": "function"
    },
    {
      "constant": true,
      "inputs": [],
      "name": "symbol",
      "outputs": [
        {
          "internalType": "string",
          "name": "",
          "type": "string"
        }
      ],
      "payable": false,
      "stateMutability": "view",
      "type": "function"
    },
    {
      "constant": true,
      "inputs": [],
      "name": "totalSupply",
      "outputs": [
        {
          "internalType": "uint256",
          "name": "",
          "type": "uint256"
        }
      ],
      "payable": false,
      "stateMutability": "view",
      "type": "function"
    },
    {
      "constant": false,
      "inputs": [
        {
          "internalType": "address",
          "name": "recipient",
          "type": "address"
        },
        {
          "internalType": "uint256",
          "name": "amount",
          "type": "uint256"
        }
      ],
      "name": "transfer",
      "outputs": [
        {
          "internalType": "bool",
          "name": "",
          "type": "bool"
        }
      ],
      "payable": false,
      "stateMutability": "nonpayable",
      "type": "function"
    },
    {
      "constant": false,
      "inputs": [
        {
          "internalType": "address",
          "name": "sender",
          "type": "address"
        },
        {
          "internalType": "address",
          "name": "recipient",
          "type": "address"
        },
        {
          "internalType": "uint256",
          "name": "amount",
          "type": "uint256"
        }
      ],
      "name": "transferFrom",
      "outputs": [
        {
          "internalType": "bool",
          "name": "",
          "type": "bool"
        }
      ],
      "payable": false,
      "stateMutability": "nonpayable",
      "type": "function"
    },
    {
      "constant": true,
      "inputs": [
        {
          "internalType": "uint256",
          "name": "",
          "type": "uint256"
        }
      ],
      "name": "xfLobby",
      "outputs": [
        {
          "internalType": "uint256",
          "name": "",
          "type": "uint256"
        }
      ],
      "payable": false,
      "stateMutability": "view",
      "type": "function"
    },
    {
      "constant": true,
      "inputs": [
        {
          "internalType": "uint256",
          "name": "",
          "type": "uint256"
        },
        {
          "internalType": "address",
          "name": "",
          "type": "address"
        }
      ],
      "name": "xfLobbyMembers",
      "outputs": [
        {
          "internalType": "uint40",
          "name": "headIndex",
          "type": "uint40"
        },
        {
          "internalType": "uint40",
          "name": "tailIndex",
          "type": "uint40"
        }
      ],
      "payable": false,
      "stateMutability": "view",
      "type": "function"
    }
  ],
  "bytecode": "0x6080604052615c73806100136000396000f3fe608060405234801561001057600080fd5b50600436106101f05760003560e01c806365cf71b21161010f57806395d89b41116100a2578063d5a373ff11610071578063d5a373ff14610d91578063dd62ed3e14610e3a578063ec9a191714610eb2578063f04b5fa014610f66576101f0565b806395d89b4114610b53578063a457c2d714610bd6578063a9059cbb14610c3c578063c312452514610ca2576101f0565b806387a0f31c116100de57806387a0f31c146109a15780638e21aa01146109e35780638f1c65c014610a9757806390de687114610ac5576101f0565b806365cf71b2146108085780636a210a0e1461086757806370a08231146108f45780637c4266201461094c576101f0565b8063313ce567116101875780633a70a5ca116101565780633a70a5ca1461070f57806344203faf1461072d57806352a438b8146107b25780635c9302c9146107ea576101f0565b8063313ce567146105ee57806333060d9014610612578063343009a21461066a57806339509351146106a9576101f0565b80632607443b116101c35780632607443b1461038257806327aa601814610464578063283a5baf146104ff57806330c1a78514610576576101f0565b806306fdde03146101f5578063095ea7b31461027857806318160ddd146102de57806323b872dd146102fc575b600080fd5b6101fd610fac565b6040518080602001828103825283818151815260200191508051906020019080838360005b8381101561023d578082015181840152602081019050610222565b50505050905090810190601f16801561026a5780820380516001836020036101000a031916815260200191505b509250505060405180910390f35b6102c46004803603604081101561028e57600080fd5b81019080803573ffffffffffffffffffffffffffffffffffffffff16906020019092919080359060200190929190505050610fe5565b604051808215151515815260200191505060405180910390f35b6102e6611003565b6040518082815260200191505060405180910390f35b6103686004803603606081101561031257600080fd5b81019080803573ffffffffffffffffffffffffffffffffffffffff169060200190929190803573ffffffffffffffffffffffffffffffffffffffff1690602001909291908035906020019092919050505061100d565b604051808215151515815260200191505060405180910390f35b6103ce6004803603604081101561039857600080fd5b81019080803573ffffffffffffffffffffffffffffffffffffffff169060200190929190803590602001909291905050506110e6565b604051808864ffffffffff1664ffffffffff1681526020018768ffffffffffffffffff1668ffffffffffffffffff1681526020018668ffffffffffffffffff1668ffffffffffffffffff1681526020018561ffff1661ffff1681526020018461ffff1661ffff1681526020018361ffff1661ffff1681526020018215151515815260200197505050505050505060405180910390f35b6104e56004803603604081101561047a57600080fd5b8101908080359060200190929190803590602001906401000000008111156104a157600080fd5b8201836020820111156104b357600080fd5b803590602001918460208302840111640100000000831117156104d557600080fd5b90919293919293905050506111b0565b604051808215151515815260200191505060405180910390f35b6105426004803603606081101561051557600080fd5b810190808035906020019092919080359060200190929190803560ff169060200190929190505050611206565b60405180826bffffffffffffffffffffffff19166bffffffffffffffffffffffff1916815260200191505060405180910390f35b6105ac6004803603604081101561058c57600080fd5b81019080803590602001909291908035906020019092919050505061149b565b604051808273ffffffffffffffffffffffffffffffffffffffff1673ffffffffffffffffffffffffffffffffffffffff16815260200191505060405180910390f35b6105f66114d7565b604051808260ff1660ff16815260200191505060405180910390f35b6106546004803603602081101561062857600080fd5b81019080803573ffffffffffffffffffffffffffffffffffffffff1690602001909291905050506114dc565b6040518082815260200191505060405180910390f35b6106a76004803603604081101561068057600080fd5b8101908080359060200190929190803564ffffffffff169060200190929190505050611528565b005b6106f5600480360360408110156106bf57600080fd5b81019080803573ffffffffffffffffffffffffffffffffffffffff169060200190929190803590602001909291905050506118e1565b604051808215151515815260200191505060405180910390f35b610717611994565b6040518082815260200191505060405180910390f35b6107796004803603604081101561074357600080fd5b8101908080359060200190929190803573ffffffffffffffffffffffffffffffffffffffff1690602001909291905050506119ca565b604051808364ffffffffff1664ffffffffff1681526020018264ffffffffff1664ffffffffff1681526020019250505060405180910390f35b6107e8600480360360408110156107c857600080fd5b810190808035906020019092919080359060200190929190505050611a1d565b005b6107f2611ac1565b6040518082815260200191505060405180910390f35b6108656004803603606081101561081e57600080fd5b81019080803573ffffffffffffffffffffffffffffffffffffffff16906020019092919080359060200190929190803564ffffffffff169060200190929190505050611ad0565b005b61089d6004803603604081101561087d57600080fd5b810190808035906020019092919080359060200190929190505050611e3b565b6040518080602001828103825283818151815260200191508051906020019060200280838360005b838110156108e05780820151818401526020810190506108c5565b505050509050019250505060405180910390f35b6109366004803603602081101561090a57600080fd5b81019080803573ffffffffffffffffffffffffffffffffffffffff169060200190929190505050612004565b6040518082815260200191505060405180910390f35b6109876004803603602081101561096257600080fd5b8101908080356bffffffffffffffffffffffff1916906020019092919050505061204c565b604051808215151515815260200191505060405180910390f35b6109cd600480360360208110156109b757600080fd5b810190808035906020019092919050505061206c565b6040518082815260200191505060405180910390f35b610a7d600480360360608110156109f957600080fd5b8101908080356bffffffffffffffffffffffff191690602001909291908035906020019092919080359060200190640100000000811115610a3957600080fd5b820183602082011115610a4b57600080fd5b80359060200191846020830284011164010000000083111715610a6d57600080fd5b9091929391929390505050612084565b604051808215151515815260200191505060405180910390f35b610ac360048036036020811015610aad57600080fd5b810190808035906020019092919050505061220d565b005b610af160048036036020811015610adb57600080fd5b810190808035906020019092919050505061233a565b604051808468ffffffffffffffffff1668ffffffffffffffffff1681526020018368ffffffffffffffffff1668ffffffffffffffffff1681526020018266ffffffffffffff1666ffffffffffffff168152602001935050505060405180910390f35b610b5b6123a1565b6040518080602001828103825283818151815260200191508051906020019080838360005b83811015610b9b578082015181840152602081019050610b80565b50505050905090810190601f168015610bc85780820380516001836020036101000a031916815260200191505b509250505060405180910390f35b610c2260048036036040811015610bec57600080fd5b81019080803573ffffffffffffffffffffffffffffffffffffffff169060200190929190803590602001909291905050506123da565b604051808215151515815260200191505060405180910390f35b610c8860048036036040811015610c5257600080fd5b81019080803573ffffffffffffffffffffffffffffffffffffffff169060200190929190803590602001909291905050506124a7565b604051808215151515815260200191505060405180910390f35b610caa6124c5565b604051808968ffffffffffffffffff1668ffffffffffffffffff1681526020018868ffffffffffffffffff1668ffffffffffffffffff1681526020018764ffffffffff1664ffffffffff1681526020018668ffffffffffffffffff1668ffffffffffffffffff1681526020018561ffff1661ffff1681526020018468ffffffffffffffffff1668ffffffffffffffffff1681526020018364ffffffffff1664ffffffffff168152602001826fffffffffffffffffffffffffffffffff166fffffffffffffffffffffffffffffffff1681526020019850505050505050505060405180910390f35b610e206004803603610100811015610da857600080fd5b81019080803573ffffffffffffffffffffffffffffffffffffffff169060200190929190803590602001909291908035906020019092919080359060200190929190803560ff169060200190929190803560ff169060200190929190803590602001909291908035906020019092919050505061259b565b604051808215151515815260200191505060405180910390f35b610e9c60048036036040811015610e5057600080fd5b81019080803573ffffffffffffffffffffffffffffffffffffffff169060200190929190803573ffffffffffffffffffffffffffffffffffffffff1690602001909291905050506126f1565b6040518082815260200191505060405180910390f35b610f4c60048036036060811015610ec857600080fd5b8101908080356bffffffffffffffffffffffff191690602001909291908035906020019092919080359060200190640100000000811115610f0857600080fd5b820183602082011115610f1a57600080fd5b80359060200191846020830284011164010000000083111715610f3c57600080fd5b9091929391929390505050612778565b604051808215151515815260200191505060405180910390f35b610f6e6127d0565b6040518082600d60200280838360005b83811015610f99578082015181840152602081019050610f7e565b5050505090500191505060405180910390f35b6040518060400160405280600381526020017f484558000000000000000000000000000000000000000000000000000000000081525081565b6000610ff9610ff2612979565b8484612981565b6001905092915050565b6000600254905090565b600061101a848484612b78565b6110db84611026612979565b6110d685604051806060016040528060288152602001615b3d60289139600160008b73ffffffffffffffffffffffffffffffffffffffff1673ffffffffffffffffffffffffffffffffffffffff168152602001908152602001600020600061108c612979565b73ffffffffffffffffffffffffffffffffffffffff1673ffffffffffffffffffffffffffffffffffffffff16815260200190815260200160002054612e2e9092919063ffffffff16565b612981565b600190509392505050565b600760205281600052604060002081815481106110ff57fe5b90600052602060002001600091509150508060000160009054906101000a900464ffffffffff16908060000160059054906101000a900468ffffffffffffffffff169080600001600e9054906101000a900468ffffffffffffffffff16908060000160179054906101000a900461ffff16908060000160199054906101000a900461ffff169080600001601b9054906101000a900461ffff169080600001601d9054906101000a900460ff16905087565b60006111fd84848480806020026020016040519081016040528093929190818152602001838360200280828437600081840152601f19601f82011690508083019250505050505050612eee565b90509392505050565b60008060606000806002861660ff16141590506000806004871660ff16141590506000806008881660ff1614159050821561133f578180156112455750805b156112b8576040517f08c379a00000000000000000000000000000000000000000000000000000000081526004018080602001828103825260178152602001807f4845583a20636c61696d466c61677320696e76616c696400000000000000000081525060200191505060405180910390fd5b600060f81b600160f81b89601f602081106112cf57fe5b1a60f81b167effffffffffffffffffffffffffffffffffffffffffffffffffffffffffffff191614611302576003611305565b60025b94508489604051602001808360ff1660ff1660f81b81526001018281526020019250505060405160208183030381529060405293506113fd565b8115801561134b575080155b6113bd576040517f08c379a00000000000000000000000000000000000000000000000000000000081526004018080602001828103825260178152602001807f4845583a20636c61696d466c61677320696e76616c696400000000000000000081525060200191505060405180910390fd5b60049450848989604051602001808460ff1660ff1660f81b8152600101838152602001828152602001935050505060405160208183030381529060405293505b600061140885612f26565b9050821561148a5761147d8160405160200180807e14000000000000000000000000000000000000000000000000000000000000815250600201826bffffffffffffffffffffffff19166bffffffffffffffffffffffff19168152601401915050604051602081830303815290604052612f26565b9650505050505050611494565b8096505050505050505b9392505050565b6000828260405160200180838152602001828152602001925050506040516020818303038152906040528051906020012060001c905092915050565b600881565b6000600760008373ffffffffffffffffffffffffffffffffffffffff1673ffffffffffffffffffffffffffffffffffffffff168152602001908152602001600020805490509050919050565b611530615943565b611538615943565b611542828261306d565b6000600760003373ffffffffffffffffffffffffffffffffffffffff1673ffffffffffffffffffffffffffffffffffffffff1681526020019081526020016000209050600081805490501415611600576040517f08c379a00000000000000000000000000000000000000000000000000000000081526004018080602001828103825260158152602001807f4845583a20456d707479207374616b65206c697374000000000000000000000081525060200191505060405180910390fd5b80805490508510611679576040517f08c379a00000000000000000000000000000000000000000000000000000000081526004018080602001828103825260178152602001807f4845583a207374616b65496e64657820696e76616c696400000000000000000081525060200191505060405180910390fd5b6116816159a4565b6116a182878154811061169057fe5b906000526020600020018683613208565b6116aa846133b1565b60008090506000808360a0015114159050600080600090506000809050600080905086606001518a6101400151106117c35784156116ee57866080015195506117a3565b6116f88a886133c5565b86606001518a6101400151039550866080015186111561171e57866080015195506117a2565b61015e8610156117a1578660c00151156117a0576040517f08c379a000000000000000000000000000000000000000000000000000000000815260040180806020018281038252601c8152602001807f4845583a204175746f2d7374616b65207374696c6c206c6f636b65640000000081525060200191505060405180910390fd5b5b5b5b6117ae8a88886133ec565b80945081955082965083975050505050611857565b8660c001511561183b576040517f08c379a000000000000000000000000000000000000000000000000000000000815260040180806020018281038252601c8152602001807f4845583a204175746f2d7374616b65207374696c6c206c6f636b65640000000081525060200191505060405180910390fd5b86604001518a6020018181510391508181525050866020015193505b61186e8b8860200151896040015186868b8b6134a8565b6000811415801561187d575084155b1561188d5761188c8a82613587565b5b600084146118ab5761189f33856135d7565b6118aa8a8886613792565b5b86602001518a60000181815103915081815250506118c9888d613812565b6118d38a8a613aa2565b505050505050505050505050565b600061198a6118ee612979565b8461198585600160006118ff612979565b73ffffffffffffffffffffffffffffffffffffffff1673ffffffffffffffffffffffffffffffffffffffff16815260200190815260200160002060008973ffffffffffffffffffffffffffffffffffffffff1673ffffffffffffffffffffffffffffffffffffffff16815260200190815260200160002054613d0890919063ffffffff16565b612981565b6001905092915050565b6000600360000160009054906101000a900468ffffffffffffffffff1668ffffffffffffffffff166119c4611003565b01905090565b6009602052816000526040600020602052806000526040600020600091509150508060000160009054906101000a900464ffffffffff16908060000160059054906101000a900464ffffffffff16905082565b611a25615943565b611a2d615943565b611a37828261306d565b6001831015611a91576040517f08c379a0000000000000000000000000000000000000000000000000000000008152600401808060200182810382526025815260200180615bf56025913960400191505060405180910390fd5b611a9a826133b1565b611aa78285856000613d90565b611ab13385613f34565b611abb8282613aa2565b50505050565b6000611acb6140ec565b905090565b611ad8615943565b611ae0615943565b611aea828261306d565b6000600760008773ffffffffffffffffffffffffffffffffffffffff1673ffffffffffffffffffffffffffffffffffffffff168152602001908152602001600020805490501415611ba3576040517f08c379a00000000000000000000000000000000000000000000000000000000081526004018080602001828103825260158152602001807f4845583a20456d707479207374616b65206c697374000000000000000000000081525060200191505060405180910390fd5b600760008673ffffffffffffffffffffffffffffffffffffffff1673ffffffffffffffffffffffffffffffffffffffff168152602001908152602001600020805490508410611c5a576040517f08c379a00000000000000000000000000000000000000000000000000000000081526004018080602001828103825260178152602001807f4845583a207374616b65496e64657820696e76616c696400000000000000000081525060200191505060405180910390fd5b6000600760008773ffffffffffffffffffffffffffffffffffffffff1673ffffffffffffffffffffffffffffffffffffffff1681526020019081526020016000208581548110611ca657fe5b906000526020600020019050611cba6159a4565b611cc5828683613208565b80608001518160600151018461014001511015611d4a576040517f08c379a000000000000000000000000000000000000000000000000000000000815260040180806020018281038252601b8152602001807f4845583a205374616b65206e6f742066756c6c7920736572766564000000000081525060200191505060405180910390fd5b60008160a0015114611dc4576040517f08c379a000000000000000000000000000000000000000000000000000000000815260040180806020018281038252601b8152602001807f4845583a205374616b6520616c726561647920756e6c6f636b6564000000000081525060200191505060405180910390fd5b611dcd846133b1565b611dd784826133c5565b6000806000611deb878586608001516133ec565b93509350935050611e088a89866020015187604001518787614106565b60008114611e1b57611e1a8782613587565b5b611e2585856141c8565b611e2f8787613aa2565b50505050505050505050565b60608183108015611e635750600360010160009054906101000a900461ffff1661ffff168211155b611ed5576040517f08c379a00000000000000000000000000000000000000000000000000000000081526004018080602001828103825260128152602001807f4845583a2072616e676520696e76616c6964000000000000000000000000000081525060200191505060405180910390fd5b828203604051908082528060200260200182016040528015611f065781602001602082028038833980820191505090505b5090506000839050600080905060005b60026048026006600085815260200190815260200160002060000160129054906101000a900466ffffffffffffff1666ffffffffffffff16901b905060486006600085815260200190815260200160002060000160099054906101000a900468ffffffffffffffffff1668ffffffffffffffffff16901b811790506006600084815260200190815260200160002060000160009054906101000a900468ffffffffffffffffff1668ffffffffffffffffff168117905080848380600101945081518110611fdf57fe5b602002602001018181525050848360010193508310611f165783935050505092915050565b60008060008373ffffffffffffffffffffffffffffffffffffffff1673ffffffffffffffffffffffffffffffffffffffff168152602001908152602001600020549050919050565b60056020528060005260406000206000915054906101000a900460ff1681565b60086020528060005260406000206000915090505481565b60008061208f6140ec565b905060018110156120eb576040517f08c379a0000000000000000000000000000000000000000000000000000000008152600401808060200182810382526024815260200180615abc6024913960400191505060405180910390fd5b60076032026001018110612167576040517f08c379a000000000000000000000000000000000000000000000000000000000815260040180806020018281038252601a8152602001807f4845583a20436c61696d2070686173652068617320656e64656400000000000081525060200191505060405180910390fd5b60056000876bffffffffffffffffffffffff19166bffffffffffffffffffffffff1916815260200190815260200160002060009054906101000a900460ff16156121b5576000915050612205565b6122018686868680806020026020016040519081016040528093929190818152602001838360200280828437600081840152601f19601f820116905080830192505050505050506142e0565b9150505b949350505050565b612215615943565b61221d615943565b612227828261306d565b6001826101400151116122a2576040517f08c379a000000000000000000000000000000000000000000000000000000000815260040180806020018281038252600e8152602001807f4845583a20546f6f206561726c7900000000000000000000000000000000000081525060200191505060405180910390fd5b6000831461231957816101400151831115612308576040517f08c379a0000000000000000000000000000000000000000000000000000000008152600401808060200182810382526026815260200180615a526026913960400191505060405180910390fd5b61231482846000614468565b61232b565b61232a828361014001516000614468565b5b6123358282613aa2565b505050565b60066020528060005260406000206000915090508060000160009054906101000a900468ffffffffffffffffff16908060000160099054906101000a900468ffffffffffffffffff16908060000160129054906101000a900466ffffffffffffff16905083565b6040518060400160405280600381526020017f484558000000000000000000000000000000000000000000000000000000000081525081565b600061249d6123e7612979565b8461249885604051806060016040528060258152602001615c1a6025913960016000612411612979565b73ffffffffffffffffffffffffffffffffffffffff1673ffffffffffffffffffffffffffffffffffffffff16815260200190815260200160002060008a73ffffffffffffffffffffffffffffffffffffffff1673ffffffffffffffffffffffffffffffffffffffff16815260200190815260200160002054612e2e9092919063ffffffff16565b612981565b6001905092915050565b60006124bb6124b4612979565b8484612b78565b6001905092915050565b60038060000160009054906101000a900468ffffffffffffffffff16908060000160099054906101000a900468ffffffffffffffffff16908060000160129054906101000a900464ffffffffff16908060000160179054906101000a900468ffffffffffffffffff16908060010160009054906101000a900461ffff16908060010160029054906101000a900468ffffffffffffffffff169080600101600b9054906101000a900464ffffffffff16908060010160109054906101000a90046fffffffffffffffffffffffffffffffff16905088565b6000601b8460ff16101580156125b55750601e8460ff1611155b612627576040517f08c379a000000000000000000000000000000000000000000000000000000000815260040180806020018281038252600e8152602001807f4845583a207620696e76616c696400000000000000000000000000000000000081525060200191505060405180910390fd5b6000612633888861149b565b9050600061264a6126458c8c8a614546565b614928565b90508173ffffffffffffffffffffffffffffffffffffffff1660018288888860405160008152602001604052604051808581526020018460ff1660ff1681526020018381526020018281526020019450505050506020604051602081039080840390855afa1580156126c0573d6000803e3d6000fd5b5050506020604051035173ffffffffffffffffffffffffffffffffffffffff16149250505098975050505050505050565b6000600160008473ffffffffffffffffffffffffffffffffffffffff1673ffffffffffffffffffffffffffffffffffffffff16815260200190815260200160002060008373ffffffffffffffffffffffffffffffffffffffff1673ffffffffffffffffffffffffffffffffffffffff16815260200190815260200160002054905092915050565b60006127c68585858580806020026020016040519081016040528093929190818152602001838360200280828437600081840152601f19601f820116905080830192505050505050506142e0565b9050949350505050565b6127d86159ea565b6000806000612807600360010160109054906101000a90046fffffffffffffffffffffffffffffffff16614a8a565b809350819450829550505050604051806101a00160405280600360000160009054906101000a900468ffffffffffffffffff1668ffffffffffffffffff168152602001600360000160099054906101000a900468ffffffffffffffffff1668ffffffffffffffffff168152602001600360000160129054906101000a900464ffffffffff1664ffffffffff168152602001600360000160179054906101000a900468ffffffffffffffffff1668ffffffffffffffffff168152602001600360010160009054906101000a900461ffff1661ffff168152602001600360010160029054906101000a900468ffffffffffffffffff1668ffffffffffffffffff1681526020016003600101600b9054906101000a900464ffffffffff1664ffffffffff16815260200182815260200183815260200184815260200142815260200161294e611003565b81526020016008600061295f6140ec565b815260200190815260200160002054815250935050505090565b600033905090565b600073ffffffffffffffffffffffffffffffffffffffff168373ffffffffffffffffffffffffffffffffffffffff161415612a07576040517f08c379a0000000000000000000000000000000000000000000000000000000008152600401808060200182810382526024815260200180615bd16024913960400191505060405180910390fd5b600073ffffffffffffffffffffffffffffffffffffffff168273ffffffffffffffffffffffffffffffffffffffff161415612a8d576040517f08c379a0000000000000000000000000000000000000000000000000000000008152600401808060200182810382526022815260200180615a9a6022913960400191505060405180910390fd5b80600160008573ffffffffffffffffffffffffffffffffffffffff1673ffffffffffffffffffffffffffffffffffffffff16815260200190815260200160002060008473ffffffffffffffffffffffffffffffffffffffff1673ffffffffffffffffffffffffffffffffffffffff168152602001908152602001600020819055508173ffffffffffffffffffffffffffffffffffffffff168373ffffffffffffffffffffffffffffffffffffffff167f8c5be1e5ebec7d5bd14f71427d1e84f3dd0314c0f7b2291e5b200ac8c7c3b925836040518082815260200191505060405180910390a3505050565b600073ffffffffffffffffffffffffffffffffffffffff168373ffffffffffffffffffffffffffffffffffffffff161415612bfe576040517f08c379a0000000000000000000000000000000000000000000000000000000008152600401808060200182810382526025815260200180615bac6025913960400191505060405180910390fd5b600073ffffffffffffffffffffffffffffffffffffffff168273ffffffffffffffffffffffffffffffffffffffff161415612c84576040517f08c379a0000000000000000000000000000000000000000000000000000000008152600401808060200182810382526023815260200180615a2f6023913960400191505060405180910390fd5b612cef81604051806060016040528060268152602001615b17602691396000808773ffffffffffffffffffffffffffffffffffffffff1673ffffffffffffffffffffffffffffffffffffffff16815260200190815260200160002054612e2e9092919063ffffffff16565b6000808573ffffffffffffffffffffffffffffffffffffffff1673ffffffffffffffffffffffffffffffffffffffff16815260200190815260200160002081905550612d82816000808573ffffffffffffffffffffffffffffffffffffffff1673ffffffffffffffffffffffffffffffffffffffff16815260200190815260200160002054613d0890919063ffffffff16565b6000808473ffffffffffffffffffffffffffffffffffffffff1673ffffffffffffffffffffffffffffffffffffffff168152602001908152602001600020819055508173ffffffffffffffffffffffffffffffffffffffff168373ffffffffffffffffffffffffffffffffffffffff167fddf252ad1be2c89b69c2b068fc378daa952ba7f163c4a11628f55a4df523b3ef836040518082815260200191505060405180910390a3505050565b6000838311158290612edb576040517f08c379a00000000000000000000000000000000000000000000000000000000081526004018080602001828103825283818151815260200191508051906020019080838360005b83811015612ea0578082015181840152602081019050612e85565b50505050905090810190601f168015612ecd5780820380516001836020036101000a031916815260200191505b509250505060405180910390fd5b5060008385039050809150509392505050565b6000612f1e827f4e831acb4223b66de3b3d2e54a2edeefb0de3d7916e2886a4b134d9764d41bec60001b85614b21565b905092915050565b600060036002836040518082805190602001908083835b60208310612f605780518252602082019150602081019050602083039250612f3d565b6001836020036101000a038019825116818451168082178552505050505050905001915050602060405180830381855afa158015612fa2573d6000803e3d6000fd5b5050506040513d6020811015612fb757600080fd5b8101908080519060200190929190505050604051602001808281526020019150506040516020818303038152906040526040518082805190602001908083835b6020831061301a5780518252602082019150602081019050602083039250612ff7565b6001836020036101000a038019825116818451168082178552505050505050905001915050602060405180830381855afa15801561305c573d6000803e3d6000fd5b5050506040515160601b9050919050565b600360000160009054906101000a900468ffffffffffffffffff1668ffffffffffffffffff16826000018181525050600360000160099054906101000a900468ffffffffffffffffff1668ffffffffffffffffff16826020018181525050600360000160129054906101000a900464ffffffffff1664ffffffffff16826040018181525050600360000160179054906101000a900468ffffffffffffffffff1668ffffffffffffffffff16826060018181525050600360010160009054906101000a900461ffff1661ffff16826080018181525050600360010160029054906101000a900468ffffffffffffffffff1668ffffffffffffffffff168260a00181815250506003600101600b9054906101000a900464ffffffffff168260c0019064ffffffffff16908164ffffffffff16815250506131cb600360010160109054906101000a90046fffffffffffffffffffffffffffffffff16614a8a565b846101200185610100018660e0018381525083815250838152505050506131f06140ec565b826101400181815250506132048282614bda565b5050565b8260000160009054906101000a900464ffffffffff1664ffffffffff168264ffffffffff16146132a0576040517f08c379a000000000000000000000000000000000000000000000000000000000815260040180806020018281038252601e8152602001807f4845583a207374616b654964506172616d206e6f7420696e207374616b65000081525060200191505060405180910390fd5b8260000160009054906101000a900464ffffffffff16816000019064ffffffffff16908164ffffffffff16815250508260000160059054906101000a900468ffffffffffffffffff1668ffffffffffffffffff1681602001818152505082600001600e9054906101000a900468ffffffffffffffffff1668ffffffffffffffffff168160400181815250508260000160179054906101000a900461ffff1661ffff168160600181815250508260000160199054906101000a900461ffff1661ffff1681608001818152505082600001601b9054906101000a900461ffff1661ffff168160a001818152505082600001601d9054906101000a900460ff168160c0019015159081151581525050505050565b6133c2818261014001516001614468565b50565b80604001518260a00181815103915081815250508161014001518160a00181815250505050565b600080600080856080015185101561342d576134178787606001518860800151888a60400151614c7e565b809350819450505082866020015101935061346d565b6134478787604001518860600151888a6060015101614d54565b925082866020015101935061346a866060015187608001518860a0015187614ea0565b91505b6000821461349357838211156134895783905060009350613492565b81905080840393505b5b83838383935093509350935093509350935093565b8664ffffffffff163373ffffffffffffffffffffffffffffffffffffffff167f72d9c5a7ab13846e08d9c838f9e866a1bb4a66a2fd3ba3c9e7da3cf9e394dfd760b88768ffffffffffffffffff16901b60708968ffffffffffffffffff16901b60288b68ffffffffffffffffff16901b4264ffffffffff161717178461352f57600061353d565b6b0100000000000000000000005b6bffffffffffffffffffffffff1660488761ffff16901b8868ffffffffffffffffff161717604051808381526020018281526020019250505060405180910390a350505050505050565b60006002828161359357fe5b049050600081146135bd576135bc739a6a414d6f3497c05e3b1de90520765fa1e07c03826135d7565b5b808203905080836060018181510191508181525050505050565b600073ffffffffffffffffffffffffffffffffffffffff168273ffffffffffffffffffffffffffffffffffffffff16141561367a576040517f08c379a000000000000000000000000000000000000000000000000000000000815260040180806020018281038252601f8152602001807f45524332303a206d696e7420746f20746865207a65726f20616464726573730081525060200191505060405180910390fd5b61368f81600254613d0890919063ffffffff16565b6002819055506136e6816000808573ffffffffffffffffffffffffffffffffffffffff1673ffffffffffffffffffffffffffffffffffffffff16815260200190815260200160002054613d0890919063ffffffff16565b6000808473ffffffffffffffffffffffffffffffffffffffff1673ffffffffffffffffffffffffffffffffffffffff168152602001908152602001600020819055508173ffffffffffffffffffffffffffffffffffffffff16600073ffffffffffffffffffffffffffffffffffffffff167fddf252ad1be2c89b69c2b068fc378daa952ba7f163c4a11628f55a4df523b3ef836040518082815260200191505060405180910390a35050565b816020015181111561380d5760006137ae828460800151614edd565b905060008360400151620186a083850102816137c657fe5b049050600160286001901b038111156137e557600160286001901b0390505b846040015181111561380a5780856040018181525050613809818560000151614fd3565b5b50505b505050565b6000600183805490500390508082146139db5782818154811061383157fe5b9060005260206000200183838154811061384757fe5b906000526020600020016000820160009054906101000a900464ffffffffff168160000160006101000a81548164ffffffffff021916908364ffffffffff1602179055506000820160059054906101000a900468ffffffffffffffffff168160000160056101000a81548168ffffffffffffffffff021916908368ffffffffffffffffff16021790555060008201600e9054906101000a900468ffffffffffffffffff1681600001600e6101000a81548168ffffffffffffffffff021916908368ffffffffffffffffff1602179055506000820160179054906101000a900461ffff168160000160176101000a81548161ffff021916908361ffff1602179055506000820160199054906101000a900461ffff168160000160196101000a81548161ffff021916908361ffff16021790555060008201601b9054906101000a900461ffff1681600001601b6101000a81548161ffff021916908361ffff16021790555060008201601d9054906101000a900460ff1681600001601d6101000a81548160ff0219169083151502179055509050505b828054806139e557fe5b60019003818190600052602060002001600080820160006101000a81549064ffffffffff02191690556000820160056101000a81549068ffffffffffffffffff021916905560008201600e6101000a81549068ffffffffffffffffff02191690556000820160176101000a81549061ffff02191690556000820160196101000a81549061ffff021916905560008201601b6101000a81549061ffff021916905560008201601d6101000a81549060ff021916905550509055505050565b80600001518260000151141580613ac157508060200151826020015114155b80613ad457508060400151826040015114155b80613ae757508060600151826060015114155b15613bad578160000151600360000160006101000a81548168ffffffffffffffffff021916908368ffffffffffffffffff1602179055508160200151600360000160096101000a81548168ffffffffffffffffff021916908368ffffffffffffffffff1602179055508160400151600360000160126101000a81548164ffffffffff021916908364ffffffffff1602179055508160600151600360000160176101000a81548168ffffffffffffffffff021916908368ffffffffffffffffff1602179055505b80608001518260800151141580613bcc57508060a001518260a0015114155b80613bed57508060c0015164ffffffffff168260c0015164ffffffffff1614155b80613c0057508060e001518260e0015114155b80613c15575080610100015182610100015114155b80613c2a575080610120015182610120015114155b15613d04578160800151600360010160006101000a81548161ffff021916908361ffff1602179055508160a00151600360010160026101000a81548168ffffffffffffffffff021916908368ffffffffffffffffff1602179055508160c001516003600101600b6101000a81548164ffffffffff021916908364ffffffffff160217905550613cc88261012001518361010001518460e0015161502a565b600360010160106101000a8154816fffffffffffffffffffffffffffffffff02191690836fffffffffffffffffffffffffffffffff1602179055505b5050565b600080828401905083811015613d86576040517f08c379a000000000000000000000000000000000000000000000000000000000815260040180806020018281038252601b8152602001807f536166654d6174683a206164646974696f6e206f766572666c6f77000000000081525060200191505060405180910390fd5b8091505092915050565b6115b3821115613deb576040517f08c379a0000000000000000000000000000000000000000000000000000000008152600401808060200182810382526026815260200180615b656026913960400191505060405180910390fd5b6000613df78484614edd565b905060008560400151620186a08387010281613e0f57fe5b0490506000811415613e6c576040517f08c379a0000000000000000000000000000000000000000000000000000000008152600401808060200182810382526037815260200180615ae06037913960400191505060405180910390fd5b6000600187610140015110613e8957600187610140015101613e8e565b600180015b905060008760c001805160010164ffffffffff16908164ffffffffff168152509050613efd600760003373ffffffffffffffffffffffffffffffffffffffff1673ffffffffffffffffffffffffffffffffffffffff168152602001908152602001600020828986868b8b615050565b613f0a81888589896151f7565b82886020018181510191508181525050868860000181815101915081815250505050505050505050565b600073ffffffffffffffffffffffffffffffffffffffff168273ffffffffffffffffffffffffffffffffffffffff161415613fba576040517f08c379a0000000000000000000000000000000000000000000000000000000008152600401808060200182810382526021815260200180615b8b6021913960400191505060405180910390fd5b61402581604051806060016040528060228152602001615a78602291396000808673ffffffffffffffffffffffffffffffffffffffff1673ffffffffffffffffffffffffffffffffffffffff16815260200190815260200160002054612e2e9092919063ffffffff16565b6000808473ffffffffffffffffffffffffffffffffffffffff1673ffffffffffffffffffffffffffffffffffffffff1681526020019081526020016000208190555061407c816002546152cc90919063ffffffff16565b600281905550600073ffffffffffffffffffffffffffffffffffffffff168273ffffffffffffffffffffffffffffffffffffffff167fddf252ad1be2c89b69c2b068fc378daa952ba7f163c4a11628f55a4df523b3ef836040518082815260200191505060405180910390a35050565b600062015180635de5a58042038161410057fe5b04905090565b3373ffffffffffffffffffffffffffffffffffffffff168564ffffffffff168773ffffffffffffffffffffffffffffffffffffffff167fd824970a2cf19cc2b630c87ce5b00f67301cac3ac60513d027c7a39129f93b4660b88668ffffffffffffffffff16901b60708868ffffffffffffffffff16901b60288a68ffffffffffffffffff16901b4264ffffffffff161717178568ffffffffffffffffff16604051808381526020018281526020019250505060405180910390a4505050505050565b80600001518260000160006101000a81548164ffffffffff021916908364ffffffffff16021790555080602001518260000160056101000a81548168ffffffffffffffffff021916908368ffffffffffffffffff160217905550806040015182600001600e6101000a81548168ffffffffffffffffff021916908368ffffffffffffffffff16021790555080606001518260000160176101000a81548161ffff021916908361ffff16021790555080608001518260000160196101000a81548161ffff021916908361ffff1602179055508060a0015182600001601b6101000a81548161ffff021916908361ffff1602179055508060c0015182600001601d6101000a81548160ff0219169083151502179055505050565b600080602d6001602d6060036001901b03901b8360008151811061430057fe5b602002602001015160001c161461437f576040517f08c379a00000000000000000000000000000000000000000000000000000000081526004018080602001828103825260128152602001807f4845583a2070726f6f6620696e76616c6964000000000000000000000000000081525060200191505060405180910390fd5b6000600190505b825181101561443a576000602d6001602d6060036001901b03901b8483815181106143ad57fe5b602002602001015160001c16141561442d576040517f08c379a00000000000000000000000000000000000000000000000000000000081526004018080602001828103825260128152602001807f4845583a2070726f6f6620696e76616c6964000000000000000000000000000081525060200191505060405180910390fd5b8080600101915050614386565b5060008360001b856bffffffffffffffffffffffff191617905061445e8184612eee565b9150509392505050565b8183608001511061447857614541565b614480615a0d565b836000015161448d611003565b018160000181815250506000846080015190506144ab858383615316565b60008560200151146144d75784602001518560a001818151019150818152505060008560200181815250505b5b838160010191508110156144f6576144f1858383615316565b6144d8565b614505856080015182856153eb565b80856080018181525050600082602001511461453e5761453d739a6a414d6f3497c05e3b1de90520765fa1e07c0383602001516135d7565b5b50505b505050565b60608060006001841660ff161415614593576040518060400160405280600f81526020017f436c61696d5f4845585f746f5f307800000000000000000000000000000000008152506145ca565b6040518060400160405280601681526020017f436c61696d5f426974636f696e4845585f746f5f3078000000000000000000008152505b90506000806010851660ff1614905060606145e5878361547e565b90506000801b8614156147225760187f426974636f696e205369676e6564204d6573736167653a0a000000000000000060026014028551018584604051602001808660ff1660ff1660f81b81526001018567ffffffffffffffff191667ffffffffffffffff191681526018018460ff1660ff1660f81b815260010183805190602001908083835b6020831061468f578051825260208201915060208101905060208303925061466c565b6001836020036101000a03801982511681845116808217855250505050505090500182805190602001908083835b602083106146e057805182526020820191506020810190506020830392506146bd565b6001836020036101000a038019825116818451168082178552505050505050905001955050505050506040516020818303038152906040529350505050614921565b60606002600c0260ff166040519080825280601f01601f19166020018201604052801561475e5781602001600182028038833980820191505090505b5090506147708188600c60ff16615565565b60187f426974636f696e205369676e6564204d6573736167653a0a00000000000000006002600c02600160026014028851010101868585604051602001808760ff1660ff1660f81b81526001018667ffffffffffffffff191667ffffffffffffffff191681526018018560ff1660ff1660f81b815260010184805190602001908083835b6020831061481757805182526020820191506020810190506020830392506147f4565b6001836020036101000a03801982511681845116808217855250505050505090500183805190602001908083835b602083106148685780518252602082019150602081019050602083039250614845565b6001836020036101000a038019825116818451168082178552505050505050905001807f5f0000000000000000000000000000000000000000000000000000000000000081525060010182805190602001908083835b602083106148e157805182526020820191506020810190506020830392506148be565b6001836020036101000a03801982511681845116808217855250505050505090500196505050505050506040516020818303038152906040529450505050505b9392505050565b6000600280836040518082805190602001908083835b60208310614961578051825260208201915060208101905060208303925061493e565b6001836020036101000a038019825116818451168082178552505050505050905001915050602060405180830381855afa1580156149a3573d6000803e3d6000fd5b5050506040513d60208110156149b857600080fd5b8101908080519060200190929190505050604051602001808281526020019150506040516020818303038152906040526040518082805190602001908083835b60208310614a1b57805182526020820191506020810190506020830392506149f8565b6001836020036101000a038019825116818451168082178552505050505050905001915050602060405180830381855afa158015614a5d573d6000803e3d6000fd5b5050506040513d6020811015614a7257600080fd5b81019080805190602001909291905050509050919050565b60008060006002603302846fffffffffffffffffffffffffffffffff16901c6fffffffffffffffffffffffffffffffff169250600160336001901b036033856fffffffffffffffffffffffffffffffff16901c6fffffffffffffffffffffffffffffffff16169150600160336001901b03846fffffffffffffffffffffffffffffffff161690508282829250925092509193909250565b60008082905060008090505b8551811015614bcc576000868281518110614b4457fe5b6020026020010151905080831015614b8c5782816040516020018083815260200182815260200192505050604051602081830303815290604052805190602001209250614bbe565b808360405160200180838152602001828152602001925050506040516020818303038152906040528051906020012092505b508080600101915050614b2d565b508381149150509392505050565b816000015181600001818152505081602001518160200181815250508160400151816040018181525050816060015181606001818152505081608001518160800181815250508160a001518160a00181815250508160c001518160c0019064ffffffffff16908164ffffffffff16815250508160e001518160e001818152505081610100015181610100018181525050816101200151816101200181815250505050565b60008060008487019050600060026001880181614c9757fe5b049050605a811015614ca857605a90505b6000861415614cd3576000614cbe8a878b615696565b90508181029350848494509450505050614d4a565b85811015614d145760008189019050614cee8a878b84614d54565b93506000614cfe8b888487614d54565b9050808501955085859550955050505050614d4a565b614d2089868a85614d54565b935085811415614d3257839250614d41565b8581850281614d3d57fe5b0492505b83839350935050505b9550959350505050565b6000808390505b82811015614dec576006600082815260200190815260200160002060000160099054906101000a900468ffffffffffffffffff1668ffffffffffffffffff16856006600084815260200190815260200160002060000160009054906101000a900468ffffffffffffffffff1668ffffffffffffffffff160281614dda57fe5b04820191508080600101915050614d5b565b5060016007603202600101018311158015614e105750600160076032026001010182115b15614e95576000600660006001600760320260010101815260200190815260200160002060000160099054906101000a900468ffffffffffffffffff1668ffffffffffffffffff16856127106305f5e100600860ff16600a0a81614e7057fe5b04028860e00151020281614e8057fe5b049050614e8d868261575c565b810182019150505b809050949350505050565b6000806007600202858701019050808411614ebf576000915050614ed5565b6007606402818503840281614ed057fe5b049150505b949350505050565b600080600090506001831115614f3557606460c86014618e3081614efd57fe5b040281614f0657fe5b04831115614f2d57606460c86014618e3081614f1e57fe5b040281614f2757fe5b04614f32565b600183035b90505b6000600860ff16600a0a6308f0d18002851115614f5f57600860ff16600a0a6308f0d18002614f61565b845b90506014618e3081614f6f57fe5b048102600a6064600860ff16600a0a6308f0d180020281614f8c57fe5b048302019250600a6064600860ff16600a0a6308f0d180020281614fac57fe5b046014618e3081614fb957fe5b040283860281614fc557fe5b049250829250505092915050565b8064ffffffffff167f9861fa0ed101659f7a59b4583fcc798dfa4f3b419bea371c8ee2ad0ffe13a31e60288464ffffffffff16901b4264ffffffffff16176040518082815260200191505060405180910390a25050565b600080600260330285901b9050603384901b811790508281179050809150509392505050565b866040518060e001604052808864ffffffffff1681526020018768ffffffffffffffffff1681526020018668ffffffffffffffffff1681526020018561ffff1681526020018461ffff168152602001600061ffff16815260200183151581525090806001815401808255809150509060018203906000526020600020016000909192909190915060008201518160000160006101000a81548164ffffffffff021916908364ffffffffff16021790555060208201518160000160056101000a81548168ffffffffffffffffff021916908368ffffffffffffffffff160217905550604082015181600001600e6101000a81548168ffffffffffffffffff021916908368ffffffffffffffffff16021790555060608201518160000160176101000a81548161ffff021916908361ffff16021790555060808201518160000160196101000a81548161ffff021916908361ffff16021790555060a082015181600001601b6101000a81548161ffff021916908361ffff16021790555060c082015181600001601d6101000a81548160ff02191690831515021790555050505050505050505050565b8464ffffffffff163373ffffffffffffffffffffffffffffffffffffffff167f14872dc760f33532684e68e1b6d5fd3f71ba7b07dee76bdb2b084f28b74233ef8361524357600061525f565b7901000000000000000000000000000000000000000000000000005b79ffffffffffffffffffffffffffffffffffffffffffffffffffff1660b88661ffff16901b60708868ffffffffffffffffff16901b60288a68ffffffffffffffffff16901b4264ffffffffff16171717176040518082815260200191505060405180910390a35050505050565b600061530e83836040518060400160405280601e81526020017f536166654d6174683a207375627472616374696f6e206f766572666c6f770000815250612e2e565b905092915050565b61532183838361579f565b81604001516006600083815260200190815260200160002060000160006101000a81548168ffffffffffffffffff021916908368ffffffffffffffffff1602179055508260a001516006600083815260200190815260200160002060000160096101000a81548168ffffffffffffffffff021916908368ffffffffffffffffff1602179055508260e001516006600083815260200190815260200160002060000160126101000a81548166ffffffffffffff021916908366ffffffffffffff160217905550505050565b3373ffffffffffffffffffffffffffffffffffffffff167fb8d6eb541ded1720cc657b719f57abcb1fe4711cb7ead82751b135f5d94bc9448261542f57600061543b565b69010000000000000000005b69ffffffffffffffffffff1660388561ffff16901b60288761ffff16901b4264ffffffffff161717176040518082815260200191505060405180910390a2505050565b6060600260140260ff166040519080825280601f01601f1916602001820160405280156154ba5781602001600182028038833980820191505090505b5090506154de818460601b6bffffffffffffffffffffffff1916601460ff16615565565b811561555c57600081805190602001209050600080905060008090505b601460ff1681101561555857600083826020811061551557fe5b1a60f81b60f81c9050615536858480600101955060048460ff16901c615884565b61554a8584806001019550600f8416615884565b5080806001019150506154fb565b5050505b80905092915050565b600080905060008090505b8281101561568f57600084826020811061558657fe5b1a60f81b60f81c90507f303132333435363738396162636465660000000000000000000000000000000060048260ff16901c60ff16601081106155c557fe5b1a60f81b8684806001019550815181106155db57fe5b60200101907effffffffffffffffffffffffffffffffffffffffffffffffffffffffffffff1916908160001a9053507f3031323334353637383961626364656600000000000000000000000000000000600f821660ff166010811061563c57fe5b1a60f81b86848060010195508151811061565257fe5b60200101907effffffffffffffffffffffffffffffffffffffffffffffffffffffffffffff1916908160001a905350508080600101915050615570565b5050505050565b60006156a0615943565b6156aa8582614bda565b6156b2615a0d565b85600001516156bf611003565b018160000181815250506156d482828661579f565b848260a00181815101915081815250508160a0015185826040015102816156f757fe5b04925060016007603202600101018414156157505760008260a00151866127106305f5e100600860ff16600a0a8161572b57fe5b04028560e0015102028161573b57fe5b049050615748838261575c565b810184019350505b82925050509392505050565b6000806301ab362e84610120015184028161577357fe5b049050600066033bb85fc52d9985610100015185028161578f57fe5b0490508082019250505092915050565b6305fcbae3612710836000015102816157b457fe5b04826040018181525050600760320260010181101561585357600060076032026127106305f5e100600860ff16600a0a816157eb57fe5b04028560e0015102816157fa57fe5b049050600061580f858386604001510161575c565b82019050808460200181815101915081815250508084600001818151019150818152505061584185856040015161575c565b84604001818151019150818152505050505b600083606001511461587f57826060015182604001818151019150818152505060008360600181815250505b505050565b600083838151811061589257fe5b602001015160f81c60f81b90507f6100000000000000000000000000000000000000000000000000000000000000817effffffffffffffffffffffffffffffffffffffffffffffffffffffffffffff1916101580156158f5575060088260ff1610155b1561593d57602060f81b811884848151811061590d57fe5b60200101907effffffffffffffffffffffffffffffffffffffffffffffffffffffffffffff1916908160001a9053505b50505050565b604051806101600160405280600081526020016000815260200160008152602001600081526020016000815260200160008152602001600064ffffffffff168152602001600081526020016000815260200160008152602001600081525090565b6040518060e00160405280600064ffffffffff16815260200160008152602001600081526020016000815260200160008152602001600081526020016000151581525090565b604051806101a00160405280600d90602082028038833980820191505090505090565b6040518060600160405280600081526020016000815260200160008152509056fe45524332303a207472616e7366657220746f20746865207a65726f20616464726573734845583a206265666f72654461792063616e6e6f7420626520696e207468652066757475726545524332303a206275726e20616d6f756e7420657863656564732062616c616e636545524332303a20617070726f766520746f20746865207a65726f20616464726573734845583a20436c61696d20706861736520686173206e6f742079657420737461727465644845583a206e65775374616b6564486561727473206d757374206265206174206c65617374206d696e696d756d2073686172655261746545524332303a207472616e7366657220616d6f756e7420657863656564732062616c616e636545524332303a207472616e7366657220616d6f756e74206578636565647320616c6c6f77616e63654845583a206e65775374616b65644461797320686967686572207468616e206d6178696d756d45524332303a206275726e2066726f6d20746865207a65726f206164647265737345524332303a207472616e736665722066726f6d20746865207a65726f206164647265737345524332303a20617070726f76652066726f6d20746865207a65726f20616464726573734845583a206e65775374616b656444617973206c6f776572207468616e206d696e696d756d45524332303a2064656372656173656420616c6c6f77616e63652062656c6f77207a65726fa265627a7a7231582098fe817a233a7630b1abf453f89a25fb52d30e00a475dc5b23a0db3b7260955064736f6c634300050d0032",
  "linkReferences": {},
  "deployedLinkReferences": {}
}